:020000041000EA
:4000000000400208230100100D00000085010010000000000000000000000000000000000000000000000000000000008101001000000000000000008101001081010010E9
:400040008101001081010010810100108101001081010010810100108101001081010010810100108101001081010010810100108101001081010010810100108101001060
:400080008101001081010010810100108101001081010010810100108101001081010010810100108101001081010010810100108101001081010010810100108101001020
:4000C00010B5064C2378002B07D1054B002B02D0044800E000BF0123237010BD34060008000000006C330010084B10B5002B03D00749084800E000BF07480368002B00D193
:4001000010BD064B002BFBD09847F9E700000000380600086C330010E4000008000000007047FFF7FDFF72B60F4C104DAC4209DA21686268A368043B02DBC858D050FAE716
:400140000C34F3E70A490B4A0020521A02DD043A8850FCDC084809490860BFF34F8F00F003F900F01DF8FEE7703300108833001034060008440800080000000808ED00E003
:40018000FEE7FEE700B504207146084202D0EFF3098001E0EFF30880043001F0C3FBFEE710B562B6034800F065F9002001F076FFFBE7C0460000081010B5002001F090F8F1
:4001C00010BDC04670B55F49E0239B00CB580F2213401A00D0329200525807210A4002D0042A02D00FE0584811E01A00C0329200544952581F210A40112A06D0132A04D06D
:40020000FA20C00103E0514801E080200002002B36D14C4BB222D2009A5801211140B125ED005A59120F032422405B591B0F1C4207D0444C63591B0F03242340012B02D1DE
:4002400002E0012300E00023002B01D0002901D1032A4BD13B4BB022D2009D58AD03AD0B3B495958C904C90C9C58240E01231C40013401F0C5FF6843210001F0C1FF35E0B5
:40028000012B33D12F4BC822D2009A5801251540C024E4001A59120F03210A401B591B0F194207D027490B591B0F03210B40012B02D102E0012300E00023002B01D0002D33
:4002C00001D1032A12D11F4DC022D200AB587F210B40A958090A1F263140AC58240C3440584301F08DFF210001F08AFFE0239B00144AD3581B0903221340D840154C20602D
:40030000154B1D692D0AFC32154001351969090E013101F075FF6060290001F071FF0500A060E0600D4BC0180D4901F069FF20740C4BE818FA21890001F062FF6061C003E4
:40034000A06170BD0000264000127A0000366E0184050000C0000008000021403F420F0040420F00E703000010B5284801F042FF274CB022D200A3585B005B08A350E021D0
:400380008900635830208343635080235B04A350204A214BE250A02292010433E250FF221E4BE25001F014FFC0225200A35801218B43A35000F074FAFFF704FFB0235B0519
:4003C0005B78002B04D0B0235B055B78DBB200E02123212B03D1124B0022DA605A60114C22008021042000F021FD2000103000F0B5FD0D4B1A685123D35C002B02D00B48C0
:4004000000F022FE00F0EAFB10BDC046B43200100000264001000200840500008C050000E00023405006000840080008882300108023024AD3580320184070470000214032
:4004400010B501F002FB084980228C58074B2340074C23438B508823034AD358DB06FAD501F0F7FA10BDC04600002140FCFF00000100FA0570B50500830504D0E821FF3106
:400480000F4801F021FA01F0E0FA0400FFF7D0FF032801D1FFF7D4FF0A4AB0239B00D55080215058084B03400848034353508823044AD358DB06FAD5200001F0CAFA70BDAA
:4004C000BC23001000002140FCFF00000300FA05FEE7C046F0B50025002711E0BB00C658F3B2FF22964308E06A008A181478A419527822700135013BDBB2002BF4D10137AA
:40050000012FEBD9F0BDC0460323064A1360064A136080225201054B1A60054A054B1A607047C04608203140102031409402364001001180000E1F4110B50A00002101F0AC
:40054000F4FE10BD10B501F0E7FE10BD30B587B0C049A022D2008B58032083438B50BE4A116808688823CB58C3181868BB49084018601368186884241B59C01803681B029F
:400580001B0A80256D042B430360106805680359EB1818680140196013683E229A5C002A06D0AC48E02189004258753CA24342503E229A5C002A06D0A648E0218900425838
:4005C0003024A24342503E229A5C002A07D0A148E0218900425880242406224342503E229A5C032A08D99B4CE320800022580F218A430E390A4322503E229A5C032A06D95A
:400600009448E321890042583024A24342503E229B5C032B07D98F49E32292008B588020000603438B500021012000F08BFE05228B4901A801F070FE01A9012000F0D8FF1E
:40064000002802D00320FFF743FF8649012001F03DF8002802D00320FFF73AFF0021022000F070FE0021032000F06CFE0021042000F068FE0021002000F064FE01A80200AB
:40068000774B083332CB32C212CB12C200F088FE002802D00420FFF71BFF6E49724A8B588020000603438B50704800F033FF002802D00420FFF70CFF664C6D4BE1586D4A87
:4006C0000A40E250E1586C4A0A40E250E25880252D062A43E250043BE158684A0A40E250E158674A0A40802189010A43E250E258802109020A43E250624A1168624B0B405C
:40070000802149000B431360002001F043FD5F4BE2581543E550E158012291430A43E2506421002001F016F94B4B1B683F229A5C142A07D970229A5C01210A40C521090186
:40074000986842509A6874215B5AD2185168434B0B40C42189010B4353603F4B1B6873229A5C0321914070229A5C7220185C140084402143012002400A43802109060A43AB
:400780008021C900986842509A6852583F229A5C332A03D900213E4A986881509A6874215B5AD21811682D4B0B40FE2109020B431360294B1B687322995C703A8A40110024
:4007C00070229A5C7220185C82400A43802109060A438021C900986842509A6852583F229A5C3A2A0AD97122985C703A82401100032282400A402749986842509A68762149
:400800005B5AD2181168244B0B4024490B431360114B19687323CB5C032422009A4013007022885C02328A5C904018437123CB5C01229A409C402300134003438022120623
:4008400013438022D200886883508B689B5807B030BDC0460000264040080008FF00FFFFD423001010270000087F0000400D030004050000FEFCFFFFFFFF00FFFFF0FFFFA8
:40088000FF8FFFFF00002740FFFCFFFF0C050000CC0C0000E80C0000FF0000FF00F3010070B58AB09621002001F054F801F02AF8002814D101F016F8C0235B005D4AD358DB
:4008C000DB0705D411005C4A8B585B005B088B505849594A8B588020000603438B50012001F0F6FA554A516C554B0B40E82189010B435364536C1B0AFF2213403A2B07D1A6
:400900004E4A516C4F4B0B40E82189010B435364FFF71CFE4C4A4D4B1A6000240CE06200121953004A4AD318198C9A8BD88B00041043FFF701FE01340B2CF0D900240AE002
:40094000620012199300424AD318DA6E996E586EFFF7F8FD0134112CF2D93E4D29003C3128004C30FFF7B6FD3B4A1368832149000B43136001AC22002B00543343CB43C2F3
:4009800043CB43C243CB43C22100344800F02EF922002B00783323CB23C223CB23C223CB23C221002E4800F021F92E4D22002B001C3343CB43C243CB43C243CB43C22100DA
:4009C000294800F013F924220021200001F0ADFC862301932100254800F008F922002B00403343CB43C243CB43C243CB43C221001F4800F0FBF822002B00643323CB23C292
:400A000023CB23C223CB23C221001A4800F0EEF82200194B083323CB23C223CB23C223CB23C22100154800F0E1F8FFF76DFD0AB070BDC046000026400C050000000027400B
:400A4000FF00FFFFFFC5FFDF0300FA05F0012140D4230010D42400100079344000003240800032405425001000033240800332400004324080053240D42500100007324041
:400A8000214B984230D00ED8402831D004D800281FD010282AD031E080282BD080235B00984229D02AE0194B984229D007D8A0231B0698420DD0164B984212D01EE0154BC1
:400AC00098420AD0144B984209D0144B984215D101E0002016E0124814E0124812E0124810E0A020C0030DE007480BE00F4809E00F4807E00F4805E0034803E00E4801E06D
:400B0000A420C0037047C04606005200010000F0090000A0040000F0050000F0030000F0010052000200520003005200010050000200500005005200FF00520070B5124BDA
:400B40001A683123D35C002B04D1C421FF310F4800F0BAFE0C4B1D682C00B423EB582A6A944663441B68002B0BDB094B1868FFF787FF6B6801229A6063689B68002BFBD18C
:400B800000E0044870BDC04640080008302F0010E00700080200500010B50D4B1861002805D002230370FD33437000234380094B1B6850229A5C002A08D051229B5C002B0C
:400BC00004D04F3A0449002000F0F8FA10BDC046E0070008400800085D01000810B502481430FFF7D9FF10BDE007000870B505000C0000285DD000295DD0FF230A689A43A2
:400C000003D099212D4800F05FFEFF2322699A4303D09A21294800F057FEA3685B0D03D09B21264800F050FE63685B0A03D09C21224800F049FEE3695B0F03D09D211F48DA
:400C400000F042FE236A5B0F03D09E211B4800F03BFE1B4A11688B69EB1ADB0949691B01CB18216829607D211068415C6918E06808607E211068415C6918206908607F2107
:400C80001068415C6918606908607C211068415C6918A06808606168A961116880228A5CAD18A2692A60E2691A60226A5A60002002E0044800E0034870BDC046702F001036
:400CC0004008000801005A0070B504000D000A4B1A68B423D3581B181B68002B0ADA0B0C03D00649064800F0EFFD2D042D0C6560002000E0034870BD40080008D502000044
:400D0000F02F001001008A0070B505000C000368002B01DA002300E0084B002B0BD1EA60230C03D00649074800F0CEFD2404240CAC60002000E0014870BDC04601008A00E5
:400D4000BB020000F02F001070B505000C1E03D19921084800F0B8FD074B1A68B423D3585B191B68002B03DAEB682360002000E0024870BD303000104008000801008A0043
:400D800070B504000D00234B1A683123D35C834236D9002936D00B68DB0635D13123D35C984204D3C421FF311B4800F08DFD194B1B681A6AB0215B5A5C431419174E346051
:400DC0002B68DA080021686801F0AFFA00212000FFF77AFF3468002D03D111490E4800F073FD2A0000212000FFF78EFF00280DD10A4B18680021FFF767FF002808D108E067
:400E0000084806E0074804E0064802E0064800E0054870BD40080008F02F0010F80700089303000003018A0001018A0010B50400002A17D1002915D1124B1A683123D35CEF
:400E4000984204D3C421FF310F4800F03DFD0D4B1B681A6AB0215B5A5C4314190B4B1C6000200EE0002A09D0002909D0074B59609A60191D2000FFF783FF02E0044800E0B4
:400E8000034810BD40080008F02F0010F807000803018A00F0B583B00D001C4B1B68DC68236883422DD947097B01C01A012383401E00002903D100F0C8FD019001E00023AB
:400EC0000193124B18680368002B01DA002300E00F4B002B0ED16368BF00DF193B68334203D0B3433B60002400E00A4C0021FFF7EBFE00E0084C002D04D1019800F0A9FDEC
:400F000000E0064C200003B0F0BDC046F807000801008A00020188000301880004018A000A4B1B68DA68136883420BD943095901401A0121814052689B009B580B4203D038
:400F4000034802E0034800E003487047F80700080101880004018A0000018800034B1B68002B01D1014B18607047C04604080008F0B5474680B404000F0090461E002D4B26
:400F80001B68002B03D1B5212B4800F09DFC294B1B682C2060431C18FF22150035402560330A13406360360CA660244B1A683123D35C9D4204D3C421FF31214800F084FCE0
:400FC0001E4B1A68B023D35A6B43116A8C466344236166683223D35C9E4204D3E021FF31174800F071FC154B1B681D6A80367601AD196561A668330C04D0FF2149001048E5
:4010000000F062FC330C03D00E490D4800F05CFC3604330C1E43AE604346E36127620023A361069B002B02D000229B5EA38104BC9046F0BD040800087030001040080008C3
:40104000F02F0010FF010000F0B58FB0041E03D15221294800F038FC6368032B03D95421254800F031FCE36A002B03D15821224800F02AFC236B002B03D159211E4800F0E9
:4010800023FC07AA1300210061C961C321C921C302AD290023001433C1CBC1C141CB41C10821535E0CAE3380144B1B6836215B5E07998C466344B370089B0D930B9B0A98B2
:4010C0000096A26AE16AFFF753FF2B69E868002200920021FFF74CFF216B300000F086FB0023F25E002A05DB1F231A401E3B9340034A13600FB0F0BD703000104008000823
:4011000000E100E0F8B505000F0016001C00002A03D1FD21224800F0D7FB224B1B68002B03D1FE211E4800F0CFFB1E4B1B682C2128004843181879435918012213004D6851
:40114000AB401B044568AA4015000269002A20D08F69002F1FD11268002A01DA002200E0114A002A19D132681204120C134333600369DE6001238B614C6204692B0C03D097
:401180000A490B4800F0A0FB2A04120CA260002004E0084802E0084800E00748F8BDC046703000100408000801008A00BB020000F02F001004028A0007028A0070B50400B9
:4011C0000D0016000F4B1B68002B04D1AF2149000D4800F079FB0B4B1B682C2060431C18236A002B04D1B1214900074800F06CFBE369B34204D9236AB6009D51002000E084
:40120000024870BD04080008703000100A028A0070B582B0040000230193002804D1D221FF312D4800F050FB2369002B04D1E9214900294800F048FB6369002B04D1D421B7
:40124000FF31254800F040FB236A002B04D1EA214900214800F038FB6269D5682B0C24D01B041360136820691C4B1A68B423D358C3181B68002B18DA01A9FFF765FD0028E0
:401280000ED1019803681E0CFF221340E269934207D29B00226AD358002B02D0984700E0002631002069FFF70FFD2D042D0C0FD063691D601B68636A002B03D098470023E2
:4012C000636203E0A36A002B00D098470023A36163691B6802B070BD703000104008000810B50400084B1B68002B04D1B221FF31064800F0E9FA044B1B682C206043181856
:40130000FFF786FF10BDC046040800087030001010B50400094B1B689B6CC340DB0703D4BE21074800F0D0FA044B1B681B691034A402E3580F20184010BDC046400800082B
:40134000B0300010134B1A683C23D35C83421DD9042904D94B1EFF3B9BB2132B18D8FF290CD91F2319400C4A0300C0339B009950D03080000423835000200AE007231940AD
:40138000D0308000044BC150002002E0034800E002487047400800080000264001004A0070B5041E03D14A494A4800F08DFAB023DB00494AD358002B00DA87E0474B226873
:4013C0009A4203D94649434800F07EFA23689B039B0BE279002A02D08022520400E000221343B022D2003C498B50A2883D4B9A4204D984218900374800F066FA2289344BA7
:401400009A4203D93849334800F05EFAA388DB04D90C23891B04354A13400B43344A2E498B50A37A0F2B04D986218900294800F04BFAE37A0F2B03D92E49264800F044FA76
:40144000A289284B9A4203D92B49224800F03CFAA37A0F211940E27A1201FF2313400B43A289120225490A401343A27B1207C02189050A401343B122D20017498B50A379AC
:40148000042B03D91E49134800F01EFA228A104B9A4204D9892189000E4800F015FA0E4818494558184B1D40A3791B02E022D20013402B4343504558144B1D40238A1B0475
:4014C0000A4A13402B434350002000E0104870BDFF010000F030001000002640FFFF030009020000FF1F0000110200000000FF0184050000190200001A02000000FF1F000E
:40150000230200008C050000FFF8FFFFFFFF00FE03004A0070B505003149324A8B588020000603438B502C0003E0012000F0C0F9013CB223DB002A4AD3585B0701D4002C25
:40154000F3D12749B122D2008858274B03408020800503438B50002D01D0002C0CD02049B022D2008B588020000603438B5003E0012000F09DF9013CB223DB00184AD358F6
:40158000DB0701D4002CF3D1002D01D0002C08D01349B122D2008B58C020800503438B5013E00F4BB121C90058580F4A02408020800502435A5008395A58520052085A5088
:4015C00008495A58520052085A50002D03D0002C03D0002002E0002000E0044870BDC046000026408C050000FFFFFFCF02004A00F0B50138304B1A683D23D35C98424CD2A1
:4016000003008133FF339B002C4A9B58002B46DB8A78931EDBB20E2B43D84B78002B42D0122B42D80E783500CC78002C01D0132700E01627AF423AD8002C01D0382700E0F4
:401640007027AF4235D30D79022D16D07F252E401B02F8256D012B4033431204F8256D032A401A43E40680231B051C40144303008133FF339B00114A9C50104D8130FF30D2
:40168000800044590E4B1C400B791B07C022920513402343435100200CE00A480AE00A4808E0084806E0074804E0064802E0054800E00448F0BDC0464008000800002640EF
:4016C000FFFFFFCF01004A0003004A0070B50C00451E134B1A683D23D35C9D421CD211492B008133FF339B005A588020000602435A5003E0012000F0DBF8013C2B00913376
:40170000FF339B00074A9B58DB0701D4002CF1D1002C03D1044802E0044800E0002070BD400800080000264002004A0001004A0070B505000C001A4B1B6828229A5C012A76
:4017400015D1820807211000884327D19200AD1AED00FF20A8401B6820339A181168AC4023004B40184004004C40146016E03A229B5EDBB2994203D176210A4800F0A4F8BE
:40178000074B1B681B68072215408022120615438022920194466444A400E55070BDC046400800087831001070B504000D000B4B9A680B4B9A420CD1002904D13821FF3151
:4017C000084800F081F81034054BA400E058E55003E01034A400044BE05870BD00ED00E0000000087831001000000010F0B5474680B482B0061E01914AD04368032B03D951
:401800003221264800F060F80023F05E002804DBB178FFF78DFF002400E0214C0023F15E7368002912DB88081E4FC0308000C55903221140C900FC3290468A4095439A019D
:40184000434613408B402B43C35116E089B20F220A40083A92080632920013481018476803221140C900FF252A008A4097439A012B0013408B403B4343600B4B9A680B4BD7
:401880009A4206D10023F05E0199FFF78DFF00E0034C200002B004BC9046F0BD783100100100560000E100E000ED00E00000000810B5034B1B78584300F0BEF810BDC04644
:4018C000D000000801BEFEE770B50D00044C18220100200000F031FDA5610020FFF7F2FFF8050008054B802212069A649B6C002B01DB002000E002487047C04600002740DB
:4019000003004600054B8022120198585B68FF221A4202D08023DB021843704700002640FEE7C04610B50A4B0268DA6142681A6282685A62C2689A620269DA6242691A63F4
:4019400082695A63C2699A63FFF7EAFF10BDC046F8050008F0B5474680B4002801D0192300E064238B429B415B42304D2C682268A826A45BA41822680327BA433B401A43EB
:4019800022602C682268A45BA2181668284CA046264016602C682668AA229446A25A96193268BA43134333602A6813686546525BD3181A68444614401C60002805D01029C5
:4019C0001BD921291BD8012024E0184B1B6855229A5C914215D956229A5C914213D957229A5C914211D958229A5C91420FD959229B5C99420DD804200CE000200AE002208B
:401A000008E0002006E0012004E0022002E0032000E00520054A1268526813680F218B430343136004BC9046F0BDC04640080008FFFCFFFF000000000230800803D0013082
:401A40000238FCD1C046C0467047EFF3108072B6704780F31088704710B5B0235B059B899BB2002B04D0B0235B059B899BB201E080235B0080225200934215D1184C236800
:401A80001968683A9B58C9180B680F208343963A13430B6021680C689C23CB58E318196881430A431A6019E00D4C2368196898229B58C918B02040050A4BC2580A4B134038
:401AC0000A681343C022920013430B60226811689C23D358CB18054A82581A6010BDC0464008000848180000FFFCFFFF4418000030B5B0235B059B899BB2002B04D0B02343
:401B00005B059B899BB201E080235B0080225200934215D1184C23681968683A9B58C9180B680F208343953A13430B6021680C689C23CB58E318196881430A431A6019E089
:401B40000D4D2B68196898229B58C918B0246405C12040012258094B13400A681343C022920013430B602A6811689C23D358CB1822581A6030BDC04640080008FFFCFFFFE4
:401B8000B0235B059B899BB2002B04D0B0235B059B899BB201E080235B008022520093420DD1104B1B681A6898215B58D21811680D4B0B40C021C9010B43136011E0094BD5
:401BC0001B68196898229B58C918084BB0225205D258074B13400A681343C022920013430B60704740080008FF8FFFFF18180000FFFCFFFF30B5B0235B059B899BB2002B9B
:401C000004D0B0235B059B899BB201E080235B008022520093420DD1134B1B681A6898215B58D2181168114B0B408021C9010B43136018E00C4D2B68196898229B58C918AE
:401C4000B02464050A4822580A4B13400A681343C022920013430B602A6811689C23D358CB1822581A6030BD40080008FF8FFFFF4C180000FFFCFFFF10B5B0235B059B89A8
:401C80009BB2002B04D0B0235B059B899BB201E080235B0080225200934217D10020FFF737FBB0235B055B78002B04D0B0235B055B78DBB200E02123222B03D8002803D17C
:401CC000013004E0012002E0002000E0012010BD30B585B004000D00022807D9042805D0032803D02A492B48FFF7EEFD6B1EDBB2012B07D9042D05D0082D03D026492548D7
:401D0000FFF7E2FDA400254BE458042D13D0012D1CD112E0A3682B420BD1E3681A6802925B6801930393290002A8236898471B4B5C61646902E0002000E00020002C24D06C
:401D4000174B9842E6D1012DE4D11EE0022D01D104E01C006369002BFBD104E00F4B5C69002C00D0246900200DE0A3682B4209D1E3681A6802925B6801930393290002A8BF
:401D8000236898472469002CEFD105B030BDC046B2090000BC310010B309000008080008FF004200F8B50700012803D93D493E48FFF78AFDB0235B055B78002B04D0B023B1
:401DC0005B055B78DBB200E021239DB2B0235B059B899BB2002B04D0B0235B059E89B6B201E0802676000020FFF792FA002814D180235B009E4212D1222D12D82B4B1B68AC
:401E00005C682B4821582B4B19403B068022520413400B432350002404E0274C02E0264C00E0254C80235B009E4201D1222D03D880235B009E4232D01C4B1A683123D35C90
:401E4000002B04D1C421FF311C48FFF73DFD174B1B681D6A80235B009E4203D1002F05D0174A06E0002F03D0164A02E0164A00E0164A01212800FEF747FF00280FD10B4B89
:401E80001A68B423D3585B191B68002BF7DBEB681B0E1B06A0221206934200D100242000F8BDC0464C0A0000BC3100104008000818F00000FFFFFFFE04004200302F001033
:401EC000010100300300000C010000300100000CF8B50500012804D9822109012948FFF7F3FCFFF7C9FE002849D0FFF7AEFD0700002D11D10021244B244AD150E823DB00EE
:401F0000B0225205D65CF6B20120FFF74BFF041E19D1FFF7A1FD16E0B02252051C4BD0581A4B194958501B49565CF6B21A481A581F218A4314390A431A500320FFF7B8FC10
:401F4000FFF758FE0024002C15D11049124A8B581F20834306401E438E50002D02D1FFF70FFE08E00720FFF7A3FCFFF7C1FD0020FFF718FF04003800FFF76BFD00E0074C68
:401F80002000F8BDBC310010307F00000000264010180000410700001CFF00000300420010B5041E03D115491548FFF78DFC154B1A68D168F222D2018A5822601B68F0227A
:401FC000D201D9688A5862600F4AD9688A58A2600E4AD9688A58E2600D4AD9688A5822610C4AD9688A5862610B4AD9688A58A261DA680A4BD358E36110BDC046A10A0000B6
:40200000BC3100104008000804780000087800000C78000010780000147800001878000010B5041E03D114491448FFF74DFC144B1B68F022D201D96860688850114AD96838
:40204000A0688850104AD968E06888500F4AD968206988500E4AD968606988500D4AD968A06988500C4AD968E0698850DA682168F223DB01D15010BDC90A0000BC310010E5
:402080004008000804780000087800000C78000010780000147800001878000070B50500012804D9A62189003548FFF70DFC354B5B68002B05D001210120FFF709FE040029
:4020C00000E00024002C53D1FFF7BFFC06002D4B5B68002B03D004210120FFF7F9FD2A4B1B6843229A5C002A08D09A68E023D358DB0603D523481830FFF752FFB0235B05FF
:402100009B899BB2002B04D0B0235B059B899BB201E080235B0080225200934203D1280000F02AF909E0194A116904230B431361012D01D030BF00E020BF134B1B68432232
:402140009A5C002A08D09A68E023D358DB0603D50C481830FFF764FF3000FFF77AFC094B5B68002B09D008210120FFF7B1FD04E002210120FFF7ACFD054C200070BDC04679
:40218000BC310010080800084008000800ED00E0FF004200042805D10B4A116804230B4313600FE0094B1A681168A023D358CB180006C022920410401860034A13680421B2
:4021C0008B4313607047C04610E000E0400800080749C02252008B589B009B088020C00503438B508B588020000603438B50704700002640014B18607047C04640080008FE
:40220000002243088B4274D303098B425FD3030A8B4244D3030B8B4228D3030C8B420DD3FF22090212BA030C8B4202D31212090265D0030B8B4219D300E0090AC30B8B422D
:4022400001D3CB03C01A5241830B8B4201D38B03C01A5241430B8B4201D34B03C01A5241030B8B4201D30B03C01A5241C30A8B4201D3CB02C01A5241830A8B4201D38B02EE
:40228000C01A5241430A8B4201D34B02C01A5241030A8B4201D30B02C01A5241CDD2C3098B4201D3CB01C01A524183098B4201D38B01C01A524143098B4201D34B01C01A63
:4022C000524103098B4201D30B01C01A5241C3088B4201D3CB00C01A524183088B4201D38B00C01A524143088B4201D34B00C01A5241411A00D20146524110467047FFE7BF
:4023000001B5002000F006F802BDC0460029F7D076E770477047C046002310B59A4203D0CC5CC4540133F9E710BD03008218934202D019700133FAE77047030030B5002AF0
:402340000DD00C7801335D1E013A2C700131002CF5D19A189A4202D01C700133FAE730BDF8B5C046F8BC08BC9E467047F8B5C046F8BC08BC9E46704701B40248844601BC52
:40238000604700BF310300080300000001000000010000000000000005036000040000000100000000000000010000000604600008000000C0070008B9010010737973742A
:4023C000656D5F70736F63365F636D30706C75732E6300001E01050000000000F4010000140004010400090508000000630100000020344074008020344074000022344037
:402400007400802234407400002434407400802434407400002634407400802634407400002834407400802834407400002A34407400802A3440740000213440002600105B
:402440009000000000233440902600109000000000253440202700109000000000273440B027001090000000002934404028001090000000002B3440D02800109000000071
:4024800000603440602900107C00000080603440DC2900107C00000000613440582A00107C00000080613440D42A00107C00000000623440502B00107C0000008062344059
:4024C000CC2B00107C00000000633440482C00107C00000080633440C42C00107C00000000643440402D00107C00000080643440BC2D00107C00000000653440382E0010C2
:402500007C00000080653440B42E00107C0000008C01B201BE04DC04E3012815680800000520344002703440080000000000000000000000006008000000000000000000F6
:40254000000000000000000300000000030000000000000000000000600000000000000000000000000000000003000000000000000000000000000000000000000000BA38
:402580000000000000000000000000000000000000001D1DFE00000000000000000000000000000000000000000000000000000000040400000000000200000000000000D9
:4025C000000000006000000000000000000000000000000000080000000000000300000000000000000000000000000000000000000000000000000003030000000000006A
:40260000000000000000000000000000FFFFFFFFFFFFFFFFFFFFFFFFFFFFFFFFFFFFFFFFFF000000FF0FFFFFFFFFFFFFFFFFFFFFFFFFFFFFFFFFFFFFFF00000000000000B4
:402640000000000000000000000000002000000F00000000FFFFFFFFFFFFFFFFFFFFFFFF1111111111111111111D11111111111111311111111111111111111111111111EB
:4026800011111111111111111111111111111111000000000000000000000000FFFFFFFFFFFFFFFFFFFFFFFFFFFFFFFFFFFFFFFFFF000000FFFFFFFFFFFFFFFFFFFFFFFF2B
:4026C000FFFFFFFFFFFFFFFFFF000000000000000000000000000000000000000000000000000000FFFFFFFFFFFFFFFFFFFFFFFF11111111111111111111111111111111DF
:402700001111111111111111111111111111111111111111111111111111111111111111000000000000000000000000FFFFFFFFFFFFFFFFFFFFFFFFFFFFFFFFFFFFFFFF8D
:40274000FF000000FFFFFFFFFFFFFFFFFFFFFFFFFFFFFFFFFFFFFFFFFF000000000000000000000000000000000000000000000000000000FFFFFFFFFFFFFFFFFFFFFFFF7B
:40278000111111111111111111111111111111111111111111111111111111111111111111111111111111111111111111111111000000000000000000000000FFFFFFFFED
:4027C000FFFFFFFFFFFFFFFFFFFFFFFFFFFFFFFFFF000000FFFFFFFFFFFFFFFFFFFFFFFFFFFFFFFFFFFFFFFFFF0000000000000000000000000000000000000000000000FF
:4028000000000000FFFFFFFFFFFFFFFFFFFFFFFF11111111111111111111111111111111111111111111111111111111111111111111111111111111111111111111111174
:40284000000000000000000000000000FFFFFFFFFFFFFFFFFFFFFFFFFFFFFFFFFFFFFFFFFF000000FFFFFFFFFFFFFFFFFFFFFFFFFFFFFFFFFFFFFFFFFF0000000000000082
:402880000000000000000000000000000000000000000000FFFFFFFFFFFFFFFFFFFFFFFF111111111111111111111111111111111111111111111111111111111111111104
:4028C00011111111111111111111111111111111000000000000000000000000FFFFFFFFFFFFFFFFFFFFFFFFFFFFFFFFFFFFFFFFFF000000FFFFFFFFFFFFFFFFFFFFFFFFE9
:40290000FFFFFFFFFFFFFFFFFF000000000000000000000000000000000000000000000000000000FFFFFFFFFFFFFFFFFFFFFFFF111111111111111111111111111111119C
:40294000111111111111111111111111111111111111111111111111111111111111111100000000000000001F1F1F1F1F1F1F1F1F1F1F1F1F1F1F1F0A1F1F1F1F1F1F1F64
:402980001F1F1F1F1F1F1F1F00000000000000000000000000000000F000000500000000FFFFFFFFFFFFFFFFFFFFFFFF11111111111111111111111111111111111111D122
:4029C0001111111111111111111111111111111111111111111111111111111100000000000000001F1F1F1F1F1F1F1F1F1F1F1F1F1F1F1F1F1F151F1F1F1F1F1F1F1F1FA1
:402A00001F1F1F1F000000000000000000000000000000000000000000000000FFFFFFFFFFFFFFFFFFFFFFFF1111111111111111111111111111111111111111111111118E
:402A400011111111111111011111111111111111111111111111111100000000000000001F1F1F1F1F1F1F1F1F1F1F1F1F1F1F1F1F1F1F1F1F1F1F1F1F1F1F1F1F1F1F1FEE
:402A8000000000000000000000000000000000000000000000000000FFFFFFFFFFFFFFFFFFFFFFFF1111111111111111111111111111111111111111111111111111111146
:402AC000111111111111111111111111111111111111111100000000000000001F1F1F1F1F1F1F1F1F1F1F1F1F1F1F1F1F1F1F1F1F1F1F1F1F1F1F1F1F1F1F1F00000000A2
:402B00000000000000000000000000000000000000000000FFFFFFFFFFFFFFFFFFFFFFFF111111111111111111111111111111111111111111111111111111111111111181
:402B40001111111111111111111111111111111100000000000000001F1F1F1F1F1F1F1F1F1F1F1F1F1F1F1F1F1F1F1F1F1F1F1F1F1F1F1F1F1F1F1F000000000000000065
:402B800000000000000000000000000000000000FFFFFFFFFFFFFFFFFFFFFFFF111111111111111111111111111111111111111111111111111111111111111111111111BD
:402BC00011111111111111111111111100000000000000001F1F1F1F1F1F1F1F1F1F1F1F1F1F1F1F1F1F1F1F1F1F1F1F1F1F1F1F1F1F1F1F00000000000000000000000029
:402C0000000000000000000000000000FFFFFFFFFFFFFFFFFFFFFFFF11111111111111111111111111111111111111111111111111111111111111111111111111111111F8
:402C4000111111111111111100000000000000001F1F1F1F1F1F1F1F1F1F1F1F1F1F1F1F1F1F1F1F1F1F1F1F1F1F1F1F1F1F1F1F00000000000000000000000000000000EC
:402C80000000000000000000FFFFFFFFFFFFFFFFFFFFFFFF111111111111111111111111111111111111111111111111111111111111111111111111111111111111111134
:402CC0001111111100000000000000001F1F1F1F1F1F1F1F1F1F1F1F1F1F1F1F1F1F1F1F1F1F1F1F1F1F1F1F1F1F1F1F0000000000000000000000000000000000000000B0
:402D000000000000FFFFFFFFFFFFFFFFFFFFFFFF1111111111111111111111111111111111111111111111111111111111111111111111111111111111111111111111116F
:402D400000000000000000001F1F1F1F1F1F1F1F1F1F1F1F1F1F1F1F1F1F1F1F1F1F1F1F1F1F1F1F1F1F1F1F00000000000000000000000000000000000000000000000073
:402D8000FFFFFFFFFFFFFFFFFFFFFFFF11111111111111111111111111111111111111111111111111111111111111111111111111111111111111111111111100000000EF
:402DC000000000001F1F1F1F1F1F1F1F1F1F1F1F1F1F1F1F1F1F1F1F1F1F1F1F1F1F1F1F1F1F1F1F000000000000000000000000000000000000000000000000FFFFFFFFF7
:402E0000FFFFFFFFFFFFFFFF11111111111111111111111111111111111111111111111111111111111111111111111111111111111111111111111100000000000000006A
:402E40001F1F1F1F1F1F1F1F1F1F1F1F1F1F1F1F1F1F1F1F1F1F1F1F1F1F1F1F1F1F1F1F000000000000000000000000000000000000000000000000FFFFFFFFFFFFFFFF7A
:402E8000FFFFFFFF11111111111111111111111111111111111111111111111111111111111111111111111111111111111111111111111100000000000000001F1F1F1F6A
:402EC0001F1F1F1F1F1F1F1F1F1F1F1F1F1F1F1F1F1F1F1F1F1F1F1F1F1F1F1F000000000000000000000000000000000000000000000000FFFFFFFFFFFFFFFFFFFFFFFF7A
:402F000011111111111111111111111111111111111111111111111111111111111111111111111111111111111111111111111147656E6572617465645F536F7572636502
:402F40005C50536F43365C70646C5C647269766572732F7065726970686572616C2F6970632F63795F6970635F6472762E68000047656E6572617465645F536F7572636567
:402F80005C50536F43365C70646C5C647269766572735C7065726970686572616C5C6770696F5C63795F6770696F2E630000000047656E6572617465645F536F757263656A
:402FC0005C50536F43365C70646C5C647269766572735C7065726970686572616C5C6770696F5C63795F6770696F2E680000000047656E6572617465645F536F7572636525
:403000005C50536F43365C70646C5C647269766572735C7065726970686572616C5C6970635C63795F6970635F6472762E68000047656E6572617465645F536F757263651F
:403040005C50536F43365C70646C5C647269766572735C7065726970686572616C5C6970635C63795F6970635F6472762E63000047656E6572617465645F536F75726365E4
:403080005C50536F43365C70646C5C647269766572735C7065726970686572616C5C6970635C63795F6970635F706970652E630047656E6572617465645F536F7572636542
:4030C0005C50536F43365C70646C5C647269766572735C7065726970686572616C5C70726F745C63795F70726F742E630000000047656E6572617465645F536F75726365FD
:403100005C50536F43365C70646C5C647269766572735C7065726970686572616C5C737973636C6B5C63795F737973636C6B2E630000000047656E6572617465645F536FC3
:40314000757263655C50536F43365C70646C5C647269766572735C7065726970686572616C5C737973636C6B5C63795F737973636C6B2E680000000047656E657261746554
:40318000645F536F757263655C50536F43365C70646C5C647269766572735C7065726970686572616C5C737973696E745C63795F737973696E742E630000000047656E651E
:4031C00072617465645F536F757263655C50536F43365C70646C5C647269766572735C7065726970686572616C5C737973706D5C63795F737973706D2E630000000020402D
:4032000000002440000000400000000000002340000030400000314000009F40000022400000104002020202020202020210101D800017007500FF03060206360410200040
:40324000000000007FC0000000040000000000000019324B647D00804000080B100000000000FF012002001F00800004FF081018001000140018001C4044484C50000000FD
:40328000081000000800000004000000041000000012000004210000002100000016000040114002C41300138013A013200000001C00000000002140000025400000014062
:4032C0000000344000002440000031400000324000001F410000234000001140010101010101010101101010800019005500F0000501053B04101C01010000000FC00000A1
:403300000004000001010101011D3A57789600082000101208000000001F00000010000F002000023F06080E00080009000A000B24282C3034000000100000009000000019
:4033400088000000080000008000000004F0000000F00000400200002005A000D00100018001A0012000000010000000000000000000001000000008C00000009033001083
:40338000C000000838050000340600081002000000127A0000093D0000093D0000093D0004000000A00F00000000D007E9000010C10000100000000010B50004400B27D0F7
:4033C000144B1A68146AB023D15ACA00531AE3181B68002BF4DA3E220F4B1A600F4A104B1A60104B0621A322D20099500E4A98509B58084B1A68106AB023D15ACA00531AA7
:40340000C31800225A60084B064AD358002BFADA10BDC04640080008040126401E1F000008012640000026401C05000010B54378FF2B20D100F010FA04000F4B1A6831237E
:40344000D35C042B04D8C421FF310C4800F0F4F9094B1A68116AB023D35A9B00CB18DB685A68116801230B4313601368DB07FCD4200000F019FA10BD40080008302F0010BE
:40348000F0B585B001900291544B1A683123D35C002B04D1C421FF31514800F0CDF94F4B1B681E6AB4229A58971950229B5C002B77D000F0C9F9050003283CD1474B1A680B
:4034C0003123D35C062B04D8C421FF31444800F0B3F9424B1968B023CB5A5A00D21853000A6A94466344B4228A58D3181B68002B23DB002000F0B8F93A4B98421FD03A4B8A
:403500001A6900230021012000F0C6F9002803D0364C17E0013400E00024002000F0A4F9304B984202D0324B9C42F3D9304B9C4207D92E4C06E0002404E02C4C02E02B4CDA
:4035400000E00024002C46D100F086F90390294B294AD358002B13DA234A0121300000F08BF900280ED10298FFF726FF019B002B0AD03B68002BFCDB00F09EF9040004E034
:403580001A4C02E0194C00E01C4C032D05D10121002000F079F90028F9D1039800F084F919E000F059F905000F4A0121300000F063F9002809D1019B002B08D03B68002BCC
:4035C000FCDB00F079F9040002E0084C00E00B4C280000F069F9200005B0F0BD40080008302F001001018800E007000805005200EF4902001C050000000026400100500084
:40360000F0B54F464646C0B4824B1A685468B0235B055B78002B04D0B0235B055B78DBB200E02123212B67D1B023D15ACB005B1A116A8C46634419680029F5DADD680221F2
:403640002943D960B023D15ACB005B1A116A8C466344D968C9073ED5D9680904090C8C4684271168D559A84641440968090A0904FF26360431400D00882611688946915907
:403680008846C14449460968090A0906294365462943D9601168D359C9180A685E4B98461A4090252D012A430A605A4B99461A6813689C46925962441368414619400B006C
:4036C0002B4313604B461A681568D15969180B689359EB181B684F4B1A68B021555AEB005B1B156AAC46634400255D60156A515ACA00531AEB185B68484A116904230B432A
:403700001361012801D030BF00E020BF414B1A68B023D15ACB005B1A116A8C46634419680029F3DAB02149054978002904D0B02149054978C9B200E02121212932D1D968CE
:40374000C90722D510688421525880180468324A1440DB681B0C1B02FF2109020B40234303602C4B19688823C8580B689C46604403681A400D6AB023CC5AE1000B1BEB1826
:40378000DB681B0E1B021A430260224B1A68106AB023D15ACA00531AC318DA6802218A43DA6028E086235B00E358002B23D11C4807681C4BA321C9005E581B4A9046156841
:4037C0001A4A0260062058503E21424611600631174A9950164B134AD358002BFADA154A86235B00E2500E4B1F60A323DB000D4AD6500D4B1D60074B1A68106AB023D15AC8
:40380000CA00531AC31800225A600CBC90469946F0BDC04640080008FF00FFFF00ED00E00801264000002640040126401E1F00001C050000AAAAAAAA01B40248844601BC84
:40384000604700BFC918001001B40248844601BC604700BF3104001001B40248844601BC604700BF4B1A001001B40248844601BC604700BF210F001001B40248844601BCAD
:40388000604700BF090D001001B40248844601BC604700BF950E001001B40248844601BC604700BF0511001001B40248844601BC604700BF531A001001B40248844601BCDC
:4038C000604700BF3D0B001000000000000000000000000000000000000000000000000000000000000000000000000000000000000000000000000000000000000000000A
:403900000000000000000000000000000000000000000000000000000000000000000000000000000000000000000000000000000000000000000000000000000000000087
:403940000000000000000000000000000000000000000000000000000000000000000000000000000000000000000000000000000000000000000000000000000000000047
:403980000000000000000000000000000000000000000000000000000000000000000000000000000000000000000000000000000000000000000000000000000000000007
:4039C00000000000000000000000000000000000000000000000000000000000000000000000000000000000000000000000000000000000000000000000000000000000C7
:0200000490303A
:02000000F08C82
:0200000490501A
:0C0000000005E20621002101E217118C2E
:00000001FF