:020000041000EA
:4000000000400208230100100D00000085010010000000000000000000000000000000000000000000000000000000008101001000000000000000008101001081010010E9
:400040008101001081010010810100108101001081010010810100108101001081010010810100108101001081010010810100108101001081010010810100108101001060
:400080008101001081010010810100108101001081010010810100108101001081010010810100108101001081010010810100108101001081010010810100108101001020
:4000C00010B5064C2378002B07D1054B002B02D0044800E000BF0123237010BD34060008000000006C330010084B10B5002B03D00749084800E000BF07480368002B00D193
:4001000010BD064B002BFBD09847F9E700000000380600086C330010E4000008000000007047FFF7FDFF72B60F4C104DAC4209DA21686268A368043B02DBC858D050FAE716
:400140000C34F3E70A490B4A0020521A02DD043A8850FCDC084809490860BFF34F8F00F003F900F01DF8FEE7703300108833001034060008440800080000000808ED00E003
:40018000FEE7FEE700B504207146084202D0EFF3098001E0EFF30880043001F0C3FBFEE710B562B6034800F065F9002001F076FFFBE7C0460000081010B5002001F090F8F1
:4001C00010BDC04670B55F49E0239B00CB580F2213401A00D0329200525807210A4002D0042A02D00FE0584811E01A00C0329200544952581F210A40112A06D0132A04D06D
:40020000FA20C00103E0514801E080200002002B36D14C4BB222D2009A5801211140B125ED005A59120F032422405B591B0F1C4207D0444C63591B0F03242340012B02D1DE
:4002400002E0012300E00023002B01D0002901D1032A4BD13B4BB022D2009D58AD03AD0B3B495958C904C90C9C58240E01231C40013401F0C5FF6843210001F0C1FF35E0B5
:40028000012B33D12F4BC822D2009A5801251540C024E4001A59120F03210A401B591B0F194207D027490B591B0F03210B40012B02D102E0012300E00023002B01D0002D33
:4002C00001D1032A12D11F4DC022D200AB587F210B40A958090A1F263140AC58240C3440584301F08DFF210001F08AFFE0239B00144AD3581B0903221340D840154C20602D
:40030000154B1D692D0AFC32154001351969090E013101F075FF6060290001F071FF0500A060E0600D4BC0180D4901F069FF20740C4BE818FA21890001F062FF6061C003E4
:40034000A06170BD0000264000127A0000366E0184050000C0000008000021403F420F0040420F00E703000010B5284801F042FF274CB022D200A3585B005B08A350E021D0
:400380008900635830208343635080235B04A350204A214BE250A02292010433E250FF221E4BE25001F014FFC0225200A35801218B43A35000F074FAFFF704FFB0235B0519
:4003C0005B78002B04D0B0235B055B78DBB200E02123212B03D1124B0022DA605A60114C22008021042000F021FD2000103000F0B5FD0D4B1A685123D35C002B02D00B48C0
:4004000000F022FE00F0EAFB10BDC046B43200100000264001000200840500008C050000E00023405006000840080008882300108023024AD3580320184070470000214032
:4004400010B501F002FB084980228C58074B2340074C23438B508823034AD358DB06FAD501F0F7FA10BDC04600002140FCFF00000100FA0570B50500830504D0E821FF3106
:400480000F4801F021FA01F0E0FA0400FFF7D0FF032801D1FFF7D4FF0A4AB0239B00D55080215058084B03400848034353508823044AD358DB06FAD5200001F0CAFA70BDAA
:4004C000BC23001000002140FCFF00000300FA05FEE7C046F0B50025002711E0BB00C658F3B2FF22964308E06A008A181478A419527822700135013BDBB2002BF4D10137AA
:40050000012FEBD9F0BDC0460323064A1360064A136080225201054B1A60054A054B1A607047C04608203140102031409402364001001180000E1F4110B50A00002101F0AC
:40054000F4FE10BD10B501F0E7FE10BD30B587B0C049A022D2008B58032083438B50BE4A116808688823CB58C3181868BB49084018601368186884241B59C01803681B029F
:400580001B0A80256D042B430360106805680359EB1818680140196013683E229A5C002A06D0AC48E02189004258753CA24342503E229A5C002A06D0A648E0218900425838
:4005C0003024A24342503E229A5C002A07D0A148E0218900425880242406224342503E229A5C032A08D99B4CE320800022580F218A430E390A4322503E229A5C032A06D95A
:400600009448E321890042583024A24342503E229B5C032B07D98F49E32292008B588020000603438B500021012000F08BFE05228B4901A801F070FE01A9012000F0D8FF1E
:40064000002802D00320FFF743FF8649012001F03DF8002802D00320FFF73AFF0021022000F070FE0021032000F06CFE0021042000F068FE0021002000F064FE01A80200AB
:40068000774B083332CB32C212CB12C200F088FE002802D00420FFF71BFF6E49724A8B588020000603438B50704800F033FF002802D00420FFF70CFF664C6D4BE1586D4A87
:4006C0000A40E250E1586C4A0A40E250E25880252D062A43E250043BE158684A0A40E250E158674A0A40802189010A43E250E258802109020A43E250624A1168624B0B405C
:40070000802149000B431360002001F043FD5F4BE2581543E550E158012291430A43E2506421002001F016F94B4B1B683F229A5C142A07D970229A5C01210A40C521090186
:40074000986842509A6874215B5AD2185168434B0B40C42189010B4353603F4B1B6873229A5C0321914070229A5C7220185C140084402143012002400A43802109060A43AB
:400780008021C900986842509A6852583F229A5C332A03D900213E4A986881509A6874215B5AD21811682D4B0B40FE2109020B431360294B1B687322995C703A8A40110024
:4007C00070229A5C7220185C82400A43802109060A438021C900986842509A6852583F229A5C3A2A0AD97122985C703A82401100032282400A402749986842509A68762149
:400800005B5AD2181168244B0B4024490B431360114B19687323CB5C032422009A4013007022885C02328A5C904018437123CB5C01229A409C402300134003438022120623
:4008400013438022D200886883508B689B5807B030BDC0460000264040080008FF00FFFFD423001010270000087F0000400D030004050000FEFCFFFFFFFF00FFFFF0FFFFA8
:40088000FF8FFFFF00002740FFFCFFFF0C050000CC0C0000E80C0000FF0000FF00F3010070B58AB09621002001F054F801F02AF8002814D101F016F8C0235B005D4AD358DB
:4008C000DB0705D411005C4A8B585B005B088B505849594A8B588020000603438B50012001F0F6FA554A516C554B0B40E82189010B435364536C1B0AFF2213403A2B07D1A6
:400900004E4A516C4F4B0B40E82189010B435364FFF71CFE4C4A4D4B1A6000240CE06200121953004A4AD318198C9A8BD88B00041043FFF701FE01340B2CF0D900240AE002
:40094000620012199300424AD318DA6E996E586EFFF7F8FD0134112CF2D93E4D29003C3128004C30FFF7B6FD3B4A1368832149000B43136001AC22002B00543343CB43C2F3
:4009800043CB43C243CB43C22100344800F02EF922002B00783323CB23C223CB23C223CB23C221002E4800F021F92E4D22002B001C3343CB43C243CB43C243CB43C22100DA
:4009C000294800F013F924220021200001F0ADFC862301932100254800F008F922002B00403343CB43C243CB43C243CB43C221001F4800F0FBF822002B00643323CB23C292
:400A000023CB23C223CB23C221001A4800F0EEF82200194B083323CB23C223CB23C223CB23C22100154800F0E1F8FFF76DFD0AB070BDC046000026400C050000000027400B
:400A4000FF00FFFFFFC5FFDF0300FA05F0012140D4230010D42400100079344000003240800032405425001000033240800332400004324080053240D42500100007324041
:400A8000214B984230D00ED8402831D004D800281FD010282AD031E080282BD080235B00984229D02AE0194B984229D007D8A0231B0698420DD0164B984212D01EE0154BC1
:400AC00098420AD0144B984209D0144B984215D101E0002016E0124814E0124812E0124810E0A020C0030DE007480BE00F4809E00F4807E00F4805E0034803E00E4801E06D
:400B0000A420C0037047C04606005200010000F0090000A0040000F0050000F0030000F0010052000200520003005200010050000200500005005200FF00520070B5124BDA
:400B40001A683123D35C002B04D1C421FF310F4800F0BAFE0C4B1D682C00B423EB582A6A944663441B68002B0BDB094B1868FFF787FF6B6801229A6063689B68002BFBD18C
:400B800000E0044870BDC04640080008302F0010E00700080200500010B50D4B1861002805D002230370FD33437000234380094B1B6850229A5C002A08D051229B5C002B0C
:400BC00004D04F3A0449002000F0F8FA10BDC046E0070008400800085D01000810B502481430FFF7D9FF10BDE007000870B505000C0000285DD000295DD0FF230A689A43A2
:400C000003D099212D4800F05FFEFF2322699A4303D09A21294800F057FEA3685B0D03D09B21264800F050FE63685B0A03D09C21224800F049FEE3695B0F03D09D211F48DA
:400C400000F042FE236A5B0F03D09E211B4800F03BFE1B4A11688B69EB1ADB0949691B01CB18216829607D211068415C6918E06808607E211068415C6918206908607F2107
:400C80001068415C6918606908607C211068415C6918A06808606168A961116880228A5CAD18A2692A60E2691A60226A5A60002002E0044800E0034870BDC046702F001036
:400CC0004008000801005A0070B504000D000A4B1A68B423D3581B181B68002B0ADA0B0C03D00649064800F0EFFD2D042D0C6560002000E0034870BD40080008D502000044
:400D0000F02F001001008A0070B505000C000368002B01DA002300E0084B002B0BD1EA60230C03D00649074800F0CEFD2404240CAC60002000E0014870BDC04601008A00E5
:400D4000BB020000F02F001070B505000C1E03D19921084800F0B8FD074B1A68B423D3585B191B68002B03DAEB682360002000E0024870BD303000104008000801008A0043
:400D800070B504000D00234B1A683123D35C834236D9002936D00B68DB0635D13123D35C984204D3C421FF311B4800F08DFD194B1B681A6AB0215B5A5C431419174E346051
:400DC0002B68DA080021686801F0AFFA00212000FFF77AFF3468002D03D111490E4800F073FD2A0000212000FFF78EFF00280DD10A4B18680021FFF767FF002808D108E067
:400E0000084806E0074804E0064802E0064800E0054870BD40080008F02F0010F80700089303000003018A0001018A0010B50400002A17D1002915D1124B1A683123D35CEF
:400E4000984204D3C421FF310F4800F03DFD0D4B1B681A6AB0215B5A5C4314190B4B1C6000200EE0002A09D0002909D0074B59609A60191D2000FFF783FF02E0044800E0B4
:400E8000034810BD40080008F02F0010F807000803018A00F0B583B00D001C4B1B68DC68236883422DD947097B01C01A012383401E00002903D100F0C8FD019001E00023AB
:400EC0000193124B18680368002B01DA002300E00F4B002B0ED16368BF00DF193B68334203D0B3433B60002400E00A4C0021FFF7EBFE00E0084C002D04D1019800F0A9FDEC
:400F000000E0064C200003B0F0BDC046F807000801008A00020188000301880004018A000A4B1B68DA68136883420BD943095901401A0121814052689B009B580B4203D038
:400F4000034802E0034800E003487047F80700080101880004018A0000018800034B1B68002B01D1014B18607047C04604080008F0B5474680B404000F0090461E002D4B26
:400F80001B68002B03D1B5212B4800F09DFC294B1B682C2060431C18FF22150035402560330A13406360360CA660244B1A683123D35C9D4204D3C421FF31214800F084FCE0
:400FC0001E4B1A68B023D35A6B43116A8C466344236166683223D35C9E4204D3E021FF31174800F071FC154B1B681D6A80367601AD196561A668330C04D0FF2149001048E5
:4010000000F062FC330C03D00E490D4800F05CFC3604330C1E43AE604346E36127620023A361069B002B02D000229B5EA38104BC9046F0BD040800087030001040080008C3
:40104000F02F0010FF010000F0B58FB0041E03D15221294800F038FC6368032B03D95421254800F031FCE36A002B03D15821224800F02AFC236B002B03D159211E4800F0E9
:4010800023FC07AA1300210061C961C321C921C302AD290023001433C1CBC1C141CB41C10821535E0CAE3380144B1B6836215B5E07998C466344B370089B0D930B9B0A98B2
:4010C0000096A26AE16AFFF753FF2B69E868002200920021FFF74CFF216B300000F086FB0023F25E002A05DB1F231A401E3B9340034A13600FB0F0BD703000104008000823
:4011000000E100E0F8B505000F0016001C00002A03D1FD21224800F0D7FB224B1B68002B03D1FE211E4800F0CFFB1E4B1B682C2128004843181879435918012213004D6851
:40114000AB401B044568AA4015000269002A20D08F69002F1FD11268002A01DA002200E0114A002A19D132681204120C134333600369DE6001238B614C6204692B0C03D097
:401180000A490B4800F0A0FB2A04120CA260002004E0084802E0084800E00748F8BDC046703000100408000801008A00BB020000F02F001004028A0007028A0070B50400B9
:4011C0000D0016000F4B1B68002B04D1AF2149000D4800F079FB0B4B1B682C2060431C18236A002B04D1B1214900074800F06CFBE369B34204D9236AB6009D51002000E084
:40120000024870BD04080008703000100A028A0070B582B0040000230193002804D1D221FF312D4800F050FB2369002B04D1E9214900294800F048FB6369002B04D1D421B7
:40124000FF31254800F040FB236A002B04D1EA214900214800F038FB6269D5682B0C24D01B041360136820691C4B1A68B423D358C3181B68002B18DA01A9FFF765FD0028E0
:401280000ED1019803681E0CFF221340E269934207D29B00226AD358002B02D0984700E0002631002069FFF70FFD2D042D0C0FD063691D601B68636A002B03D098470023E2
:4012C000636203E0A36A002B00D098470023A36163691B6802B070BD703000104008000810B50400084B1B68002B04D1B221FF31064800F0E9FA044B1B682C206043181856
:40130000FFF786FF10BDC046040800087030001010B50400094B1B689B6CC340DB0703D4BE21074800F0D0FA044B1B681B691034A402E3580F20184010BDC046400800082B
:40134000B0300010134B1A683C23D35C83421DD9042904D94B1EFF3B9BB2132B18D8FF290CD91F2319400C4A0300C0339B009950D03080000423835000200AE007231940AD
:40138000D0308000044BC150002002E0034800E002487047400800080000264001004A0070B5041E03D14A494A4800F08DFAB023DB00494AD358002B00DA87E0474B226873
:4013C0009A4203D94649434800F07EFA23689B039B0BE279002A02D08022520400E000221343B022D2003C498B50A2883D4B9A4204D984218900374800F066FA2289344BA7
:401400009A4203D93849334800F05EFAA388DB04D90C23891B04354A13400B43344A2E498B50A37A0F2B04D986218900294800F04BFAE37A0F2B03D92E49264800F044FA76
:40144000A289284B9A4203D92B49224800F03CFAA37A0F211940E27A1201FF2313400B43A289120225490A401343A27B1207C02189050A401343B122D20017498B50A379AC
:40148000042B03D91E49134800F01EFA228A104B9A4204D9892189000E4800F015FA0E4818494558184B1D40A3791B02E022D20013402B4343504558144B1D40238A1B0475
:4014C0000A4A13402B434350002000E0104870BDFF010000F030001000002640FFFF030009020000FF1F0000110200000000FF0184050000190200001A02000000FF1F000E
:40150000230200008C050000FFF8FFFFFFFF00FE03004A0070B505003149324A8B588020000603438B502C0003E0012000F0C0F9013CB223DB002A4AD3585B0701D4002C25
:40154000F3D12749B122D2008858274B03408020800503438B50002D01D0002C0CD02049B022D2008B588020000603438B5003E0012000F09DF9013CB223DB00184AD358F6
:40158000DB0701D4002CF3D1002D01D0002C08D01349B122D2008B58C020800503438B5013E00F4BB121C90058580F4A02408020800502435A5008395A58520052085A5088
:4015C00008495A58520052085A50002D03D0002C03D0002002E0002000E0044870BDC046000026408C050000FFFFFFCF02004A00F0B50138304B1A683D23D35C98424CD2A1
:4016000003008133FF339B002C4A9B58002B46DB8A78931EDBB20E2B43D84B78002B42D0122B42D80E783500CC78002C01D0132700E01627AF423AD8002C01D0382700E0F4
:401640007027AF4235D30D79022D16D07F252E401B02F8256D012B4033431204F8256D032A401A43E40680231B051C40144303008133FF339B00114A9C50104D8130FF30D2
:40168000800044590E4B1C400B791B07C022920513402343435100200CE00A480AE00A4808E0084806E0074804E0064802E0054800E00448F0BDC0464008000800002640EF
:4016C000FFFFFFCF01004A0003004A0070B50C00451E134B1A683D23D35C9D421CD211492B008133FF339B005A588020000602435A5003E0012000F0DBF8013C2B00913376
:40170000FF339B00074A9B58DB0701D4002CF1D1002C03D1044802E0044800E0002070BD400800080000264002004A0001004A0070B505000C001A4B1B6828229A5C012A76
:4017400015D1820807211000884327D19200AD1AED00FF20A8401B6820339A181168AC4023004B40184004004C40146016E03A229B5EDBB2994203D176210A4800F0A4F8BE
:40178000074B1B681B68072215408022120615438022920194466444A400E55070BDC046400800087831001070B504000D000B4B9A680B4B9A420CD1002904D13821FF3151
:4017C000084800F081F81034054BA400E058E55003E01034A400044BE05870BD00ED00E0000000087831001000000010F0B5474680B482B0061E01914AD04368032B03D951
:401800003221264800F060F80023F05E002804DBB178FFF78DFF002400E0214C0023F15E7368002912DB88081E4FC0308000C55903221140C900FC3290468A4095439A019D
:40184000434613408B402B43C35116E089B20F220A40083A92080632920013481018476803221140C900FF252A008A4097439A012B0013408B403B4343600B4B9A680B4BD7
:401880009A4206D10023F05E0199FFF78DFF00E0034C200002B004BC9046F0BD783100100100560000E100E000ED00E00000000810B5034B1B78584300F0BEF810BDC04644
:4018C000D000000801BEFEE770B50D00044C18220100200000F031FDA5610020FFF7F2FFF8050008054B802212069A649B6C002B01DB002000E002487047C04600002740DB
:4019000003004600054B8022120198585B68FF221A4202D08023DB021843704700002640FEE7C04610B50A4B0268DA6142681A6282685A62C2689A620269DA6242691A63F4
:4019400082695A63C2699A63FFF7EAFF10BDC046F8050008F0B5474680B4002801D0192300E064238B429B415B42304D2C682268A826A45BA41822680327BA433B401A43EB
:4019800022602C682268A45BA2181668284CA046264016602C682668AA229446A25A96193268BA43134333602A6813686546525BD3181A68444614401C60002805D01029C5
:4019C0001BD921291BD8012024E0184B1B6855229A5C914215D956229A5C914213D957229A5C914211D958229A5C91420FD959229B5C99420DD804200CE000200AE002208B
:401A000008E0002006E0012004E0022002E0032000E00520054A1268526813680F218B430343136004BC9046F0BDC04640080008FFFCFFFF000000000230800803D0013082
:401A40000238FCD1C046C0467047EFF3108072B6704780F31088704710B5B0235B059B899BB2002B04D0B0235B059B899BB201E080235B0080225200934215D1184C236800
:401A80001968683A9B58C9180B680F208343963A13430B6021680C689C23CB58E318196881430A431A6019E00D4C2368196898229B58C918B02040050A4BC2580A4B134038
:401AC0000A681343C022920013430B60226811689C23D358CB18054A82581A6010BDC0464008000848180000FFFCFFFF4418000030B5B0235B059B899BB2002B04D0B02343
:401B00005B059B899BB201E080235B0080225200934215D1184C23681968683A9B58C9180B680F208343953A13430B6021680C689C23CB58E318196881430A431A6019E089
:401B40000D4D2B68196898229B58C918B0246405C12040012258094B13400A681343C022920013430B602A6811689C23D358CB1822581A6030BDC04640080008FFFCFFFFE4
:401B8000B0235B059B899BB2002B04D0B0235B059B899BB201E080235B008022520093420DD1104B1B681A6898215B58D21811680D4B0B40C021C9010B43136011E0094BD5
:401BC0001B68196898229B58C918084BB0225205D258074B13400A681343C022920013430B60704740080008FF8FFFFF18180000FFFCFFFF30B5B0235B059B899BB2002B9B
:401C000004D0B0235B059B899BB201E080235B008022520093420DD1134B1B681A6898215B58D2181168114B0B408021C9010B43136018E00C4D2B68196898229B58C918AE
:401C4000B02464050A4822580A4B13400A681343C022920013430B602A6811689C23D358CB1822581A6030BD40080008FF8FFFFF4C180000FFFCFFFF10B5B0235B059B89A8
:401C80009BB2002B04D0B0235B059B899BB201E080235B0080225200934217D10020FFF737FBB0235B055B78002B04D0B0235B055B78DBB200E02123222B03D8002803D17C
:401CC000013004E0012002E0002000E0012010BD30B585B004000D00022807D9042805D0032803D02A492B48FFF7EEFD6B1EDBB2012B07D9042D05D0082D03D026492548D7
:401D0000FFF7E2FDA400254BE458042D13D0012D1CD112E0A3682B420BD1E3681A6802925B6801930393290002A8236898471B4B5C61646902E0002000E00020002C24D06C
:401D4000174B9842E6D1012DE4D11EE0022D01D104E01C006369002BFBD104E00F4B5C69002C00D0246900200DE0A3682B4209D1E3681A6802925B6801930393290002A8BF
:401D8000236898472469002CEFD105B030BDC046B2090000BC310010B309000008080008FF004200F8B50700012803D93D493E48FFF78AFDB0235B055B78002B04D0B023B1
:401DC0005B055B78DBB200E021239DB2B0235B059B899BB2002B04D0B0235B059E89B6B201E0802676000020FFF792FA002814D180235B009E4212D1222D12D82B4B1B68AC
:401E00005C682B4821582B4B19403B068022520413400B432350002404E0274C02E0264C00E0254C80235B009E4201D1222D03D880235B009E4232D01C4B1A683123D35C90
:401E4000002B04D1C421FF311C48FFF73DFD174B1B681D6A80235B009E4203D1002F05D0174A06E0002F03D0164A02E0164A00E0164A01212800FEF747FF00280FD10B4B89
:401E80001A68B423D3585B191B68002BF7DBEB681B0E1B06A0221206934200D100242000F8BDC0464C0A0000BC3100104008000818F00000FFFFFFFE04004200302F001033
:401EC000010100300300000C010000300100000CF8B50500012804D9822109012948FFF7F3FCFFF7C9FE002849D0FFF7AEFD0700002D11D10021244B244AD150E823DB00EE
:401F0000B0225205D65CF6B20120FFF74BFF041E19D1FFF7A1FD16E0B02252051C4BD0581A4B194958501B49565CF6B21A481A581F218A4314390A431A500320FFF7B8FC10
:401F4000FFF758FE0024002C15D11049124A8B581F20834306401E438E50002D02D1FFF70FFE08E00720FFF7A3FCFFF7C1FD0020FFF718FF04003800FFF76BFD00E0074C68
:401F80002000F8BDBC310010307F00000000264010180000410700001CFF00000300420010B5041E03D115491548FFF78DFC154B1A68D168F222D2018A5822601B68F0227A
:401FC000D201D9688A5862600F4AD9688A58A2600E4AD9688A58E2600D4AD9688A5822610C4AD9688A5862610B4AD9688A58A261DA680A4BD358E36110BDC046A10A0000B6
:40200000BC3100104008000804780000087800000C78000010780000147800001878000010B5041E03D114491448FFF74DFC144B1B68F022D201D96860688850114AD96838
:40204000A0688850104AD968E06888500F4AD968206988500E4AD968606988500D4AD968A06988500C4AD968E0698850DA682168F223DB01D15010BDC90A0000BC310010E5
:402080004008000804780000087800000C78000010780000147800001878000070B50500012804D9A62189003548FFF70DFC354B5B68002B05D001210120FFF709FE040029
:4020C00000E00024002C53D1FFF7BFFC06002D4B5B68002B03D004210120FFF7F9FD2A4B1B6843229A5C002A08D09A68E023D358DB0603D523481830FFF752FFB0235B05FF
:402100009B899BB2002B04D0B0235B059B899BB201E080235B0080225200934203D1280000F02AF909E0194A116904230B431361012D01D030BF00E020BF134B1B68432232
:402140009A5C002A08D09A68E023D358DB0603D50C481830FFF764FF3000FFF77AFC094B5B68002B09D008210120FFF7B1FD04E002210120FFF7ACFD054C200070BDC04679
:40218000BC310010080800084008000800ED00E0FF004200042805D10B4A116804230B4313600FE0094B1A681168A023D358CB180006C022920410401860034A13680421B2
:4021C0008B4313607047C04610E000E0400800080749C02252008B589B009B088020C00503438B508B588020000603438B50704700002640014B18607047C04640080008FE
:40220000002243088B4274D303098B425FD3030A8B4244D3030B8B4228D3030C8B420DD3FF22090212BA030C8B4202D31212090265D0030B8B4219D300E0090AC30B8B422D
:4022400001D3CB03C01A5241830B8B4201D38B03C01A5241430B8B4201D34B03C01A5241030B8B4201D30B03C01A5241C30A8B4201D3CB02C01A5241830A8B4201D38B02EE
:40228000C01A5241430A8B4201D34B02C01A5241030A8B4201D30B02C01A5241CDD2C3098B4201D3CB01C01A524183098B4201D38B01C01A524143098B4201D34B01C01A63
:4022C000524103098B4201D30B01C01A5241C3088B4201D3CB00C01A524183088B4201D38B00C01A524143088B4201D34B00C01A5241411A00D20146524110467047FFE7BF
:4023000001B5002000F006F802BDC0460029F7D076E770477047C046002310B59A4203D0CC5CC4540133F9E710BD03008218934202D019700133FAE77047030030B5002AF0
:402340000DD00C7801335D1E013A2C700131002CF5D19A189A4202D01C700133FAE730BDF8B5C046F8BC08BC9E467047F8B5C046F8BC08BC9E46704701B40248844601BC52
:40238000604700BF310300080300000001000000010000000000000005036000040000000100000000000000010000000604600008000000C0070008B9010010737973742A
:4023C000656D5F70736F63365F636D30706C75732E6300001E01050000000000F4010000140004010400090508000000630100000020344074008020344074000022344037
:402400007400802234407400002434407400802434407400002634407400802634407400002834407400802834407400002A34407400802A3440740000213440002600105B
:402440009000000000233440902600109000000000253440202700109000000000273440B027001090000000002934404028001090000000002B3440D02800109000000071
:4024800000603440602900107C00000080603440DC2900107C00000000613440582A00107C00000080613440D42A00107C00000000623440502B00107C0000008062344059
:4024C000CC2B00107C00000000633440482C00107C00000080633440C42C00107C00000000643440402D00107C00000080643440BC2D00107C00000000653440382E0010C2
:402500007C00000080653440B42E00107C0000008C01B201BE04DC04E3012815680800000520344002703440080000000000000000000000006008000000000000000000F6
:40254000000000000000000300000000030000000000000000000000600000000000000000000000000000000003000000000000000000000000000000000000000000BA38
:402580000000000000000000000000000000000000001D1DFE00000000000000000000000000000000000000000000000000000000040400000000000200000000000000D9
:4025C000000000006000000000000000000000000000000000080000000000000300000000000000000000000000000000000000000000000000000003030000000000006A
:40260000000000000000000000000000FFFFFFFFFFFFFFFFFFFFFFFFFFFFFFFFFFFFFFFFFF000000FF0FFFFFFFFFFFFFFFFFFFFFFFFFFFFFFFFFFFFFFF00000000000000B4
:402640000000000000000000000000002000000F00000000FFFFFFFFFFFFFFFFFFFFFFFF1111111111111111111D11111111111111311111111111111111111111111111EB
:4026800011111111111111111111111111111111000000000000000000000000FFFFFFFFFFFFFFFFFFFFFFFFFFFFFFFFFFFFFFFFFF000000FFFFFFFFFFFFFFFFFFFFFFFF2B
:4026C000FFFFFFFFFFFFFFFFFF000000000000000000000000000000000000000000000000000000FFFFFFFFFFFFFFFFFFFFFFFF11111111111111111111111111111111DF
:402700001111111111111111111111111111111111111111111111111111111111111111000000000000000000000000FFFFFFFFFFFFFFFFFFFFFFFFFFFFFFFFFFFFFFFF8D
:40274000FF000000FFFFFFFFFFFFFFFFFFFFFFFFFFFFFFFFFFFFFFFFFF000000000000000000000000000000000000000000000000000000FFFFFFFFFFFFFFFFFFFFFFFF7B
:40278000111111111111111111111111111111111111111111111111111111111111111111111111111111111111111111111111000000000000000000000000FFFFFFFFED
:4027C000FFFFFFFFFFFFFFFFFFFFFFFFFFFFFFFFFF000000FFFFFFFFFFFFFFFFFFFFFFFFFFFFFFFFFFFFFFFFFF0000000000000000000000000000000000000000000000FF
:4028000000000000FFFFFFFFFFFFFFFFFFFFFFFF11111111111111111111111111111111111111111111111111111111111111111111111111111111111111111111111174
:40284000000000000000000000000000FFFFFFFFFFFFFFFFFFFFFFFFFFFFFFFFFFFFFFFFFF000000FFFFFFFFFFFFFFFFFFFFFFFFFFFFFFFFFFFFFFFFFF0000000000000082
:402880000000000000000000000000000000000000000000FFFFFFFFFFFFFFFFFFFFFFFF111111111111111111111111111111111111111111111111111111111111111104
:4028C00011111111111111111111111111111111000000000000000000000000FFFFFFFFFFFFFFFFFFFFFFFFFFFFFFFFFFFFFFFFFF000000FFFFFFFFFFFFFFFFFFFFFFFFE9
:40290000FFFFFFFFFFFFFFFFFF000000000000000000000000000000000000000000000000000000FFFFFFFFFFFFFFFFFFFFFFFF111111111111111111111111111111119C
:40294000111111111111111111111111111111111111111111111111111111111111111100000000000000001F1F1F1F1F1F1F1F1F1F1F1F1F1F1F1F0A1F1F1F1F1F1F1F64
:402980001F1F1F1F1F1F1F1F00000000000000000000000000000000F000000500000000FFFFFFFFFFFFFFFFFFFFFFFF11111111111111111111111111111111111111D122
:4029C0001111111111111111111111111111111111111111111111111111111100000000000000001F1F1F1F1F1F1F1F1F1F1F1F1F1F1F1F1F1F151F1F1F1F1F1F1F1F1FA1
:402A00001F1F1F1F000000000000000000000000000000000000000000000000FFFFFFFFFFFFFFFFFFFFFFFF1111111111111111111111111111111111111111111111118E
:402A400011111111111111011111111111111111111111111111111100000000000000001F1F1F1F1F1F1F1F1F1F1F1F1F1F1F1F1F1F1F1F1F1F1F1F1F1F1F1F1F1F1F1FEE
:402A8000000000000000000000000000000000000000000000000000FFFFFFFFFFFFFFFFFFFFFFFF1111111111111111111111111111111111111111111111111111111146
:402AC000111111111111111111111111111111111111111100000000000000001F1F1F1F1F1F1F1F1F1F1F1F1F1F1F1F1F1F1F1F1F1F1F1F1F1F1F1F1F1F1F1F00000000A2
:402B00000000000000000000000000000000000000000000FFFFFFFFFFFFFFFFFFFFFFFF111111111111111111111111111111111111111111111111111111111111111181
:402B40001111111111111111111111111111111100000000000000001F1F1F1F1F1F1F1F1F1F1F1F1F1F1F1F1F1F1F1F1F1F1F1F1F1F1F1F1F1F1F1F000000000000000065
:402B800000000000000000000000000000000000FFFFFFFFFFFFFFFFFFFFFFFF111111111111111111111111111111111111111111111111111111111111111111111111BD
:402BC00011111111111111111111111100000000000000001F1F1F1F1F1F1F1F1F1F1F1F1F1F1F1F1F1F1F1F1F1F1F1F1F1F1F1F1F1F1F1F00000000000000000000000029
:402C0000000000000000000000000000FFFFFFFFFFFFFFFFFFFFFFFF11111111111111111111111111111111111111111111111111111111111111111111111111111111F8
:402C4000111111111111111100000000000000001F1F1F1F1F1F1F1F1F1F1F1F1F1F1F1F1F1F1F1F1F1F1F1F1F1F1F1F1F1F1F1F00000000000000000000000000000000EC
:402C80000000000000000000FFFFFFFFFFFFFFFFFFFFFFFF111111111111111111111111111111111111111111111111111111111111111111111111111111111111111134
:402CC0001111111100000000000000001F1F1F1F1F1F1F1F1F1F1F1F1F1F1F1F1F1F1F1F1F1F1F1F1F1F1F1F1F1F1F1F0000000000000000000000000000000000000000B0
:402D000000000000FFFFFFFFFFFFFFFFFFFFFFFF1111111111111111111111111111111111111111111111111111111111111111111111111111111111111111111111116F
:402D400000000000000000001F1F1F1F1F1F1F1F1F1F1F1F1F1F1F1F1F1F1F1F1F1F1F1F1F1F1F1F1F1F1F1F00000000000000000000000000000000000000000000000073
:402D8000FFFFFFFFFFFFFFFFFFFFFFFF11111111111111111111111111111111111111111111111111111111111111111111111111111111111111111111111100000000EF
:402DC000000000001F1F1F1F1F1F1F1F1F1F1F1F1F1F1F1F1F1F1F1F1F1F1F1F1F1F1F1F1F1F1F1F000000000000000000000000000000000000000000000000FFFFFFFFF7
:402E0000FFFFFFFFFFFFFFFF11111111111111111111111111111111111111111111111111111111111111111111111111111111111111111111111100000000000000006A
:402E40001F1F1F1F1F1F1F1F1F1F1F1F1F1F1F1F1F1F1F1F1F1F1F1F1F1F1F1F1F1F1F1F000000000000000000000000000000000000000000000000FFFFFFFFFFFFFFFF7A
:402E8000FFFFFFFF11111111111111111111111111111111111111111111111111111111111111111111111111111111111111111111111100000000000000001F1F1F1F6A
:402EC0001F1F1F1F1F1F1F1F1F1F1F1F1F1F1F1F1F1F1F1F1F1F1F1F1F1F1F1F000000000000000000000000000000000000000000000000FFFFFFFFFFFFFFFFFFFFFFFF7A
:402F000011111111111111111111111111111111111111111111111111111111111111111111111111111111111111111111111147656E6572617465645F536F7572636502
:402F40005C50536F43365C70646C5C647269766572732F7065726970686572616C2F6970632F63795F6970635F6472762E68000047656E6572617465645F536F7572636567
:402F80005C50536F43365C70646C5C647269766572735C7065726970686572616C5C6770696F5C63795F6770696F2E630000000047656E6572617465645F536F757263656A
:402FC0005C50536F43365C70646C5C647269766572735C7065726970686572616C5C6770696F5C63795F6770696F2E680000000047656E6572617465645F536F7572636525
:403000005C50536F43365C70646C5C647269766572735C7065726970686572616C5C6970635C63795F6970635F6472762E68000047656E6572617465645F536F757263651F
:403040005C50536F43365C70646C5C647269766572735C7065726970686572616C5C6970635C63795F6970635F6472762E63000047656E6572617465645F536F75726365E4
:403080005C50536F43365C70646C5C647269766572735C7065726970686572616C5C6970635C63795F6970635F706970652E630047656E6572617465645F536F7572636542
:4030C0005C50536F43365C70646C5C647269766572735C7065726970686572616C5C70726F745C63795F70726F742E630000000047656E6572617465645F536F75726365FD
:403100005C50536F43365C70646C5C647269766572735C7065726970686572616C5C737973636C6B5C63795F737973636C6B2E630000000047656E6572617465645F536FC3
:40314000757263655C50536F43365C70646C5C647269766572735C7065726970686572616C5C737973636C6B5C63795F737973636C6B2E680000000047656E657261746554
:40318000645F536F757263655C50536F43365C70646C5C647269766572735C7065726970686572616C5C737973696E745C63795F737973696E742E630000000047656E651E
:4031C00072617465645F536F757263655C50536F43365C70646C5C647269766572735C7065726970686572616C5C737973706D5C63795F737973706D2E630000000020402D
:4032000000002440000000400000000000002340000030400000314000009F40000022400000104002020202020202020210101D800017007500FF03060206360410200040
:40324000000000007FC0000000040000000000000019324B647D00804000080B100000000000FF012002001F00800004FF081018001000140018001C4044484C50000000FD
:40328000081000000800000004000000041000000012000004210000002100000016000040114002C41300138013A013200000001C00000000002140000025400000014062
:4032C0000000344000002440000031400000324000001F410000234000001140010101010101010101101010800019005500F0000501053B04101C01010000000FC00000A1
:403300000004000001010101011D3A57789600082000101208000000001F00000010000F002000023F06080E00080009000A000B24282C3034000000100000009000000019
:4033400088000000080000008000000004F0000000F00000400200002005A000D00100018001A0012000000010000000000000000000001000000008C00000009033001083
:40338000C000000838050000340600081002000000127A0000093D0000093D0000093D0004000000A00F00000000D007E9000010C10000100000000010B50004400B27D0F7
:4033C000144B1A68146AB023D15ACA00531AE3181B68002BF4DA3E220F4B1A600F4A104B1A60104B0621A322D20099500E4A98509B58084B1A68106AB023D15ACA00531AA7
:40340000C31800225A60084B064AD358002BFADA10BDC04640080008040126401E1F000008012640000026401C05000010B54378FF2B20D100F010FA04000F4B1A6831237E
:40344000D35C042B04D8C421FF310C4800F0F4F9094B1A68116AB023D35A9B00CB18DB685A68116801230B4313601368DB07FCD4200000F019FA10BD40080008302F0010BE
:40348000F0B585B001900291544B1A683123D35C002B04D1C421FF31514800F0CDF94F4B1B681E6AB4229A58971950229B5C002B77D000F0C9F9050003283CD1474B1A680B
:4034C0003123D35C062B04D8C421FF31444800F0B3F9424B1968B023CB5A5A00D21853000A6A94466344B4228A58D3181B68002B23DB002000F0B8F93A4B98421FD03A4B8A
:403500001A6900230021012000F0C6F9002803D0364C17E0013400E00024002000F0A4F9304B984202D0324B9C42F3D9304B9C4207D92E4C06E0002404E02C4C02E02B4CDA
:4035400000E00024002C46D100F086F90390294B294AD358002B13DA234A0121300000F08BF900280ED10298FFF726FF019B002B0AD03B68002BFCDB00F09EF9040004E034
:403580001A4C02E0194C00E01C4C032D05D10121002000F079F90028F9D1039800F084F919E000F059F905000F4A0121300000F063F9002809D1019B002B08D03B68002BCC
:4035C000FCDB00F079F9040002E0084C00E00B4C280000F069F9200005B0F0BD40080008302F001001018800E007000805005200EF4902001C050000000026400100500084
:40360000F0B54F464646C0B4824B1A685468B0235B055B78002B04D0B0235B055B78DBB200E02123212B67D1B023D15ACB005B1A116A8C46634419680029F5DADD680221F2
:403640002943D960B023D15ACB005B1A116A8C466344D968C9073ED5D9680904090C8C4684271168D559A84641440968090A0904FF26360431400D00882611688946915907
:403680008846C14449460968090A0906294365462943D9601168D359C9180A685E4B98461A4090252D012A430A605A4B99461A6813689C46925962441368414619400B006C
:4036C0002B4313604B461A681568D15969180B689359EB181B684F4B1A68B021555AEB005B1B156AAC46634400255D60156A515ACA00531AEB185B68484A116904230B432A
:403700001361012801D030BF00E020BF414B1A68B023D15ACB005B1A116A8C46634419680029F3DAB02149054978002904D0B02149054978C9B200E02121212932D1D968CE
:40374000C90722D510688421525880180468324A1440DB681B0C1B02FF2109020B40234303602C4B19688823C8580B689C46604403681A400D6AB023CC5AE1000B1BEB1826
:40378000DB681B0E1B021A430260224B1A68106AB023D15ACA00531AC318DA6802218A43DA6028E086235B00E358002B23D11C4807681C4BA321C9005E581B4A9046156841
:4037C0001A4A0260062058503E21424611600631174A9950164B134AD358002BFADA154A86235B00E2500E4B1F60A323DB000D4AD6500D4B1D60074B1A68106AB023D15AC8
:40380000CA00531AC31800225A600CBC90469946F0BDC04640080008FF00FFFF00ED00E00801264000002640040126401E1F00001C050000AAAAAAAA01B40248844601BC84
:40384000604700BFC918001001B40248844601BC604700BF3104001001B40248844601BC604700BF4B1A001001B40248844601BC604700BF210F001001B40248844601BCAD
:40388000604700BF090D001001B40248844601BC604700BF950E001001B40248844601BC604700BF0511001001B40248844601BC604700BF531A001001B40248844601BCDC
:4038C000604700BF3D0B001000000000000000000000000000000000000000000000000000000000000000000000000000000000000000000000000000000000000000000A
:403900000000000000000000000000000000000000000000000000000000000000000000000000000000000000000000000000000000000000000000000000000000000087
:403940000000000000000000000000000000000000000000000000000000000000000000000000000000000000000000000000000000000000000000000000000000000047
:403980000000000000000000000000000000000000000000000000000000000000000000000000000000000000000000000000000000000000000000000000000000000007
:4039C00000000000000000000000000000000000000000000000000000000000000000000000000000000000000000000000000000000000000000000000000000000000C7
:020000041008E2
:4000000000780408EB0208100D00000051030810510308105103081051030810000000000000000000000000000000004D0308104D030810000000004D0308104D030810DA
:400040004D0308104D0308104D0308104D0308104D0308104D0308104D0308104D0308104D0308104D0308104D0308104D0308104D0308104D0308104D0308104D03081000
:400080004D0308104D0308104D0308104D0308104D0308104D0308104D0308104D0308104D0308104D0308104D0308104D0308104D0308104D0308104D0308104D030810C0
:4000C0004D0308104D0308104D0308104D0308104D0308104D0308104D0308104D0308104D0308104D0308104D0308104D0308104D0308104D0308104D0308104D03081080
:400100004D0308104D0308104D0308104D0308104D0308104D0308104D0308104D0308104D0308104D0308104D0308104D0308104D0308104D0308104D0308104D0308103F
:400140004D0308104D0308104D0308104D0308104D0308104D0308104D0308104D0308104D0308104D0308104D0308104D0308104D0308104D0308104D0308104D030810FF
:400180004D0308104D0308104D0308104D0308104D0308104D0308104D0308104D0308104D0308104D0308104D0308104D0308104D0308104D0308104D0308104D030810BF
:4001C0004D0308104D0308104D0308104D0308104D0308104D0308104D0308104D0308104D0308104D0308104D0308104D0308104D0308104D0308104D0308104D0308107F
:400200004D0308104D0308104D0308104D0308104D0308104D0308104D0308104D0308104D0308104D0308104D0308104D0308104D0308104D0308104D0308104D0308103E
:400240004D0308104D0308104D0308104D0308104D0308104D0308104D0308104D0308104D0308104D0308104D0308104D0308104D0308104D0308104D0308104D030810FE
:400280004D0308104D0308104D03081010B5054C237833B9044B13B10448AFF300800123237010BD0C49020800000000D8710810084B10B51BB108490848AFF300800848AD
:4002C000036803B910BD074B002BFBD0BDE81040184700BF0000000010490208D8710810D8420208000000007047FFF7FDFF72B6104C114DAC4209DA21686268A368043BCE
:40030000A2BFC858D050FAE70C34F3E70B490C4A00209142BCBF41F8040BFAE709480A490860BFF34F8F00F061FA00F03BFA00F067F8FEE7DC710810F47108100C4902085F
:40034000DC4E02080040020808ED00E0FEE7FEE700B504207146084202D0EFF3098001E0EFF30880043001F011F9FEE708B5044842F23C03C158034A01F05AFC08BD00BF3D
:4003800000003F40904C020808B5044842F23803C158034A01F04CFC08BD00BF00003F40904C020808B5044842F23403C158034A01F03EFC08BD00BF00003F40904C0208EA
:4003C00070B505460E461446082A04D940F20931094801F09FF83269E24002F00102D3B2064909788B4204D00AB185F00105034A1370284670BD00BF006808102849020888
:4004000030B583B06E4B01936E4B00936E4B6F4A6F49704803F0C4FB00B1FEE7684A6E496E4803F0DDFE00B1FEE76D4C6D49204601F012F86C4904F1080001F00DF86B4932
:4004400004F1100001F008F8694B4FF400421A614FF480321A614FF400321A6162B603F0FFFE04F093FB06F0AFF8554A0021012003F014FC5F4C04225F496078FFF7A0FF81
:40048000607004F013FB0446002840F08F80594B5B7803B90124012C04D94FF44A71574801F038F81CB90222554B5A6002E00222534B9A604F4B5B781BB908224E4B5A60EA
:4004C00002E008224C4B9A6003F0E4FE002004F00BF900283DD0002004F01AF90446854209D9444B5B780BB9012300E00223F621444AD15414E0854209D23E4B5B780BB954
:40050000012100E002210A223E4B5A5408E0394B5B780BB9012100E002210022394B5A54012004F0E1F8003018BF0120314DA870022004F0D9F8003018BF0120E870204B39
:400540000093002303222F49012003F009FC254627E0012004F0C8F8003018BF0120254CA070022004F0C0F8003018BF0120E070A37813B918B1022202E0012200E00022FE
:40058000204B1A701B4B5B780BB9012200E002221C4900238B540A4A00920322012003F0DFFB04F0E1F904F0F1FA63E70223164A536002F5A062536008220F4B5A6059E769
:4005C0001C4C0208C8680810D8680810904C02089468081000003F40DC4B0208D0680810E8670810A5030810890308106D03081000E100E02849020800003240006808106E
:4006000080053240D84B02088000324008B5012000F0E8FE08BD00BF704700BF5A4AD2F8803303F00F0303F1D00152F8212012F0070202D0042A02D00FE0544911E003F132
:40064000C002514951F8222002F01F02112A06D0132A04D04FF4FA4103E04D4901E04FF400418BBB484BD3F8902502F00100D3F88825C2F30172D3F8883513F0405F07D015
:40068000414BD3F88835C3F30173012B02D102E0012300E0002303B108B9032A46D13A48D0F88025C2F31103D0F88425C2F30C02D0F88005C0F300600130B1FBF2F202FB31
:4006C00003F2B2FBF0F131E0012B2FD12E4BD3F8402602F00100D3F80026C2F30172D3F8003613F0405F07D0274BD3F80036C3F30173012B02D102E0012300E0002303B1B1
:4007000008B9032A12D12048D0F8002602F07F02D0F80036C3F30423D0F80006C0F3044002FB01F2B2FBF3F2B2FBF0F1164BD3F88033C3F3011321FA03F216490A6016488F
:40074000D0F89030C3F3072301330069000E0130B2FBF0F04860B2FBF3F38B60CB6003F5742202F23F220D48A0FB0202C2F387420A7403F2E7330A4AA2FB03239B094B610E
:40078000DB038B61704700BF0000264000127A0000366E018C4202080000214083DE1B43D34D621008B50D4802F0DAFBFFF734FFFFF734FF00221146042000F0DBFB0848FA
:4007C00000F06EFC074B1B6893F8513013B1064800F0D6FC00F09CFA08BD00BF4C6E0810304902082C4E02084068081008B500F028FF074AD2F8883043F47003C2F8883084
:40080000BFF34F8FBFF36F8F00F01FFF08BD00BF00ED00E0002800F0248138B50546002900F021810C460B78032B03D95721914800F070FE6378032B03D958218D4800F0B8
:4008400069FEA378032B03D959218A4800F062FE2379032B03D95A21864800F05BFEA379012B03D95B21834800F054FEE379012B03D95C217F4800F04DFEE378012B03D925
:400880005D217C4800F046FE6379022B03D95E21784800F03FFE237A032B03D95F21754800F038FE237803F003016278930003F00C030B43A278120102F0300213432279D6
:4008C0009201D2B21343A279920602F080621343E279D20602F000621343E278120602F0807213436279120702F040521343227A43EA82732B60E3686B602369AB60237AC4
:40090000032B00F2B280DFE803F002063388E36AEB60002038BD636903F50063B3F5805F03D37821534800F0F5FDA36903F50063B3F5805F03D379214E4800F0EBFDE36989
:40094000013BFF2B03D97A214A4800F0E3FD6369C3F30B02A369484901EA03331A43E369013B42EA0363EB60E36A2B61002038BD636903F50063B3F5805F03D387213D488A
:4009800000F0C8FDA36903F50063B3F5805F03D38821384800F0BEFDE369013BFF2B03D98921344800F0B6FD236A03F50063B3F5805F03D38A212F4800F0ACFD636A03F5CE
:4009C0000063B3F5805F03D38B212A4800F0A2FDA36A013BFF2B03D98C21264800F09AFD6269C2F30B01A269234B03EA02320A43E169013942EA0162EA60226AC2F30B027B
:400A0000616A03EA01331343A26A013A43EA02632B61E36A6B61002038BD184B1B6893F82A30012B23D9636903F50063B3F5805F03D3A1210F4800F06DFDE369013BFF2B45
:400A400003D9A2210B4800F065FD6369C3F30B03E269013A43EA0263EB60E36A2B61002038BD07487047064838BD054838BD044838BD00BFE469081000F0FF002C4E0208EE
:400A800001004E00002860D0F8B50346002A5ED0106800285DD03148006890F83300884259D91E4614460D469368032B03D9EF212B4800F02FFD2768284B1B6893F83330B4
:400AC0009D4204D340F2E151264800F023FD234B1A68B2F85A309919B2F85C3005FB0313DF60B2F85A10B2F85C30314405FB03118B681B0C1B048B60B2F85A301E44B2F8C6
:400B00005C1005FB01F123792BB192F85F70012303FA07F700E00027A06892F85E50A8400322AA4000EA02033B43227B12B14FF0004200E000221343627B0AB1042200E0E5
:400B40000022134373500020F8BD074870470648F8BD0548F8BD0448F8BD00BF2C4E0208E4690810206A081001004E0003689B0F032B08D8DFE803F002040604C1607047FB
:400B800001617047416170471F4B98422DD00CD840282ED003D8E8B1102828D02FE0802829D0B0F5807F28D029E0184B984228D006D8B0F1204F0DD0154B984212D01EE025
:400BC000144B98420AD00133984209D0023B984215D101E0002070470F4870470F4870470F4870474FF4A0007047074870470D4870470D4870470D487047034870470C4802
:400C000070474FF4A400704706005200010000F0090000A0040000F0010052000200520003005200010050000200500005005200FF00520038B5124B1B6893F83130012B4D
:400C400004D840F2C3110F4800F064FC0C4B1D682A6AB5F8B03013442C46D5F8B420D358002B0BDB084B1868FFF78EFF6B6801229A6063689B68002BFBD138BD034838BD08
:400C80002C4E02085C6A0810F44A0208020050001A4B186128B102230370FF23437000234380174B1B6893F850202AB300B583B0B3F93830ADF800300023019311496846E1
:400CC00000F0CAFBBDF90030002B08DB590903F01F03012202FA03F30B4A42F82130084B1B6893F8513023B102220849012000F0F3FA03B05DF804FB704700BFF44A0208F1
:400D00002C4E02084943020800E100E00144020808B50248FFF7BCFF08BD00BF084B02082DE9F04104460D46174698469DF81860072903D9D921354800F0ECFB37F00F0331
:400D400003D0DA21314800F0E5FBB8F1010F03D9DB212E4800F0DEFB36F01F0303D0DC212A4800F0D7FB22680123AB4022EA030308F0010808FA05F843EA08032360244B6B
:400D80001B6893F87D100B59A8000F22824023EA020207F00F0303FA00F717430F51072D04D94FF422711B4800F0B4FB36F01F0304D040F28921174800F0ACFB144B1B6818
:400DC0009A69A41AE4095B6924011919032D0DD81959ED001F22AA4021EA020206F01F0606FA05F515431D51BDE8F081043D4A68ED001F23AB4022EA030306F01F0606FA51
:400E000005F51D434D60BDE8F08100BF9C6A08102C4E0208DC6A081038B50B4B1B68D3F8B4301B58002B0DDA0D4604460B0C1B0423B140F2D521054800F06CFBA9B261604D
:400E4000002038BD024838BD2C4E02081C6B081001008A0038B50368002B01DA002300E0094B73B90D460446C2600B0C1B0423B140F2BB21054800F04DFBA9B2A1600020B7
:400E800038BD014838BD00BF01008A001C6B081038B504460D4619B99921084800F03AFB074B1B68D3F8B4301B59002B03DAE3682B60002038BD034838BD00BF5C6B0810C2
:400EC0002C4E020801008A00254B1B6893F8313083423AD900293AD00B6813F01F0F38D170B50D4604461E4B1B6893F83130984204D340F2C3111B4800F00CFB184B1B68BB
:400F0000186AB3F8B03004FB0304174E34602A68D2080021686805F03FFC00212046FFF77BFF346825B940F293310E4800F0F2FA2A4600212046FFF78DFF60B900210A4B77
:400F40001868FFF769FF40B970BD084870470748704706487047064870BD054870BD00BF2C4E02081C6B08100C4B020803018A0001018A0010B504461346B2B9A9B9124B77
:400F80001B6893F83130984204D340F2C3110F4800F0C0FA0C4B1B681A6AB3F8B03004FB03240B4B1C60002010BD43B149B1084A51609360111D2046FFF786FF10BD05482F
:400FC00010BD044810BD00BF2C4E02081C6B08100C4B020803018A002DE9F0411B4B1B68DC68236883422CD90D464609A0EB4610012303FA00F819B900F023FB074600E0C8
:401000000027124B18680368002B01DA002300E00F4B83B9626852F8263018EA030F05D023EA080342F82630002400E0094C0021FFF7F2FE00E0084C25B9384600F005FBC7
:4010400000E0064C2046BDE8F08100BF0C4B020801008A00020188000301880004018A000B4B1B68DB681A6882420CD94109A0EB4110012202FA00F05B6853F8213018423C
:4010800003D004487047044870470448704700BF0C4B02080101880004018A0000018800024B1B680BB9014B18607047184B02082DE9F8430446884691461D46089F2C4B55
:4010C0001B681BB9B5212B4800F024FA284B1B682C2000FB04F01C18EEB21E50C5F3072363602D0CA560244B1B6893F831309E4204D340F2C311214800F00CFA1E4B1B6806
:40110000196AB3F8B02006FB02162661666893F832309E4204D340F2DF11184800F0FAF9154B1B681D6A803605EB46156561A668330C1B0423B14FF4FF71104800F0EAF9EB
:40114000330C1B0423B140F2FF110C4800F0E2F9B3B243EA0646AE60C4F81C90C4F820800023A36117B1B7F90030A381BDE8F883184B02089C6B08102C4E02081C6B08106A
:40118000F0B58FB0044618B95221274800F0C2F9A369072B03D95621234800F0BBF9E36A1BB95821204800F0B5F9236B1BB959211D4800F0AFF907AD04F114060FCE0FC516
:4011C00037682F6002AD26460FCE0FC533682B60164B1B68B3F93620079B1344ADF83030089B0D93A26AE16A0CAD00953B460A98FFF75EFF00210091069B0A460598FFF757
:4012000057FF216B284600F027F9BDF93030002B08DB590903F01F03012202FA03F3044A42F821300FB0F0BD9C6B08102C4E020800E100E0F8B506460F461D4614461AB917
:40124000FD211F4800F066F91E4B1B681BB9FE211B4800F05FF91B4B1B682C2101FB063001FB07314B68012202FA03F31B04466802FA06F60269EAB18F69EFB91268002A9D
:4012800001DA002200E0104AC2B92288134323600369DC6001238B614D620469330C1B0423B140F2BB21094800F034F9B2B2A2600020F8BD0648F8BD0648F8BD0548F8BD34
:4012C0009C6B0810184B020801008A001C6B081004028A0007028A00F8B505460F4616460E4B1B6823B94FF4AF710D4800F012F90A4B1B682C2404FB0534236A23B94FF4F5
:40130000B171074800F006F9E369B34204D9236A43F826700020F8BD0248F8BD184B02089C6B08100A028A0070B582B000230193044620B940F2D111284800F0EBF82369C7
:4013400023B94FF4E971254800F0E4F8636923B940F2D311214800F0DDF8236A23B94FF4EA711E4800F0D6F86369DD682A0C20D012041A601B682069194B1B68D3F8B4303B
:40138000C358002B15DA01A9FFF782FD60B9019803681E0CDBB2E269934206D2226A52F8233013B1984700E0002631462069FFF733FDADB275B16369ADB21D601B68636A98
:4013C0001BB198470023636202E0A36A03B198470023A36163691B6802B070BD9C6B08102C4E020810B50446074B1B6823B940F2B111064800F08EF8034B1B682C2000FB50
:401400000430FFF791FF10BD184B02089C6B081038B50D4B9A680D4B9A420FD10D46044621B940F237110A4800F074F804F11003064A52F8230042F8235038BD1030054BA8
:4014400053F8200038BD00BF00ED00E000400208DC6B08100000081048B338B504460D464368072B03D93221134800F053F8B4F900306268002B08DB5201D2B203F1604375
:4014800003F5614383F8002305E003F00F035201D2B20A49CA540A4B9A680A4B9A4208D12946B4F90000FFF7B3FF002038BD06487047002038BD00BFDC6B081014ED00E06D
:4014C00000ED00E0004002080100560010B5044605E0084B186800F0ABF8A4F50044B4F5004FF6D8044B186800FB04F000F0A0F810BD00BFA4420208A042020808B5034BC8
:401500001B7800FB03F000F093F808BD9C42020801BEFEE738B50D46044C18220146204605F042F9A5610020FFF7F2FF7848020810B44FF0B05191F80A2691F8073603F06A
:4015400001031B0643EA426391F8062643EA024391F8052643EA022391F8044691F8030691F80226120442EA006291F8010642EA002291F800060243002044EA0301104336
:401580005DF8044B704700BFFEE700BF08B50268254BDA6142681A6282685A62C2689A620269DA6242691A6382695A63C2699A631E4A916AD963D16A1964516A5964516B7F
:4015C0009964926BDA64F1EE103A13F0900F27D0026A154B1A65426A5A65826A9A65C26ADA65026B1A66426B5A66826B9A66C26BDA66026C1A67426C5A67826C9A67C26CB6
:40160000DA67026DC3F88020426DC3F88420826DC3F88820C26DC3F88C20026EC3F89020FFF7B2FF08BD00BF7848020800ED00E00230800803D001300238FCD100BF00BFC9
:401640007047EFF3108072B6704780F31088704770B505460C462F4B1A68B2F86A10B2F86E309B08013B0B4343F0804330EA030304D04FF4A1712848FFF74CFF254B1B6866
:4016800093F82F30012B01D1FF2C09D944B1022C06D0FF2C04D040F243111F48FFF73AFF3CB31C4B1A689068B2F868104358002B2ADBB2F86A3043F0804343F0FF031D4098
:4016C00045F0004692F82F30012B06D1240404F47F0426434650002070BD022C04D145F020454550002070BDFF2C0FD14650002070BD084B1B689A68B3F86830D1580029BA
:4017000006DA0020D05070BD044870BD044870BD024870BD2C4E0208206C08100200CE000100CE0008B58B6903B1984708BD00BF08B54B6903B1984708BD00BF38B5D0F827
:40174000A03013F0100F3AD00D46044613F0800F12D003F00F03012B1CD1D0F8A030C0F8A030D0F8A03013F0800F15D10023CB628B689847012312E013F0400F03D0CB687E
:40178000984701230BE013F0200F07D00B699847012304E0002302E0002300E0002373B1D4F8A03013F0800F09D1EB6A43EA0323C4F8A430AB6AC4F8A030D4F8A03038BD16
:4017C00000F500531B6813F4803F0DD010B504464B6898470023C4F8A4300123C4F8A03080232362236A10BD704700BF70B501238B40C362C36A00EB81152B6B1B0203F4EE
:40180000E0666C6B6B6B44EA1323DBB23343D5F8044214F0200F02D0023B002B52D12C2303FB012393F83A30DBB2072B09D02C2303FB012393F83A30DBB2052B03D1012392
:4018400002E0012300E0002343B92C2303FB012393F8394084F0800483F839402C2303FB0123022483F845409C6C5CB3AB6B13F0400F01D1002600E001262C2303FB01237C
:4018800093F83A30DBB2072B09D02C2303FB012393F83A30DBB2052B03D1012302E0012300E0002363B92C2303FB012393F83910C9B22B6B03F08003994201D146F00206A4
:4018C0003146A04770BD00BF10B4082A00D9082200230CE013F0010F03D1CC5C40F8234004E0CC5C44EA042440F8234001339A42F0D818465DF8044B704700BF30B4D0F8F3
:40190000A430D0F8A44043EA142404F00F04023CA24200D8144600230EE013F0010F03D150F82320CA5406E050F8232050F8235042EA1522CA5401339C42EED8184630BCF7
:40194000704700BF2DE9F04781468846D0F87C32D0F87C4243EA1424E4B20027A8E014F0010F00F0A38009EB8716D6F80432D6F8045243EA1525EBB2D6F808521D402C20B4
:4019800000FB07F038304044C6F80852D6F8083215F0010F15D0D6F8003223F00103C6F800322C2303FB0783012283F8452093F83A30B26B22F00F0203F00F031343B363A8
:4019C000B36B15F0020F05D02C2303FB0783022283F8452015F0200F58D000F0D7FE2C2303FB078393F83A30DBB2072B09D02C2303FB078393F83A30DBB2052B03D10123FD
:401A000002E0012300E0002343B92C2303FB078393F8392082F0800283F839202C2303FB0783022283F84520D3F848A0BAF1000F2CD0B36B13F0400F01D1002100E0012175
:401A40002C2303FB078393F83A30DBB2072B09D02C2303FB078393F83A30DBB2052B03D1012302E0012300E0002363B92C2303FB078393F83920D2B2336B03F080039A422D
:401A800001D141F0020142464846D04715F0040F04D040F26F210948FFF73CFD15F0080F04D040F27A210548FFF734FD64080137002C7FF454AFBDE8F08700BF646C08108B
:401AC00000287BD0F8B50446002979D0002A79D016460D460B78022B03D957213A48FFF719FD40F20113C4F87432A36C03F00403A3640A23C4F8303304F50057334B3B60E9
:401B00003B680220FFF7FAFC3B6823F004033B603B68636A03F0080343F002036362EA6A42F23003E250062242F22803E250002242F21003E25095F830301BB1032242F2DE
:401B40001003E2502B78337095F83130012B14BF0023012373706B6A33632B8DB3862B78012B0DD013B1022B15D01FE0184BF361184B3362184B73620020C4F8700216E0BB
:401B8000134BF361154B3362154B73622023C4F8703214480BE0144BF361144B3362144B73625023C4F870320E4800E00D4833784BB13146284600F04DFDF8BD09487047A7
:401BC0000848F8BD0748F8BD646C081004000030291E0810B51F081069200810E92A08103D2C08100100EE00A5290810812D0810F92E08100023C0F8A4300123C0F8A030F3
:401C000000F50050036843F4803303600368704708B500F500531A6822F480321A601B68036A23F080030362084600F0E3FC08BDF8B506460C46174642F22003C150C358C4
:401C400011F0080F02D01146FFF76CFD14F0800F03D039463046FFF775FE14F0040F03D039463046FFF76AFD14F0010F03D039463046FFF75DFD14F0020F03D039463046BB
:401C8000FFF79EFD240A002509E014F0010F04D03A4629463046FFF7A9FD64080135002CF3D1F8BD08B50822FFF728FE08BD00BFF8B506460D461C4617462AB121B940F2AE
:401CC000C1310D48FFF726FC85B13A4629463046FFF7FAFDE36A83F0800323F00F0300F00F021343E3620F23A362F8BD8023E3620623A3620020F8BD646C081051B110B573
:401D00001C46FFF7FBFDE36A83F08003E3620B23A36210BD8022DA6202229A620020704703290AD8DFE801F0020406085A6070479A607047DA6070471A61704700EB81105B
:401D4000836B23F00F038363836B2C2303FB0122042382F84530704770B505460E460024CC868462C0F878420AE0324621462846FFF7E4FF05EB84130C22C3F800220134D6
:401D8000072CF2D93378CBB15A0102F06002022B01D142F01002C5F87022D5F870323378022B0BD10023C5F83832C5F83C325523C5F83032202241F2F023EA5070BD00BFE0
:401DC00070B506460D46002405E02A4621463046FFF7B4FF0134072CF7D970BD0B782BB1D0F8703243F08003C0F87032704700BF70B41378022B01D1958E01E04FF4007502
:401E0000D48E2318567816B100F0010000E000201844854203D30C60D086002000E0014870BC70470200EE002DE9F04182B006460D4617468B7903F00F035C1E4B78ABB191
:401E400001A9A888FFF7D4FF00B192E0019A91B22C2303FB0473A3F8421006EB841341F210215A5041F21822019999502B78002B7DD095F906802C2303FB0473002283F8F7
:401E80004520A97983F8381083F839206A88A3F84020EB7903F00303012B04D1B8F1000F06DA072207E0B8F1000F03DA0D2202E0052200E009222C2303FB047383F83A20A0
:401EC000002283F84420904507DA06EB841341F21822995841F210229950397801291CD12C2303FB04F338333B447A78304600F0B3FC00283DD1B8F1000F01DA112200E01E
:401F0000122206EB8413C3F80422D6F878220123A3401343C6F8783204E006EB84131022C3F80422B26A0123A3401343B3622C2303FB047797F83A30053B082B0AD8DFE8ED
:401F400003F0070907090B09090905000C2204E0002202E0002200E0082206EB8414A36B23F00F031343A363A36B002001E00020FFE702B0BDE8F08138B5044601F00F01B4
:401F80004D1E2946FFF7DAFEA16A0123AB40DA431140A162D4F878120A40C4F87822E362E36A04EB85143F23C4F80832D4F80832002038BDF0B4049D2C2404FB0154B4F8D6
:401FC0004040A4B29C424AD32C2404FB0154012684F8456094F8396000EB81101C02A4B2DFB23C434463C3F307243443046373B92C2303FB015191F83A30826B22F00F02CB
:4020000003F00F0313438363836B002028E06C789CB103F0010404EB5303002405E032F8147000F59156376001349C42F7D307E0165DC0F82062013400E000249C42F7D35F
:402040002C2303FB015191F83A30826B22F00F0203F00F0313438363836B002000E00148F0BC70470100EE0070B4039E00EB81110C6B240204F4E0604D6B4C6B45EA142407
:40208000E4B20443023C00203060A3421ED3FCB13460049B5B78A3B104F0010303EB5404034605E001F59150006822F813000133A342F7D300200CE0D1F82002D05401336E
:4020C00000E00023A342F7D3002002E0024800E0002070BC704700BF0100EE0070B5044616464D1E072D04D940F2EA211348FFF711FA2C2202FB056292F84500C0B204EB8F
:4021000085118B6B03F00F03083B052B14D8DFE803F014031313140B8B6B23F00F0343F008038B638B6B70BD8B6B23F00F0343F00C038B638B6B70BD052070BDE86C081003
:4021400038B515464C1E2C2303FB042393F838305BB21278012A03D9D90F022A0CD00FE0002B0FDA00EB841041F21823C25841F21023C250002006E0224600F0D1FB02E02A
:40218000044800E000202C2303FB0454002384F8453038BD0100EE000139072928D82C2303FB012393F84530DBB2042B22D010B42C2303FB012393F84540E4B2012C14BFD2
:4021C0000024012483F8444093F8383000EB811013F0800F01D08D2300E089238363836B2C2303FB0121032381F84530002003E003487047024870475DF8044B704700BF12
:402200000100EE000139072956D82C2303FB012393F84530DBB2042B50D010B42C2303FB0123002483F8394093F8443013F0FF0F19D02C2303FB0122012382F8453000EB16
:4022400081110B6B23F080030B6392F83A308A6B22F00F0203F00F03134323F080038B638B6B20462CE02C2303FB0122002382F8453000EB81110B6B23F080030B6392F8FC
:402280003A30053B082B0AD8DFE803F0070907090B09090905000C2204E0002202E0002200E008228B6B23F00F03134323F080038B638B6B002003E0034870470248704727
:4022C0005DF8044B704700BF0100EE00F8B505460F4614461E46022A04D94FF469712C48FFF718F92B6823F04053240704F040541C432C601FB324F0406444F000642C60A4
:40230000A30F04D140F2D7412148FFF703F9EB6823F47F6323F00F0343F00103EB602B689B0F04D140F20A511948FFF7F3F8EB6823F47F0323F47043EB60AE6022E044F058
:40234000806424F000642C60A30F04D140F2D7410F48FFF7DFF8EB6823F47F6323F00F03EB602B689B0F04D140F20A510848FFF7D1F8EB6823F47F0323F4704343F4805356
:40238000EB606E6029462846FEF7F0FBF8BD00BFAC6C0810F8B504460F46154603689B0F04D140F2A4413548FFF7B4F86E1EFF2E04D940F2A5413148FFF7ACF8E36823F0BD
:4023C0007F4343EA0663E3605FB323689B0F022B04D04FF4AE612948FFF79CF805F50063B3F5805F04D340F271512448FFF792F8236923F47F6323F00F03C5F30B052B4332
:40240000236123689B0F022B04D040F2A3511B48FFF780F8236923F47F0323F470432361F8BD23689B0F022B04D04FF4AE611348FFF770F8236923F47F6323F00F03236154
:4024400023689B0F022B04D040F2A3510B48FFF761F805F50063B3F5805F04D340F2A4510648FFF757F8226922F47F0222F47042034B03EA053515432561F8BDAC6C0810C7
:4024800000F0FF002DE9F041144652684D0901F01F0640B18BB26381236A5A60606A8B1BD11841600AE00DB1012300E000236381236A9A60636A891B11449960CDB1276A0B
:4024C0003B689B0F022B04D040F23D514748FFF721F805F1FF38B8F1FF0F04D940F23E514248FFF717F83B6923F07F4343EA08633B61C6B1676A3B689B0F04D140F2A441F1
:402500003A48FFF707F806F1FF38B8F1FF0F04D940F2A5413548FEF7FDFFFB6823F07F4343EA0863FB6025B9616A0846FEF71EFB0DE026B9216A0846FEF718FB07E0616A4D
:40254000206AFEF713FB216A606AFEF70FFB226A15B11EB9012102E0012100E00021136823F0807343EA016313606669A7690DB1256A00E0656A1E4B1B6893F833309F420F
:4025800004D340F2E1511948FEF7C4FF184B1B68B3F85A209119B3F85C2007FB0212D560B3F85A10B3F85C20314407FB02118A68120C12048A606569A46993F833309C4223
:4025C00004D340F2FA510948FEF7A4FF084B1A68B2F85A30B2F85C202B4404FB02F41A5942F000421A51BDE8F08100BFAC6C08102C4E0208F8B50646002423E02C2303FBC3
:4026000004631D6DB5F1FF3F1BD02C2303FB0463DF6C0E4B1B6893F833309D4204D340F212610B48FEF776FF084B1A68B2F85A30B2F85C203B4405FB02F55A5922F000424D
:402640005A510134072CD9D9F8BD00BF2C4E0208AC6C08102DE9F0439DB0814688460027484C84E009EB87035B68002B77D0464C04AD26460FCE0FC50FCE0FC596E80F00D2
:4026800085E80F0010AD30340FCC0FC50FCC0FC594E80F0085E80F0009EB8702536819682C2303FB0783D96451684968196551684969996551688969D965526812695A651D
:4026C00000221A6698F80030012B09D12C2303FB0783986DD0B104A9FEF79CF800241AE02C2303FB0783986D90B12C2303FB0783DB6D7BB110A9FEF78DF82C2303FB07834F
:4027000004A9D86DFEF786F8002404E01D4C02E01C4C00E01B4C00238DF80C308DF80D3009EB87035B685A6900921A7B8DF804209B6802932C2303FB07836A46196DD86CCF
:40274000FEF7A0F948B944B92C2303FB0783DA6C136843F00043136007E00A4C0AE02C2303FB07834FF0FF321A6501370024072F7FF678AF14B14046FFF73CFF20461DB082
:40278000BDE8F0830300EE00346D0810F8B504464789BFB2466985692D4B1B6893F833309D4204D340F212612A48FEF7B3FE284B1A68B2F85A30B2F85C20334405FB02F569
:4027C0005A5922F000425A510221E069FEF740FF6569A6690FB1276A00E0676A1C4B1B6893F833309E4204D340F2E1511948FEF791FE174B1B68B3F85A205119B3F85C2035
:4028000006FB0212D760B3F85A10B3F85C20294406FB02118A68120C12048A606569A46993F833309C4204D340F2FA510948FEF771FE074B1A68B2F85A30B2F85C202B4432
:4028400004FB02F41A5942F000421A51F8BD00BF2C4E0208AC6C08102DE9F84F1F781C789E69B6F1FF3F4ED0FF0904F00F04013C42B100EB841404F591544FF010094FF020
:40288000010807E000EB841404F508744FF020094FF000081D468A46D3F814B01D4B1B6893F833309E4204D340F212611A48FEF731FE184B1A68B2F85A30B2F85C205B4426
:4028C00006FB02F2995821F000419950234642463946286AFFF7FAFCBAF1020F16D14A463946286AFFF756FD234642463946686AFFF7ECFC29892A4689B23846FFF7C2FD8C
:402900000020BDE8F88F0548BDE8F88F0020BDE8F88F00BF2C4E0208AC6C08100300EE00F8B5D0F83832D34013F0010F34D016460F460546530003F00E0343F00103036527
:40294000036D46F2A81403E00120FEF7D7FD013C2B6D13F0100F01D1002CF5D19CB10122B240D5F83C32D5F83C1243EA1123DBB217B123EA020200E01A4342EA0222C5F8A2
:402980003C22002000E005482B6D23F001032B652B6D00232B65F8BD0148F8BD0400EE000200EE002DE9F04383B080460E4617468C7904F00F04013C2C2303FB04F3383362
:4029C000D5184B78B3B1D0F838220123A3401343C0F838323A4601A9B088FFF709FA034600B17CE0396B019A11442C2202FB0472D16300E03B4B3278002A6DD096F906904C
:402A00004FEAD9712C2303FB0473002283F84520B07983F8380083F839207288A3F84020F37903F00303012B04D1B9F1000F06DA072207E0B9F1000F03DA0D2202E00522CB
:402A400000E009222C2303FB047383F83A20002283F8442022464046FFF762FF00283DD12B467A7839784046FFF7F6FE0346B0BBB9F1000F01DA1D2200E03C2208EB841165
:402A8000C1F80422D8F828000122A2401043C8F82800D8F878020243C8F878222C2202FB047494F83A20053A082A0AD8DFE802F0070907090B09090905000C2004E00020E6
:402AC00002E0002000E008208A6B22F00F0202438A638A6B184602E0184600E0FFE703B0BDE8F0830100EE002DE9F0411C46069E2C2303FB0163B3F840309BB2A342C0F074
:402B00008E800D462C2303FB016393F8391000EB851723029BB2E0B203437B63C4F307230B433B6394B92C2303FB0565012385F8453095F83A30BA6B22F00F0203F00F03D5
:402B40001343BB63BB6B0020BDE8F08173781BB104F0010303EB54042C2303FB0563996D4A60D3F85880D8F800309B0F04D140F2A4412E48FEF7CEFC013CFF2C04D940F246
:402B8000A5412A48FEF7C6FCD8F80C3023F07F4343EA0464C8F80C402C2303FB0563D3F84C801C6D224B1B6893F833309C4204D340F2FA511D48FEF7ADFC1D4B1A68B2F808
:402BC0005A30B2F85C20434404FB02F41A5942F000421A51D7F8003243F00203C7F80032D7F80032D7F8003223F00203C7F80032D7F8003246F2A81403E00120FEF77EFCBA
:402C0000013C2C2303FB056393F84530DBB2012B01D0002CF1D12CB90648BDE8F0810648BDE8F0810020BDE8F08100BFAC6C08102C4E02080600EE000100EE002DE9F8469D
:402C4000099C00EB81152E6B360206F4E066686B6F6B40EA1720C0B20643023E0020089F3860B3427AD3002E7BD0637823B106F0010909EB560900E0B1460F462C2303FB7F
:402C80000143996D8A60D3F858A0DAF800309B0F04D140F2A4413648FEF73CFC09F1FF39B9F1FF0F04D940F2A5413148FEF732FCDAF80C3023F07F4343EA0963CAF80C30E5
:402CC0002C2303FB0743D3F84CA0D3F85090294B1B6893F83330994504D340F2FA512448FEF718FC234B1A68B2F85A30B2F85C20534409FB02F953F8092042F0004243F84C
:402D000009202C2303FB0743012283F84520D5F8003243F00203C5F80032D5F80032D5F8003223F00203C5F80032D5F8003246F2A81503E00120FEF7E1FB013D2C2303FB51
:402D4000074393F84530DBB2012B01D1002DF1D155B1089B1E600020BDE8F8860648BDE8F8860020BDE8F8860448BDE8F88600BFAC6C08102C4E02080100EE000500EE00AD
:402D80002DE9F843089D2C2404FB0154B4F84040A4B29C42C0F0A7802C2606FB015696F8397000EB8114180280B25FFA83FE4EEA00006063C3F3072038432063012086F846
:402DC000450063B996F83A30A26B22F00F0203F00F031343A363A36B0020BDE8F8831F4696460E462C2202FB0152136E2BB110463A467146C06B984707E02C2000FB0150F5
:402E00003A467146C06B03F0BCFC2C2303FB0653B3F842309BB29F420AD02C2202FB06F101F138022A4439460120FFF72BFB51E02C2303FB0653DF6CD3F85080B3F8423048
:402E40009BB21F2B05D92C2303FB0653D3F8589004E02C2303FB0653D3F85C90234B1B6893F83330984504D340F2E1512048FEF751FB1E4B1B68B3F85A20D119B3F85C2081
:402E800008FB0212C2F80C90B3F85A10B3F85C20394408FB02118A68120C12048A602C2101FB0651CE6C0D6D93F833309D4204D340F2FA510E48FEF72DFB0C4B1A68B2F85B
:402EC0005A30B2F85C20334405FB02F55A5942F000425A51D4F8003243F00103C4F800320020BDE8F8830348BDE8F8832C4E0208AC6C08100100EE00F8B5069F00EB8110A3
:402F0000046B240204F4E066456B446B45EA1424E4B23443023C00203860A3421AD3DCB110462C23079A03FB01231B6E3BB12C22079D02FB01512246C96B984707E02C23C7
:402F4000079A03FB01212246C96B03F01AFC3C600020F8BD0148F8BD0020F8BD0100EE00014B1860704700BF2C4E0208002800F0AC8070B40446002A00F0A98092F8283023
:402F80000BB1012500E00025137F0BB1022300E000231D431669B60406F4802645EA060395682D0405F440351D431668300600F0E0602843136B556B43EA45031B0503F42E
:402FC00040130343906B43EA8000052E03D1D3681B029BB202E053681B029BB20343081D800123501368062B08D104EB81130120C3F808013F20C3F828011DE0936843B95A
:4030000004EB81130020C3F808013120C3F8280112E0012B08D1506904EB8113C3F808011C20C3F8280107E004EB81130120C3F808011220C3F82801106A04EB8113C3F8C0
:403040000C01506AC3F810015069C3F814019069C3F81801136EB3F1FF3F17D0106C00F00F00966C360206F470663043156D2D0405F470250543906D000380B228431B01E3
:40308000DBB2034304EB8110C0F82031D36B03F00303566C360106F030063343D56C2D0205F440752B43506D8001C0B21843D36D9B0003F00C03034304EB8114C4F8243193
:4030C000D36AC4F83831002002E002487047014870BC70470100B60005280AD8DFE800F0050B03050707002070470448704704487047034870470348704700BF05002200D5
:40310000010022000400220070B5D1F89851AC6E03232B700023EB70AB702B71EE6D66B12B46002211461046B04706E063681B6813B12946A06898472468002CF6D170BDBC
:403140000378DB090B700378C3F341134B70037803F01F038B704378CB708378C27843EA02238B800379427943EA0223CB808379C27943EA02230B81704700BF0378DBB2BB
:40318000042B10D1C16EC3780A6A22F07F0203F07F0313430B62C37813F0FF0F01D1032300E005230370704738B58288130A013B0E2B69D8DFE803F0080F2C686868686811
:4031C00068686868686820004B6D1B68C36012238382002038BDD2B24B6D197B8A4255D21B6953F822305A68C2609378D27843EA02238382002038BD4B6D5B68002B47D04C
:40320000C3609A78DB7842EA03238382002038BD0446D2B2486D8368EE2A04D15B68DBB11B6800202BE09D68CDB11B78D3B19A421BD255F82230DAB10068007C824219D123
:40324000D3B98B6D23B198470346B8B9114816E001F10D03002012E000230E480FE000230C480CE000230B4809E00023094806E0002004E0002002E0002000E0002040B957
:40328000E3601B78A38238BD024838BD014838BD004838BD020022000431C1600123838200207047C2880B78DBB2062B12D110B44B6D1C690B7903F18043013B54F8233065
:4032C0001B789A4208D20A440532C26001238382002002E00248704701485DF8044B7047020022000379CB7004230B70002070472DE9F04F85B088464B6D1B694FEA800A63
:4033000053F820301A7801929D684FF00009334803465CE0D8F85420126952F80A2092684FEA890652F82920178901244BE017F0010F46D000208DF8080001238DF809304C
:40334000A646BC4607462BE0526852F823201268917801F00F0BDE4518D17FB910B901238DF808308DF80E10D3788DF80F309388ADF80A30ADF80C30012710E0BDF80C10CE
:40338000938899420BD2ADF80C3008E0013300E00023626852F82020117A8B42D4D30130AC5923789842F3D367467446D8F87020D36902A9D8F86C009847034608B1074B59
:4033C00003E07F080134002FB1D109F10109019A91459FD3184605B0BDE8F08F0600220038B3F0B583B0064615460F460024134B1BE057F824301B6800228DF801200122EA
:403400008DF800209A788DF80620DA788DF807209B88ADF802302A6FD3696946E86E9847034608B1054806E00134B442E1D3184601E00020704703B0F0BD00BF020022000C
:403440002DE9F04180460F4614461E4600220AE063689D6835B13346A26839464046A847024610B92468002CF2D11046BDE8F08170B504460E461546074A09E06368DB6895
:403480002BB12A46A16830469847024610B12468002CF3D1104670BD0200220070B504460E461546074A09E063681B692BB12A46A16830469847024610B12468002CF3D160
:4034C000104670BD020022008B7E012B15D1CA7803799A4213D1CB881A1F012A11D8042B01D1836800E0C3686BB1CB601A785B7842EA03238B8200207047044870470348C5
:403500007047024870470148704700BF0200220070B506460C464B6D9B68586820B13146FFF7D2FF054600E0044D2DB1236E1BB12246002130469847284670BD020022004F
:4035400008B54B6E13B10A4600219847004808BD0200220038B590F84E30002B43D100F134050446036FB0F84820016CC06EFEF7C5FB82B2B4F848309A4236D8216C11FA3E
:4035800080F02064B4F84A101144A4F84A109B1A9BB2A4F8483053BB94F85030C3B1002384F85030636C236494F83530012B02D0022B07D00EE022462946A06EFFF76EFF84
:4035C000054608E021462846FFF7BAFF054602E0084D00E0074D5DB9236F00221146E06EFEF766FB04E0034D02E0024D00E00025284638BD0200220010B50C46D1F898012F
:40360000FFF7A8FF08B10323A36210BD30B583B0044690F84E30012B27D1B0F84820AAB990F84F305BB1002502A901F8015D036F2A46C06EFEF73CFB84F84F5017E0036F43
:4036400000221146C06EFEF759FB10E0036F016CC06EFEF72DFB80B2236C03442364B4F84830181AA4F8480001E0FFF787FD002003B030BD08B5D1F89801FFF7C7FF08BDBC
:40368000F8B50B78DBB2062B02D0C388002B3CD104468378012B25D01BB1022B04D01C4827E08D78002024E0C68806F00F060F6F013E072E0CD804D940F602011548FDF76A
:4036C00029FF2C2303FB067696F84520D2B200E00522131FDBB2012B07D9032A07D10125002006E00025284603E0094801E00025284658B923691D702369C5F307255D70BD
:403700002369E3600223A382F8BD0148F8BD00BF02002200046F08102DE9F8430D4684885CB9096FE86EFEF74BFB01236B70E4B22C7105232B70002651E0A0464B6D1B7B01
:403740009C424BD804F1FF390023C1F80530C1F80930096FE86EFEF7FFFA29464846FFF7C7FD0646B0B9EF6D2FB12B46002221460120B84706466EB9AF6E09E07B685B687B
:403780002BB12A46B96840469847064610B93F68002FF3D1E6B96B6D1B6953F829305B68DF79296FE86EFEF719FB17F0400F04D0AB7843F00103AB7003E0AB7803F0FE033E
:4037C000AB7001236B70E4B22C7106232B7006E0296FE86EFEF7F4FA024E00E0014E3046BDE8F88302002200A8B1F8B5064615460F4600240A4B0AE057F824301B682A6FA4
