:020000041008E2
:4000000000780408EB0208100D00000051030810510308105103081051030810000000000000000000000000000000004D0308104D030810000000004D0308104D030810DA
:400040004D0308104D0308104D0308104D0308104D0308104D0308104D0308104D0308104D0308104D0308104D0308104D0308104D0308104D0308104D0308104D03081000
:400080004D0308104D0308104D0308104D0308104D0308104D0308104D0308104D0308104D0308104D0308104D0308104D0308104D0308104D0308104D0308104D030810C0
:4000C0004D0308104D0308104D0308104D0308104D0308104D0308104D0308104D0308104D0308104D0308104D0308104D0308104D0308104D0308104D0308104D03081080
:400100004D0308104D0308104D0308104D0308104D0308104D0308104D0308104D0308104D0308104D0308104D0308104D0308104D0308104D0308104D0308104D0308103F
:400140004D0308104D0308104D0308104D0308104D0308104D0308104D0308104D0308104D0308104D0308104D0308104D0308104D0308104D0308104D0308104D030810FF
:400180004D0308104D0308104D0308104D0308104D0308104D0308104D0308104D0308104D0308104D0308104D0308104D0308104D0308104D0308104D0308104D030810BF
:4001C0004D0308104D0308104D0308104D0308104D0308104D0308104D0308104D0308104D0308104D0308104D0308104D0308104D0308104D0308104D0308104D0308107F
:400200004D0308104D0308104D0308104D0308104D0308104D0308104D0308104D0308104D0308104D0308104D0308104D0308104D0308104D0308104D0308104D0308103E
:400240004D0308104D0308104D0308104D0308104D0308104D0308104D0308104D0308104D0308104D0308104D0308104D0308104D0308104D0308104D0308104D030810FE
:400280004D0308104D0308104D03081010B5054C237833B9044B13B10448AFF300800123237010BD0C49020800000000D8710810084B10B51BB108490848AFF300800848AD
:4002C000036803B910BD074B002BFBD0BDE81040184700BF0000000010490208D8710810D8420208000000007047FFF7FDFF72B6104C114DAC4209DA21686268A368043BCE
:40030000A2BFC858D050FAE70C34F3E70B490C4A00209142BCBF41F8040BFAE709480A490860BFF34F8F00F061FA00F03BFA00F067F8FEE7DC710810F47108100C4902085F
:40034000DC4E02080040020808ED00E0FEE7FEE700B504207146084202D0EFF3098001E0EFF30880043001F011F9FEE708B5044842F23C03C158034A01F05AFC08BD00BF3D
:4003800000003F40904C020808B5044842F23803C158034A01F04CFC08BD00BF00003F40904C020808B5044842F23403C158034A01F03EFC08BD00BF00003F40904C0208EA
:4003C00070B505460E461446082A04D940F20931094801F09FF83269E24002F00102D3B2064909788B4204D00AB185F00105034A1370284670BD00BF006808102849020888
:4004000030B583B06E4B01936E4B00936E4B6F4A6F49704803F0C4FB00B1FEE7684A6E496E4803F0DDFE00B1FEE76D4C6D49204601F012F86C4904F1080001F00DF86B4932
:4004400004F1100001F008F8694B4FF400421A614FF480321A614FF400321A6162B603F0FFFE04F093FB06F0AFF8554A0021012003F014FC5F4C04225F496078FFF7A0FF81
:40048000607004F013FB0446002840F08F80594B5B7803B90124012C04D94FF44A71574801F038F81CB90222554B5A6002E00222534B9A604F4B5B781BB908224E4B5A60EA
:4004C00002E008224C4B9A6003F0E4FE002004F00BF900283DD0002004F01AF90446854209D9444B5B780BB9012300E00223F621444AD15414E0854209D23E4B5B780BB954
:40050000012100E002210A223E4B5A5408E0394B5B780BB9012100E002210022394B5A54012004F0E1F8003018BF0120314DA870022004F0D9F8003018BF0120E870204B39
:400540000093002303222F49012003F009FC254627E0012004F0C8F8003018BF0120254CA070022004F0C0F8003018BF0120E070A37813B918B1022202E0012200E00022FE
:40058000204B1A701B4B5B780BB9012200E002221C4900238B540A4A00920322012003F0DFFB04F0E1F904F0F1FA63E70223164A536002F5A062536008220F4B5A6059E769
:4005C0001C4C0208C8680810D8680810904C02089468081000003F40DC4B0208D0680810E8670810A5030810890308106D03081000E100E02849020800003240006808106E
:4006000080053240D84B02088000324008B5012000F0E8FE08BD00BF704700BF5A4AD2F8803303F00F0303F1D00152F8212012F0070202D0042A02D00FE0544911E003F132
:40064000C002514951F8222002F01F02112A06D0132A04D04FF4FA4103E04D4901E04FF400418BBB484BD3F8902502F00100D3F88825C2F30172D3F8883513F0405F07D015
:40068000414BD3F88835C3F30173012B02D102E0012300E0002303B108B9032A46D13A48D0F88025C2F31103D0F88425C2F30C02D0F88005C0F300600130B1FBF2F202FB31
:4006C00003F2B2FBF0F131E0012B2FD12E4BD3F8402602F00100D3F80026C2F30172D3F8003613F0405F07D0274BD3F80036C3F30173012B02D102E0012300E0002303B1B1
:4007000008B9032A12D12048D0F8002602F07F02D0F80036C3F30423D0F80006C0F3044002FB01F2B2FBF3F2B2FBF0F1164BD3F88033C3F3011321FA03F216490A6016488F
:40074000D0F89030C3F3072301330069000E0130B2FBF0F04860B2FBF3F38B60CB6003F5742202F23F220D48A0FB0202C2F387420A7403F2E7330A4AA2FB03239B094B610E
:40078000DB038B61704700BF0000264000127A0000366E018C4202080000214083DE1B43D34D621008B50D4802F0DAFBFFF734FFFFF734FF00221146042000F0DBFB0848FA
:4007C00000F06EFC074B1B6893F8513013B1064800F0D6FC00F09CFA08BD00BF4C6E0810304902082C4E02084068081008B500F028FF074AD2F8883043F47003C2F8883084
:40080000BFF34F8FBFF36F8F00F01FFF08BD00BF00ED00E0002800F0248138B50546002900F021810C460B78032B03D95721914800F070FE6378032B03D958218D4800F0B8
:4008400069FEA378032B03D959218A4800F062FE2379032B03D95A21864800F05BFEA379012B03D95B21834800F054FEE379012B03D95C217F4800F04DFEE378012B03D925
:400880005D217C4800F046FE6379022B03D95E21784800F03FFE237A032B03D95F21754800F038FE237803F003016278930003F00C030B43A278120102F0300213432279D6
:4008C0009201D2B21343A279920602F080621343E279D20602F000621343E278120602F0807213436279120702F040521343227A43EA82732B60E3686B602369AB60237AC4
:40090000032B00F2B280DFE803F002063388E36AEB60002038BD636903F50063B3F5805F03D37821534800F0F5FDA36903F50063B3F5805F03D379214E4800F0EBFDE36989
:40094000013BFF2B03D97A214A4800F0E3FD6369C3F30B02A369484901EA03331A43E369013B42EA0363EB60E36A2B61002038BD636903F50063B3F5805F03D387213D488A
:4009800000F0C8FDA36903F50063B3F5805F03D38821384800F0BEFDE369013BFF2B03D98921344800F0B6FD236A03F50063B3F5805F03D38A212F4800F0ACFD636A03F5CE
:4009C0000063B3F5805F03D38B212A4800F0A2FDA36A013BFF2B03D98C21264800F09AFD6269C2F30B01A269234B03EA02320A43E169013942EA0162EA60226AC2F30B027B
:400A0000616A03EA01331343A26A013A43EA02632B61E36A6B61002038BD184B1B6893F82A30012B23D9636903F50063B3F5805F03D3A1210F4800F06DFDE369013BFF2B45
:400A400003D9A2210B4800F065FD6369C3F30B03E269013A43EA0263EB60E36A2B61002038BD07487047064838BD054838BD044838BD00BFE469081000F0FF002C4E0208EE
:400A800001004E00002860D0F8B50346002A5ED0106800285DD03148006890F83300884259D91E4614460D469368032B03D9EF212B4800F02FFD2768284B1B6893F83330B4
:400AC0009D4204D340F2E151264800F023FD234B1A68B2F85A309919B2F85C3005FB0313DF60B2F85A10B2F85C30314405FB03118B681B0C1B048B60B2F85A301E44B2F8C6
:400B00005C1005FB01F123792BB192F85F70012303FA07F700E00027A06892F85E50A8400322AA4000EA02033B43227B12B14FF0004200E000221343627B0AB1042200E0E5
:400B40000022134373500020F8BD074870470648F8BD0548F8BD0448F8BD00BF2C4E0208E4690810206A081001004E0003689B0F032B08D8DFE803F002040604C1607047FB
:400B800001617047416170471F4B98422DD00CD840282ED003D8E8B1102828D02FE0802829D0B0F5807F28D029E0184B984228D006D8B0F1204F0DD0154B984212D01EE025
:400BC000144B98420AD00133984209D0023B984215D101E0002070470F4870470F4870470F4870474FF4A0007047074870470D4870470D4870470D487047034870470C4802
:400C000070474FF4A400704706005200010000F0090000A0040000F0010052000200520003005200010050000200500005005200FF00520038B5124B1B6893F83130012B4D
:400C400004D840F2C3110F4800F064FC0C4B1D682A6AB5F8B03013442C46D5F8B420D358002B0BDB084B1868FFF78EFF6B6801229A6063689B68002BFBD138BD034838BD08
:400C80002C4E02085C6A0810F44A0208020050001A4B186128B102230370FF23437000234380174B1B6893F850202AB300B583B0B3F93830ADF800300023019311496846E1
:400CC00000F0CAFBBDF90030002B08DB590903F01F03012202FA03F30B4A42F82130084B1B6893F8513023B102220849012000F0F3FA03B05DF804FB704700BFF44A0208F1
:400D00002C4E02084943020800E100E00144020808B50248FFF7BCFF08BD00BF084B02082DE9F04104460D46174698469DF81860072903D9D921354800F0ECFB37F00F0331
:400D400003D0DA21314800F0E5FBB8F1010F03D9DB212E4800F0DEFB36F01F0303D0DC212A4800F0D7FB22680123AB4022EA030308F0010808FA05F843EA08032360244B6B
:400D80001B6893F87D100B59A8000F22824023EA020207F00F0303FA00F717430F51072D04D94FF422711B4800F0B4FB36F01F0304D040F28921174800F0ACFB144B1B6818
:400DC0009A69A41AE4095B6924011919032D0DD81959ED001F22AA4021EA020206F01F0606FA05F515431D51BDE8F081043D4A68ED001F23AB4022EA030306F01F0606FA51
:400E000005F51D434D60BDE8F08100BF9C6A08102C4E0208DC6A081038B50B4B1B68D3F8B4301B58002B0DDA0D4604460B0C1B0423B140F2D521054800F06CFBA9B261604D
:400E4000002038BD024838BD2C4E02081C6B081001008A0038B50368002B01DA002300E0094B73B90D460446C2600B0C1B0423B140F2BB21054800F04DFBA9B2A1600020B7
:400E800038BD014838BD00BF01008A001C6B081038B504460D4619B99921084800F03AFB074B1B68D3F8B4301B59002B03DAE3682B60002038BD034838BD00BF5C6B0810C2
:400EC0002C4E020801008A00254B1B6893F8313083423AD900293AD00B6813F01F0F38D170B50D4604461E4B1B6893F83130984204D340F2C3111B4800F00CFB184B1B68BB
:400F0000186AB3F8B03004FB0304174E34602A68D2080021686805F03FFC00212046FFF77BFF346825B940F293310E4800F0F2FA2A4600212046FFF78DFF60B900210A4B77
:400F40001868FFF769FF40B970BD084870470748704706487047064870BD054870BD00BF2C4E02081C6B08100C4B020803018A0001018A0010B504461346B2B9A9B9124B77
:400F80001B6893F83130984204D340F2C3110F4800F0C0FA0C4B1B681A6AB3F8B03004FB03240B4B1C60002010BD43B149B1084A51609360111D2046FFF786FF10BD05482F
:400FC00010BD044810BD00BF2C4E02081C6B08100C4B020803018A002DE9F0411B4B1B68DC68236883422CD90D464609A0EB4610012303FA00F819B900F023FB074600E0C8
:401000000027124B18680368002B01DA002300E00F4B83B9626852F8263018EA030F05D023EA080342F82630002400E0094C0021FFF7F2FE00E0084C25B9384600F005FBC7
:4010400000E0064C2046BDE8F08100BF0C4B020801008A00020188000301880004018A000B4B1B68DB681A6882420CD94109A0EB4110012202FA00F05B6853F8213018423C
:4010800003D004487047044870470448704700BF0C4B02080101880004018A0000018800024B1B680BB9014B18607047184B02082DE9F8430446884691461D46089F2C4B55
:4010C0001B681BB9B5212B4800F024FA284B1B682C2000FB04F01C18EEB21E50C5F3072363602D0CA560244B1B6893F831309E4204D340F2C311214800F00CFA1E4B1B6806
:40110000196AB3F8B02006FB02162661666893F832309E4204D340F2DF11184800F0FAF9154B1B681D6A803605EB46156561A668330C1B0423B14FF4FF71104800F0EAF9EB
:40114000330C1B0423B140F2FF110C4800F0E2F9B3B243EA0646AE60C4F81C90C4F820800023A36117B1B7F90030A381BDE8F883184B02089C6B08102C4E02081C6B08106A
:40118000F0B58FB0044618B95221274800F0C2F9A369072B03D95621234800F0BBF9E36A1BB95821204800F0B5F9236B1BB959211D4800F0AFF907AD04F114060FCE0FC516
:4011C00037682F6002AD26460FCE0FC533682B60164B1B68B3F93620079B1344ADF83030089B0D93A26AE16A0CAD00953B460A98FFF75EFF00210091069B0A460598FFF757
:4012000057FF216B284600F027F9BDF93030002B08DB590903F01F03012202FA03F3044A42F821300FB0F0BD9C6B08102C4E020800E100E0F8B506460F461D4614461AB917
:40124000FD211F4800F066F91E4B1B681BB9FE211B4800F05FF91B4B1B682C2101FB063001FB07314B68012202FA03F31B04466802FA06F60269EAB18F69EFB91268002A9D
:4012800001DA002200E0104AC2B92288134323600369DC6001238B614D620469330C1B0423B140F2BB21094800F034F9B2B2A2600020F8BD0648F8BD0648F8BD0548F8BD34
:4012C0009C6B0810184B020801008A001C6B081004028A0007028A00F8B505460F4616460E4B1B6823B94FF4AF710D4800F012F90A4B1B682C2404FB0534236A23B94FF4F5
:40130000B171074800F006F9E369B34204D9236A43F826700020F8BD0248F8BD184B02089C6B08100A028A0070B582B000230193044620B940F2D111284800F0EBF82369C7
:4013400023B94FF4E971254800F0E4F8636923B940F2D311214800F0DDF8236A23B94FF4EA711E4800F0D6F86369DD682A0C20D012041A601B682069194B1B68D3F8B4303B
:40138000C358002B15DA01A9FFF782FD60B9019803681E0CDBB2E269934206D2226A52F8233013B1984700E0002631462069FFF733FDADB275B16369ADB21D601B68636A98
:4013C0001BB198470023636202E0A36A03B198470023A36163691B6802B070BD9C6B08102C4E020810B50446074B1B6823B940F2B111064800F08EF8034B1B682C2000FB50
:401400000430FFF791FF10BD184B02089C6B081038B50D4B9A680D4B9A420FD10D46044621B940F237110A4800F074F804F11003064A52F8230042F8235038BD1030054BA8
:4014400053F8200038BD00BF00ED00E000400208DC6B08100000081048B338B504460D464368072B03D93221134800F053F8B4F900306268002B08DB5201D2B203F1604375
:4014800003F5614383F8002305E003F00F035201D2B20A49CA540A4B9A680A4B9A4208D12946B4F90000FFF7B3FF002038BD06487047002038BD00BFDC6B081014ED00E06D
:4014C00000ED00E0004002080100560010B5044605E0084B186800F0ABF8A4F50044B4F5004FF6D8044B186800FB04F000F0A0F810BD00BFA4420208A042020808B5034BC8
:401500001B7800FB03F000F093F808BD9C42020801BEFEE738B50D46044C18220146204605F042F9A5610020FFF7F2FF7848020810B44FF0B05191F80A2691F8073603F06A
:4015400001031B0643EA426391F8062643EA024391F8052643EA022391F8044691F8030691F80226120442EA006291F8010642EA002291F800060243002044EA0301104336
:401580005DF8044B704700BFFEE700BF08B50268254BDA6142681A6282685A62C2689A620269DA6242691A6382695A63C2699A631E4A916AD963D16A1964516A5964516B7F
:4015C0009964926BDA64F1EE103A13F0900F27D0026A154B1A65426A5A65826A9A65C26ADA65026B1A66426B5A66826B9A66C26BDA66026C1A67426C5A67826C9A67C26CB6
:40160000DA67026DC3F88020426DC3F88420826DC3F88820C26DC3F88C20026EC3F89020FFF7B2FF08BD00BF7848020800ED00E00230800803D001300238FCD100BF00BFC9
:401640007047EFF3108072B6704780F31088704770B505460C462F4B1A68B2F86A10B2F86E309B08013B0B4343F0804330EA030304D04FF4A1712848FFF74CFF254B1B6866
:4016800093F82F30012B01D1FF2C09D944B1022C06D0FF2C04D040F243111F48FFF73AFF3CB31C4B1A689068B2F868104358002B2ADBB2F86A3043F0804343F0FF031D4098
:4016C00045F0004692F82F30012B06D1240404F47F0426434650002070BD022C04D145F020454550002070BDFF2C0FD14650002070BD084B1B689A68B3F86830D1580029BA
:4017000006DA0020D05070BD044870BD044870BD024870BD2C4E0208206C08100200CE000100CE0008B58B6903B1984708BD00BF08B54B6903B1984708BD00BF38B5D0F827
:40174000A03013F0100F3AD00D46044613F0800F12D003F00F03012B1CD1D0F8A030C0F8A030D0F8A03013F0800F15D10023CB628B689847012312E013F0400F03D0CB687E
:40178000984701230BE013F0200F07D00B699847012304E0002302E0002300E0002373B1D4F8A03013F0800F09D1EB6A43EA0323C4F8A430AB6AC4F8A030D4F8A03038BD16
:4017C00000F500531B6813F4803F0DD010B504464B6898470023C4F8A4300123C4F8A03080232362236A10BD704700BF70B501238B40C362C36A00EB81152B6B1B0203F4EE
:40180000E0666C6B6B6B44EA1323DBB23343D5F8044214F0200F02D0023B002B52D12C2303FB012393F83A30DBB2072B09D02C2303FB012393F83A30DBB2052B03D1012392
:4018400002E0012300E0002343B92C2303FB012393F8394084F0800483F839402C2303FB0123022483F845409C6C5CB3AB6B13F0400F01D1002600E001262C2303FB01237C
:4018800093F83A30DBB2072B09D02C2303FB012393F83A30DBB2052B03D1012302E0012300E0002363B92C2303FB012393F83910C9B22B6B03F08003994201D146F00206A4
:4018C0003146A04770BD00BF10B4082A00D9082200230CE013F0010F03D1CC5C40F8234004E0CC5C44EA042440F8234001339A42F0D818465DF8044B704700BF30B4D0F8F3
:40190000A430D0F8A44043EA142404F00F04023CA24200D8144600230EE013F0010F03D150F82320CA5406E050F8232050F8235042EA1522CA5401339C42EED8184630BCF7
:40194000704700BF2DE9F04781468846D0F87C32D0F87C4243EA1424E4B20027A8E014F0010F00F0A38009EB8716D6F80432D6F8045243EA1525EBB2D6F808521D402C20B4
:4019800000FB07F038304044C6F80852D6F8083215F0010F15D0D6F8003223F00103C6F800322C2303FB0783012283F8452093F83A30B26B22F00F0203F00F031343B363A8
:4019C000B36B15F0020F05D02C2303FB0783022283F8452015F0200F58D000F0D7FE2C2303FB078393F83A30DBB2072B09D02C2303FB078393F83A30DBB2052B03D10123FD
:401A000002E0012300E0002343B92C2303FB078393F8392082F0800283F839202C2303FB0783022283F84520D3F848A0BAF1000F2CD0B36B13F0400F01D1002100E0012175
:401A40002C2303FB078393F83A30DBB2072B09D02C2303FB078393F83A30DBB2052B03D1012302E0012300E0002363B92C2303FB078393F83920D2B2336B03F080039A422D
:401A800001D141F0020142464846D04715F0040F04D040F26F210948FFF73CFD15F0080F04D040F27A210548FFF734FD64080137002C7FF454AFBDE8F08700BF646C08108B
:401AC00000287BD0F8B50446002979D0002A79D016460D460B78022B03D957213A48FFF719FD40F20113C4F87432A36C03F00403A3640A23C4F8303304F50057334B3B60E9
:401B00003B680220FFF7FAFC3B6823F004033B603B68636A03F0080343F002036362EA6A42F23003E250062242F22803E250002242F21003E25095F830301BB1032242F2DE
:401B40001003E2502B78337095F83130012B14BF0023012373706B6A33632B8DB3862B78012B0DD013B1022B15D01FE0184BF361184B3362184B73620020C4F8700216E0BB
:401B8000134BF361154B3362154B73622023C4F8703214480BE0144BF361144B3362144B73625023C4F870320E4800E00D4833784BB13146284600F04DFDF8BD09487047A7
:401BC0000848F8BD0748F8BD646C081004000030291E0810B51F081069200810E92A08103D2C08100100EE00A5290810812D0810F92E08100023C0F8A4300123C0F8A030F3
:401C000000F50050036843F4803303600368704708B500F500531A6822F480321A601B68036A23F080030362084600F0E3FC08BDF8B506460C46174642F22003C150C358C4
:401C400011F0080F02D01146FFF76CFD14F0800F03D039463046FFF775FE14F0040F03D039463046FFF76AFD14F0010F03D039463046FFF75DFD14F0020F03D039463046BB
:401C8000FFF79EFD240A002509E014F0010F04D03A4629463046FFF7A9FD64080135002CF3D1F8BD08B50822FFF728FE08BD00BFF8B506460D461C4617462AB121B940F2AE
:401CC000C1310D48FFF726FC85B13A4629463046FFF7FAFDE36A83F0800323F00F0300F00F021343E3620F23A362F8BD8023E3620623A3620020F8BD646C081051B110B573
:401D00001C46FFF7FBFDE36A83F08003E3620B23A36210BD8022DA6202229A620020704703290AD8DFE801F0020406085A6070479A607047DA6070471A61704700EB81105B
:401D4000836B23F00F038363836B2C2303FB0122042382F84530704770B505460E460024CC868462C0F878420AE0324621462846FFF7E4FF05EB84130C22C3F800220134D6
:401D8000072CF2D93378CBB15A0102F06002022B01D142F01002C5F87022D5F870323378022B0BD10023C5F83832C5F83C325523C5F83032202241F2F023EA5070BD00BFE0
:401DC00070B506460D46002405E02A4621463046FFF7B4FF0134072CF7D970BD0B782BB1D0F8703243F08003C0F87032704700BF70B41378022B01D1958E01E04FF4007502
:401E0000D48E2318567816B100F0010000E000201844854203D30C60D086002000E0014870BC70470200EE002DE9F04182B006460D4617468B7903F00F035C1E4B78ABB191
:401E400001A9A888FFF7D4FF00B192E0019A91B22C2303FB0473A3F8421006EB841341F210215A5041F21822019999502B78002B7DD095F906802C2303FB0473002283F8F7
:401E80004520A97983F8381083F839206A88A3F84020EB7903F00303012B04D1B8F1000F06DA072207E0B8F1000F03DA0D2202E0052200E009222C2303FB047383F83A20A0
:401EC000002283F84420904507DA06EB841341F21822995841F210229950397801291CD12C2303FB04F338333B447A78304600F0B3FC00283DD1B8F1000F01DA112200E01E
:401F0000122206EB8413C3F80422D6F878220123A3401343C6F8783204E006EB84131022C3F80422B26A0123A3401343B3622C2303FB047797F83A30053B082B0AD8DFE8ED
:401F400003F0070907090B09090905000C2204E0002202E0002200E0082206EB8414A36B23F00F031343A363A36B002001E00020FFE702B0BDE8F08138B5044601F00F01B4
:401F80004D1E2946FFF7DAFEA16A0123AB40DA431140A162D4F878120A40C4F87822E362E36A04EB85143F23C4F80832D4F80832002038BDF0B4049D2C2404FB0154B4F8D6
:401FC0004040A4B29C424AD32C2404FB0154012684F8456094F8396000EB81101C02A4B2DFB23C434463C3F307243443046373B92C2303FB015191F83A30826B22F00F02CB
:4020000003F00F0313438363836B002028E06C789CB103F0010404EB5303002405E032F8147000F59156376001349C42F7D307E0165DC0F82062013400E000249C42F7D35F
:402040002C2303FB015191F83A30826B22F00F0203F00F0313438363836B002000E00148F0BC70470100EE0070B4039E00EB81110C6B240204F4E0604D6B4C6B45EA142407
:40208000E4B20443023C00203060A3421ED3FCB13460049B5B78A3B104F0010303EB5404034605E001F59150006822F813000133A342F7D300200CE0D1F82002D05401336E
:4020C00000E00023A342F7D3002002E0024800E0002070BC704700BF0100EE0070B5044616464D1E072D04D940F2EA211348FFF711FA2C2202FB056292F84500C0B204EB8F
:4021000085118B6B03F00F03083B052B14D8DFE803F014031313140B8B6B23F00F0343F008038B638B6B70BD8B6B23F00F0343F00C038B638B6B70BD052070BDE86C081003
:4021400038B515464C1E2C2303FB042393F838305BB21278012A03D9D90F022A0CD00FE0002B0FDA00EB841041F21823C25841F21023C250002006E0224600F0D1FB02E02A
:40218000044800E000202C2303FB0454002384F8453038BD0100EE000139072928D82C2303FB012393F84530DBB2042B22D010B42C2303FB012393F84540E4B2012C14BFD2
:4021C0000024012483F8444093F8383000EB811013F0800F01D08D2300E089238363836B2C2303FB0121032381F84530002003E003487047024870475DF8044B704700BF12
:402200000100EE000139072956D82C2303FB012393F84530DBB2042B50D010B42C2303FB0123002483F8394093F8443013F0FF0F19D02C2303FB0122012382F8453000EB16
:4022400081110B6B23F080030B6392F83A308A6B22F00F0203F00F03134323F080038B638B6B20462CE02C2303FB0122002382F8453000EB81110B6B23F080030B6392F8FC
:402280003A30053B082B0AD8DFE803F0070907090B09090905000C2204E0002202E0002200E008228B6B23F00F03134323F080038B638B6B002003E0034870470248704727
:4022C0005DF8044B704700BF0100EE00F8B505460F4614461E46022A04D94FF469712C48FFF718F92B6823F04053240704F040541C432C601FB324F0406444F000642C60A4
:40230000A30F04D140F2D7412148FFF703F9EB6823F47F6323F00F0343F00103EB602B689B0F04D140F20A511948FFF7F3F8EB6823F47F0323F47043EB60AE6022E044F058
:40234000806424F000642C60A30F04D140F2D7410F48FFF7DFF8EB6823F47F6323F00F03EB602B689B0F04D140F20A510848FFF7D1F8EB6823F47F0323F4704343F4805356
:40238000EB606E6029462846FEF7F0FBF8BD00BFAC6C0810F8B504460F46154603689B0F04D140F2A4413548FFF7B4F86E1EFF2E04D940F2A5413148FFF7ACF8E36823F0BD
:4023C0007F4343EA0663E3605FB323689B0F022B04D04FF4AE612948FFF79CF805F50063B3F5805F04D340F271512448FFF792F8236923F47F6323F00F03C5F30B052B4332
:40240000236123689B0F022B04D040F2A3511B48FFF780F8236923F47F0323F470432361F8BD23689B0F022B04D04FF4AE611348FFF770F8236923F47F6323F00F03236154
:4024400023689B0F022B04D040F2A3510B48FFF761F805F50063B3F5805F04D340F2A4510648FFF757F8226922F47F0222F47042034B03EA053515432561F8BDAC6C0810C7
:4024800000F0FF002DE9F041144652684D0901F01F0640B18BB26381236A5A60606A8B1BD11841600AE00DB1012300E000236381236A9A60636A891B11449960CDB1276A0B
:4024C0003B689B0F022B04D040F23D514748FFF721F805F1FF38B8F1FF0F04D940F23E514248FFF717F83B6923F07F4343EA08633B61C6B1676A3B689B0F04D140F2A441F1
:402500003A48FFF707F806F1FF38B8F1FF0F04D940F2A5413548FEF7FDFFFB6823F07F4343EA0863FB6025B9616A0846FEF71EFB0DE026B9216A0846FEF718FB07E0616A4D
:40254000206AFEF713FB216A606AFEF70FFB226A15B11EB9012102E0012100E00021136823F0807343EA016313606669A7690DB1256A00E0656A1E4B1B6893F833309F420F
:4025800004D340F2E1511948FEF7C4FF184B1B68B3F85A209119B3F85C2007FB0212D560B3F85A10B3F85C20314407FB02118A68120C12048A606569A46993F833309C4223
:4025C00004D340F2FA510948FEF7A4FF084B1A68B2F85A30B2F85C202B4404FB02F41A5942F000421A51BDE8F08100BFAC6C08102C4E0208F8B50646002423E02C2303FBC3
:4026000004631D6DB5F1FF3F1BD02C2303FB0463DF6C0E4B1B6893F833309D4204D340F212610B48FEF776FF084B1A68B2F85A30B2F85C203B4405FB02F55A5922F000424D
:402640005A510134072CD9D9F8BD00BF2C4E0208AC6C08102DE9F0439DB0814688460027484C84E009EB87035B68002B77D0464C04AD26460FCE0FC50FCE0FC596E80F00D2
:4026800085E80F0010AD30340FCC0FC50FCC0FC594E80F0085E80F0009EB8702536819682C2303FB0783D96451684968196551684969996551688969D965526812695A651D
:4026C00000221A6698F80030012B09D12C2303FB0783986DD0B104A9FEF79CF800241AE02C2303FB0783986D90B12C2303FB0783DB6D7BB110A9FEF78DF82C2303FB07834F
:4027000004A9D86DFEF786F8002404E01D4C02E01C4C00E01B4C00238DF80C308DF80D3009EB87035B685A6900921A7B8DF804209B6802932C2303FB07836A46196DD86CCF
:40274000FEF7A0F948B944B92C2303FB0783DA6C136843F00043136007E00A4C0AE02C2303FB07834FF0FF321A6501370024072F7FF678AF14B14046FFF73CFF20461DB082
:40278000BDE8F0830300EE00346D0810F8B504464789BFB2466985692D4B1B6893F833309D4204D340F212612A48FEF7B3FE284B1A68B2F85A30B2F85C20334405FB02F569
:4027C0005A5922F000425A510221E069FEF740FF6569A6690FB1276A00E0676A1C4B1B6893F833309E4204D340F2E1511948FEF791FE174B1B68B3F85A205119B3F85C2035
:4028000006FB0212D760B3F85A10B3F85C20294406FB02118A68120C12048A606569A46993F833309C4204D340F2FA510948FEF771FE074B1A68B2F85A30B2F85C202B4432
:4028400004FB02F41A5942F000421A51F8BD00BF2C4E0208AC6C08102DE9F84F1F781C789E69B6F1FF3F4ED0FF0904F00F04013C42B100EB841404F591544FF010094FF020
:40288000010807E000EB841404F508744FF020094FF000081D468A46D3F814B01D4B1B6893F833309E4204D340F212611A48FEF731FE184B1A68B2F85A30B2F85C205B4426
:4028C00006FB02F2995821F000419950234642463946286AFFF7FAFCBAF1020F16D14A463946286AFFF756FD234642463946686AFFF7ECFC29892A4689B23846FFF7C2FD8C
:402900000020BDE8F88F0548BDE8F88F0020BDE8F88F00BF2C4E0208AC6C08100300EE00F8B5D0F83832D34013F0010F34D016460F460546530003F00E0343F00103036527
:40294000036D46F2A81403E00120FEF7D7FD013C2B6D13F0100F01D1002CF5D19CB10122B240D5F83C32D5F83C1243EA1123DBB217B123EA020200E01A4342EA0222C5F8A2
:402980003C22002000E005482B6D23F001032B652B6D00232B65F8BD0148F8BD0400EE000200EE002DE9F04383B080460E4617468C7904F00F04013C2C2303FB04F3383362
:4029C000D5184B78B3B1D0F838220123A3401343C0F838323A4601A9B088FFF709FA034600B17CE0396B019A11442C2202FB0472D16300E03B4B3278002A6DD096F906904C
:402A00004FEAD9712C2303FB0473002283F84520B07983F8380083F839207288A3F84020F37903F00303012B04D1B9F1000F06DA072207E0B9F1000F03DA0D2202E00522CB
:402A400000E009222C2303FB047383F83A20002283F8442022464046FFF762FF00283DD12B467A7839784046FFF7F6FE0346B0BBB9F1000F01DA1D2200E03C2208EB841165
:402A8000C1F80422D8F828000122A2401043C8F82800D8F878020243C8F878222C2202FB047494F83A20053A082A0AD8DFE802F0070907090B09090905000C2004E00020E6
:402AC00002E0002000E008208A6B22F00F0202438A638A6B184602E0184600E0FFE703B0BDE8F0830100EE002DE9F0411C46069E2C2303FB0163B3F840309BB2A342C0F074
:402B00008E800D462C2303FB016393F8391000EB851723029BB2E0B203437B63C4F307230B433B6394B92C2303FB0565012385F8453095F83A30BA6B22F00F0203F00F03D5
:402B40001343BB63BB6B0020BDE8F08173781BB104F0010303EB54042C2303FB0563996D4A60D3F85880D8F800309B0F04D140F2A4412E48FEF7CEFC013CFF2C04D940F246
:402B8000A5412A48FEF7C6FCD8F80C3023F07F4343EA0464C8F80C402C2303FB0563D3F84C801C6D224B1B6893F833309C4204D340F2FA511D48FEF7ADFC1D4B1A68B2F808
:402BC0005A30B2F85C20434404FB02F41A5942F000421A51D7F8003243F00203C7F80032D7F80032D7F8003223F00203C7F80032D7F8003246F2A81403E00120FEF77EFCBA
:402C0000013C2C2303FB056393F84530DBB2012B01D0002CF1D12CB90648BDE8F0810648BDE8F0810020BDE8F08100BFAC6C08102C4E02080600EE000100EE002DE9F8469D
:402C4000099C00EB81152E6B360206F4E066686B6F6B40EA1720C0B20643023E0020089F3860B3427AD3002E7BD0637823B106F0010909EB560900E0B1460F462C2303FB7F
:402C80000143996D8A60D3F858A0DAF800309B0F04D140F2A4413648FEF73CFC09F1FF39B9F1FF0F04D940F2A5413148FEF732FCDAF80C3023F07F4343EA0963CAF80C30E5
:402CC0002C2303FB0743D3F84CA0D3F85090294B1B6893F83330994504D340F2FA512448FEF718FC234B1A68B2F85A30B2F85C20534409FB02F953F8092042F0004243F84C
:402D000009202C2303FB0743012283F84520D5F8003243F00203C5F80032D5F80032D5F8003223F00203C5F80032D5F8003246F2A81503E00120FEF7E1FB013D2C2303FB51
:402D4000074393F84530DBB2012B01D1002DF1D155B1089B1E600020BDE8F8860648BDE8F8860020BDE8F8860448BDE8F88600BFAC6C08102C4E02080100EE000500EE00AD
:402D80002DE9F843089D2C2404FB0154B4F84040A4B29C42C0F0A7802C2606FB015696F8397000EB8114180280B25FFA83FE4EEA00006063C3F3072038432063012086F846
:402DC000450063B996F83A30A26B22F00F0203F00F031343A363A36B0020BDE8F8831F4696460E462C2202FB0152136E2BB110463A467146C06B984707E02C2000FB0150F5
:402E00003A467146C06B03F0BCFC2C2303FB0653B3F842309BB29F420AD02C2202FB06F101F138022A4439460120FFF72BFB51E02C2303FB0653DF6CD3F85080B3F8423048
:402E40009BB21F2B05D92C2303FB0653D3F8589004E02C2303FB0653D3F85C90234B1B6893F83330984504D340F2E1512048FEF751FB1E4B1B68B3F85A20D119B3F85C2081
:402E800008FB0212C2F80C90B3F85A10B3F85C20394408FB02118A68120C12048A602C2101FB0651CE6C0D6D93F833309D4204D340F2FA510E48FEF72DFB0C4B1A68B2F85B
:402EC0005A30B2F85C20334405FB02F55A5942F000425A51D4F8003243F00103C4F800320020BDE8F8830348BDE8F8832C4E0208AC6C08100100EE00F8B5069F00EB8110A3
:402F0000046B240204F4E066456B446B45EA1424E4B23443023C00203860A3421AD3DCB110462C23079A03FB01231B6E3BB12C22079D02FB01512246C96B984707E02C23C7
:402F4000079A03FB01212246C96B03F01AFC3C600020F8BD0148F8BD0020F8BD0100EE00014B1860704700BF2C4E0208002800F0AC8070B40446002A00F0A98092F8283023
:402F80000BB1012500E00025137F0BB1022300E000231D431669B60406F4802645EA060395682D0405F440351D431668300600F0E0602843136B556B43EA45031B0503F42E
:402FC00040130343906B43EA8000052E03D1D3681B029BB202E053681B029BB20343081D800123501368062B08D104EB81130120C3F808013F20C3F828011DE0936843B95A
:4030000004EB81130020C3F808013120C3F8280112E0012B08D1506904EB8113C3F808011C20C3F8280107E004EB81130120C3F808011220C3F82801106A04EB8113C3F8C0
:403040000C01506AC3F810015069C3F814019069C3F81801136EB3F1FF3F17D0106C00F00F00966C360206F470663043156D2D0405F470250543906D000380B228431B01E3
:40308000DBB2034304EB8110C0F82031D36B03F00303566C360106F030063343D56C2D0205F440752B43506D8001C0B21843D36D9B0003F00C03034304EB8114C4F8243193
:4030C000D36AC4F83831002002E002487047014870BC70470100B60005280AD8DFE800F0050B03050707002070470448704704487047034870470348704700BF05002200D5
:40310000010022000400220070B5D1F89851AC6E03232B700023EB70AB702B71EE6D66B12B46002211461046B04706E063681B6813B12946A06898472468002CF6D170BDBC
:403140000378DB090B700378C3F341134B70037803F01F038B704378CB708378C27843EA02238B800379427943EA0223CB808379C27943EA02230B81704700BF0378DBB2BB
:40318000042B10D1C16EC3780A6A22F07F0203F07F0313430B62C37813F0FF0F01D1032300E005230370704738B58288130A013B0E2B69D8DFE803F0080F2C686868686811
:4031C00068686868686820004B6D1B68C36012238382002038BDD2B24B6D197B8A4255D21B6953F822305A68C2609378D27843EA02238382002038BD4B6D5B68002B47D04C
:40320000C3609A78DB7842EA03238382002038BD0446D2B2486D8368EE2A04D15B68DBB11B6800202BE09D68CDB11B78D3B19A421BD255F82230DAB10068007C824219D123
:40324000D3B98B6D23B198470346B8B9114816E001F10D03002012E000230E480FE000230C480CE000230B4809E00023094806E0002004E0002002E0002000E0002040B957
:40328000E3601B78A38238BD024838BD014838BD004838BD020022000431C1600123838200207047C2880B78DBB2062B12D110B44B6D1C690B7903F18043013B54F8233065
:4032C0001B789A4208D20A440532C26001238382002002E00248704701485DF8044B7047020022000379CB7004230B70002070472DE9F04F85B088464B6D1B694FEA800A63
:4033000053F820301A7801929D684FF00009334803465CE0D8F85420126952F80A2092684FEA890652F82920178901244BE017F0010F46D000208DF8080001238DF809304C
:40334000A646BC4607462BE0526852F823201268917801F00F0BDE4518D17FB910B901238DF808308DF80E10D3788DF80F309388ADF80A30ADF80C30012710E0BDF80C10CE
:40338000938899420BD2ADF80C3008E0013300E00023626852F82020117A8B42D4D30130AC5923789842F3D367467446D8F87020D36902A9D8F86C009847034608B1074B59
:4033C00003E07F080134002FB1D109F10109019A91459FD3184605B0BDE8F08F0600220038B3F0B583B0064615460F460024134B1BE057F824301B6800228DF801200122EA
:403400008DF800209A788DF80620DA788DF807209B88ADF802302A6FD3696946E86E9847034608B1054806E00134B442E1D3184601E00020704703B0F0BD00BF020022000C
:403440002DE9F04180460F4614461E4600220AE063689D6835B13346A26839464046A847024610B92468002CF2D11046BDE8F08170B504460E461546074A09E06368DB6895
:403480002BB12A46A16830469847024610B12468002CF3D1104670BD0200220070B504460E461546074A09E063681B692BB12A46A16830469847024610B12468002CF3D160
:4034C000104670BD020022008B7E012B15D1CA7803799A4213D1CB881A1F012A11D8042B01D1836800E0C3686BB1CB601A785B7842EA03238B8200207047044870470348C5
:403500007047024870470148704700BF0200220070B506460C464B6D9B68586820B13146FFF7D2FF054600E0044D2DB1236E1BB12246002130469847284670BD020022004F
:4035400008B54B6E13B10A4600219847004808BD0200220038B590F84E30002B43D100F134050446036FB0F84820016CC06EFEF7C5FB82B2B4F848309A4236D8216C11FA3E
:4035800080F02064B4F84A101144A4F84A109B1A9BB2A4F8483053BB94F85030C3B1002384F85030636C236494F83530012B02D0022B07D00EE022462946A06EFFF76EFF84
:4035C000054608E021462846FFF7BAFF054602E0084D00E0074D5DB9236F00221146E06EFEF766FB04E0034D02E0024D00E00025284638BD0200220010B50C46D1F898012F
:40360000FFF7A8FF08B10323A36210BD30B583B0044690F84E30012B27D1B0F84820AAB990F84F305BB1002502A901F8015D036F2A46C06EFEF73CFB84F84F5017E0036F43
:4036400000221146C06EFEF759FB10E0036F016CC06EFEF72DFB80B2236C03442364B4F84830181AA4F8480001E0FFF787FD002003B030BD08B5D1F89801FFF7C7FF08BDBC
:40368000F8B50B78DBB2062B02D0C388002B3CD104468378012B25D01BB1022B04D01C4827E08D78002024E0C68806F00F060F6F013E072E0CD804D940F602011548FDF76A
:4036C00029FF2C2303FB067696F84520D2B200E00522131FDBB2012B07D9032A07D10125002006E00025284603E0094801E00025284658B923691D702369C5F307255D70BD
:403700002369E3600223A382F8BD0148F8BD00BF02002200046F08102DE9F8430D4684885CB9096FE86EFEF74BFB01236B70E4B22C7105232B70002651E0A0464B6D1B7B01
:403740009C424BD804F1FF390023C1F80530C1F80930096FE86EFEF7FFFA29464846FFF7C7FD0646B0B9EF6D2FB12B46002221460120B84706466EB9AF6E09E07B685B687B
:403780002BB12A46B96840469847064610B93F68002FF3D1E6B96B6D1B6953F829305B68DF79296FE86EFEF719FB17F0400F04D0AB7843F00103AB7003E0AB7803F0FE033E
:4037C000AB7001236B70E4B22C7106232B7006E0296FE86EFEF7F4FA024E00E0014E3046BDE8F88302002200A8B1F8B5064615460F4600240A4B0AE057F824301B682A6FA4
:403800009978E86EFEF7B8FB034630B90134B442F2D31846F8BD002070470148F8BD00BF02002200F8B50B795A1EC48885880B78DBB2062B40D14B6D1B6953F822301A78CD
:4038400094423BD29B6853F8246033789D4237D20B195B79DBB29D4234D00F460B195A79736853F822300A465968187AFFF7BCFF034640B9736853F825303A465968187AF0
:40388000FFF7AEFD03467BB9FE6D2EB13B46224629460220B047034633B93B46BA6E29462046FFF7CDFD034673B901227A70EDB23C4465711846F8BD0448F8BD0348F8BD31
:4038C0000248F8BD0020F8BD1846F8BD0200220008B50B78DBB2062B01D0C388CBB9837813B1022B09D016E08388012B15D18B7803F0FD038B70002008BD83887BB90B46E1
:40390000C1881A6F01F00F01D86EFEF77BFC40B908BD054808BD044808BD034808BD024808BD014808BD00BF0200220008B50B78DBB2062B01D0C388CBB9837813B1022B87
:4039400009D016E08388012B15D18B7843F002038B70002008BD83887BB90B46C1881A6F01F00F01D86EFEF717FC40B908BD054808BD044808BD034808BD024808BD014846
:4039800008BD00BF0200220008B5837E012B16D1C3780A2B2ED8DFE803F00F2D2D2D2D2D062D092D0C00FFF7FFFB08BDFFF774FC08BDFFF777FC08BDFFF762FE08BDC37895
:4039C000013B0A2B18D8DFE803F00F1712170617171709170C00FFF785FC08BDFFF79CFE08BDFFF71FFF08BDFFF772FF08BDFFF79DFF08BD014808BD004808BD02002200BA
:403A000070B582B0044600F13406026F416CC06EFEF748F93146606CFFF792FB00232364A4F84830A4F84A3094F8342084F84E2084F84F3084F8503094F83530012B02D9E5
:403A4000022B10D015E02BB921463046FFF79CFF054600E02E4D6DB122463146A06EFFF707FD054606E021463046FFF751FD054600E0274D002D47D194F8342094F84E3027
:403A80009A4219D1A28F92B1012B06D1B4F848108A4214D2A4F8482011E0B4F848108A420CD1B4F84C20914209D9194D07E0B4F8482022B1164D02E0154D00E0144D1DBBB0
:403AC000A28FDAB1012B0ED1B4F848309A4206D913F0070F0CBF0123002384F84F302046FFF794FD10E0636C2364002202A901F8012D236FE06EFEF701F905E0236F00226B
:403B00001146E06EFEF7D4F8284602B070BD00BF0200220010B50C46D1F89801FFF770FF08B10323A36210BD10B504460120FDF7CDFC601E10BD00BF70B588B0064603AC11
:403B4000164D0FCD0FC42B68237006F10D04222373730323B373FDF7EBFCCDE900010020022316E01DF8002002F00F0108AD294411F8141CE1545D1C002161559D1C08AE3B
:403B800006EB121212F8142C6255DA1CA15401300433212BE6D908B070BD00BF4C6F08102DE9F041079C002B4BD01D46069B002B4AD0002C4BD000284CD000294DD0002AA6
:403BC0004ED02B46164688460546E066226700272770E7702771A766069A12686264069A9288A4F84C206365204B2363E7652046FFF7A2FFA76527666766C6F8984132461F
:403C000041462846FDF75CFF044660BB3346184A39462846FEF784F83346164A01212846FEF77EF83346144A02212846FEF778F83346124A03212846FEF772F82046BDE830
:403C4000F0810F48BDE8F0810D48BDE8F0810C48BDE8F0810A48BDE8F0810948BDE8F0810748BDE8F081BDE8F08100BF293B081009310810153B081075360810F935081049
:403C80000100220010B50446016FC06EFDF7C0FF00232370E370237110BD00BF70B506460D46144602231370116FD06EFDF7A2FFD6B11DB10CE0236B284698472378DBB2FB
:403CC000062BF8D1002070BD236B2846984705462378DBB2062B01D0002DF5DC35B92046FFF7D0FF024870BD002070BD002070BD03002200F8B505460C460A6F0146E06E88
:403D0000FEF7ECF901281AD1236B9847276F6E1E072E04D940F602010F48FDF7FBFB2C2303FB067696F84530DBB2012B0CD1226F2946E06EFEF704FA034638B909E038B1CB
:403D4000FFF7CAF9034604E0002302E0034B00E000231846F8BD00BF046F0810060022002DE9F04F87B08046039104921F46109E346F451E072D04D940F602014348FDF724
:403D8000C9FB2C2303FB054393F8453003F0FF040BB1022C68D1F36E0593D6F870A008F1FF39B9F1070F04D940F62D013748FDF7B1FB2C2303FB09A393F8383013F0800FEB
:403DC00004D140F62E013148FDF7A4FBDAF820B0CDF800A0049B039A49460598D8478146002843D1346F072D04D940F602012748FDF790FB2C2303FB054393F84540E4B2D6
:403E00008FB126E0336B38469847346F072D04D940F602011D48FDF77DFB2C2303FB054393F84540E4B2012CECD0484621E0336B384698470746346F072D04D940F602019B
:403E40001248FDF767FB2C2303FB054393F84540E4B2012C01D1002FE9DC4FB931464046FFF748FF0A4804E00A4802E00A4800E04846074B984205D00333984202D02046AF
:403E8000FFF72AF907B0BDE8F08F00BF046F081003002200010022000600220090B110B4044689B1986E6160A2600022226018B99C66104609E018460368002BFBD1046028
:403EC000002002E00248704701485DF8044B7047010022004B68C3600B898382002070470B68C360092383820020704730B585B08D6B6DB10446C088A18803AB009304F1F3
:403F00000C03CAB2090AA847BDF80C30A38200E0014805B030BD00BF02002200C388072B07D820330B440433C36001238382002070470148704700BF02002200CB6B2BB1E3
:403F4000038983820123037700207047004870470200220010B582B0CC6B4CB10246C0889188D368D28A0092CAB2090AA04700E0014802B010BD00BF0200220008B5C37822
:403F8000092B02D1FFF7E6FF08BD014808BD00BF02002200C388072B07D8828802F001020B4483F82420002070470148704700BF02002200CB6A1B5C1BB90B6B00221A54C0
:403FC00070470A6B115C8B4201D81354704709B100231354704700BF10B9937A0B60704710B40446107C84420AD2D268125D4AB193F834309A4207D8013A0A60002004E07F
:40400000034802E0024800E001485DF8044B70470200220030B583B00446154613460A4601A98088FFF7D8FF024628B9E96A019B0B44E3600123A382104603B030BD00BFD4
:4040400070B50B78DBB2062B02D10B79013B00E000234A6D12699E0052F823301B78834215D90C460546082804D940F245510948FDF750FA63195A79636D1B699B599B68F6
:4040800053F825305B6853F82230D86870BD002070BD00BF606F08102DE9F04182B006460D46144690F8048013460A4601A94046FFF792FF0746F8B9B8F1000F09D0E16AE8
:4040C000B3881B0A019A8B5421460198FFF772FF12E0E06AB188EA7A090A019B184402F05BFB05E02146FFF765FF019B01330193EB7A01988342F5D8384602B0BDE8F08173
:4041000038B504460D461146C088FFF799FF002844D00146637883B9E378062B40D1A3881B0A212B05D0222B3CD12046FFF7D2FE38BD2046FFF7D4FE38BD012B34D1A37E30
:40414000012B15D1E378022B0DD0032B06D0012B2CD129462046FFF7C9FE38BD29462046FFF7DCFE38BD2A462046FFF753FF38BDE3780A2B0DD00B2B06D0092B18D1294662
:404180002046FFF7DBFE38BD29462046FFF702FF38BD2A462046FFF77FFF38BD054838BD044838BD034838BD024838BD014838BD004838BD0200220010B504464FF00133B2
:4041C0004362836290F834200021C06A02F0E4FA94F834200021206B02F0DEFA10BD00BFF0B138B5F1B1FAB113460C460268CA62016802790A442263027984F8342000221C
:40420000A263E2632360094A6260094A2261094A62612246211D04F11800FFF73FFE38BD05487047044838BD034838BDB9410810014108107D3F08100100220008B5074BDE
:404240001B7833B900F012FA00F07EFA0122034B1A7000F059F800F0FDFE08BD584B020810B5FFF7EBFF044610B900F0FBFD044614B900F077FD044614B900F087FC0446D3
:4042800000F014FC0028FBD100F0E8FA00F0AAFA204610BD70B5194D0026344629E063090433174A52F8233004F01F02D34013F0010F1CD0EB7E012B02D0022B09D011E017
:4042C000284600F0A5F806462946204600F094F90DE0284600F080F806462946204600F0F3F804E04FF4B8710648FDF713F92C350134022CD3D9304670BD00BF407008102E
:40430000304E0208DC6F081070B500230AE01D4A191D02EB8100002444604FF0FF3042F821000133002BF2D0174C032325E06668A27E144B2B4400211976012A03D0D2B128
:40434000032A07D917E02069A8B1228BF17902F023FA10E023690BB1F2791A706168002307E003F1080201EB42024FF6FF7050800133002BF5D02C342B465D1E002BD6D13D
:4043800070BD00BF304E02084070081010B582B004460846638802A921F8083D1346228A02F082F9BDF8003063809DF8023023719DF8033063719DF80430A37102B010BDB1
:4043C00030B40B884A889C1A0025CD800079844200DDCC8030BC70472DE9F0418468038B456890F81A8000270BE042462146284600F042FA074621462846FFF7E1FF0A34E0
:4044000033465E1E002BF0D13846BDE8F08100BF2DE9F04780468468476890F81AA0466A0025A94616E03246398A208802F064F92A4631463846FFF7A9FF0C365246214628
:40444000384600F019FA814621463846FFF7B8FF0A340135B8F818309D42E4D34846BDE8F08700BFF0B50C8B8D684F680A69012324E010EA030403D17E88B979314402E010
:404480007988BE79891BEE88B14201D3002100E01946A14202D01678013E1670A14201D014783CB920EA0300084309B9F97900E0012111705B000A350132744604F1FF3E7E
:4044C000002CD6D1F0BD00BF38B504468A7E154B03441D7E012A04D12846FFF7C3FF054604E04FF438711048FDF714F80D4B23441D76620904F01F04012303FA04F445B978
:404500000432084B03EB8202536823EA0404546038BD0432034B03EB820253681C43546038BD00BF304E020808700810F0B583B00B8B8A684D68D1F810E0844618B96F8817
:40454000A879074402E06888AF79C71B0024012009E0D3889F4201D3002300E003461C430A32400033465E1E002BF2D154B19EF8003013B1013B8EF800309EF8003023B190
:40458000644602E0EB798EF800305CB10E466A88AB790F8BD21A3946B06801F067FF034610B923E0002321E0B27E022A1ED100233A46316A01A801F0C5FF034600220AE0F5
:4045C00002A901EB420131F8040C02F1080105EB4101488001329342F2D807E003F1080205EB42024FF6FF7151800133002BF5D0204603B0F0BD00BF38B504468A7E194BF5
:4046000003441D7E012A03D062B1032A05D909E02846FFF727FF054609E02846FFF786FF054604E040F226410F48FCF773FF0D4B23441D76620904F01F04012303FA04F47B
:4046400045B90432074B03EB8202536823EA0404546038BD0432034B03EB820253681C43546038BD304E02080870081070B51C4CA4220021204602F08FF845F23A2323806E
:404680004FF41063638041F66A03A3800823A3830123A377E377134E203406F18C050FCD0FC40FCD0FC40FCD0FC495E8030084E80300304606F1080403230CE0A268238B35
:4046C00004E010F8013B53720A320B46591E002BF7D12C342B465D1E002BEFD170BD00BF304E02083870081002280DD800F01F02012303FA02F24009031D044800EB830310
:404700005B6802EA0300704700207047304E0208022810D82C230B4A03FB002393F82230023BDBB2012B09D82C22064B02FB0030C368588A70474FF6FF7070474FF6FF7077
:40474000704700BF387008100023024AD380024A13607047304E0208A44B0208C9B2062902D083180021197130F8121000EB42035980024400231372704700BF70B5064660
:404780000D46012305E0224629463046FFF7E6FF23465C1E002BF6D170BD00BF08B52C23054A03FB0023986801EB81014A00997E1044FFF7E3FF08BD4070081038B5054678
:4047C0002C23074A03FB00231B8B04E021462846FFF7E4FF23465C1E002BF7D138BD00BF4070081010B5032303E02046FFF7E6FF23465C1E002BF8D110BD00BFF8B5054604
:404800002C230F4A03FB00235E681B8B14E02C230B4A03FB05239F6804EB8402500004EB44018A00596A0A44DB7E012B03D1318A385A01F055FF23465C1E002BE7D1F8BD84
:404840004070081010B5032303E02046FFF7D6FF23465C1E002BF8D110BD00BF08B5FFF7F1FF08BD00FA03F3C2F5807001FB00F102FB0310000A70472DE9F04106460D466B
:404880001746012342E035F8140005EB44035988884207D3431A2A194FF0000E82F808E0012201E00B1A002292B996F805E073450ED92B191B7A327A934205D32246394648
:4048C0002846FFF74BFF20E02A19013313721CE096F804E0734504D996F805E0734514D89AB9FBB2062B10D005EB040898F804E0082301224EEA0121FFF7B4FFC0F30F223E
:4049000005EB44035A8088F8040023465C1E002BB9D10020BDE8F08110B52C23064A03FB0020846801EB81014B00827EE1184068FFF7A2FF10BD00BF4070081070B50646F0
:404940002C23084A03FB00231B8B002505E021463046FFF7E1FF054323465C1E002BF6D1284670BD4070081038B50025032304E02046FFF7E3FF054323465C1E002BF7D11A
:40498000284638BD30B49F280ED940F2FE3399420AD9244CA1FB04454B1B05EB53035B0AC3EB832399422FD09F280DD9B1F5FF7F0AD91D4CA1FB04454B1B05EB53031B0A7A
:4049C000C3EB4323994221D09F280CD97E290AD9164CA1FB04454B1B05EB53039B09C3EBC313994214D09F2814D93E2914D9104CA1FB04454B1B05EB53035B09C3EB83132A
:404A000099420BD000200AE0042008E0032006E0022004E0002002E0002000E0012030BC704700BF051040002140800011080402054110044A1E032A01D8102300E00023C3
:404A400079B183B1642202FB03F3B3FBF0F3002001E001305B00092BFBD90A2B04D9013802E0002000E00020C0B2704708B501F09BFC08BD08B50A4B1A689169094B5B1A62
:404A8000DB09526902EB03135A6822F0F8525A60054A136823F00103136000F02FFF08BD2C4E020880033240A8023640024BD86800F08000704700BF304E0208034B034020
:404AC000034AD0681843D060704700BF80000100304E0208034B0340034AD06820EA0300D060704780000100304E020810B5164BDB6813F4803F0ED102280ED84309043373
:404B0000114A52F8233000F01F02D34013F0010F05D1012404E0112402E0012400E0002484B92C23094A03FB0023DB7E022B02D101F04CFC06E0012B02D100F0F1FE01E0F0
:404B40004FF0FF34204610BD304E02084070081008B50C4BDB6813F4803F0DD10A4B1B78012B05D0022B09D101F0FEFA002008BD00F026FE002008BD112008BD4FF0FF302A
:404B800008BD00BF304E0208A84B0208124BDB6813F0800F1AD110B500244FF0FF3312E02046FFF7A3FF034660B9012C03D801220A4B5A7002E00022084B5A70FFF7C8FFFB
:404BC000034606E00134022CEAD902E0112318467047184610BD00BF304E0208A84B0208124B1B78834220D010B50446012B02D1FFF740FF03E0022B01D1FFF737FF012CA3
:404C000005D100F053FC0122084B1A7010BD022C05D101F0F5F80222044B1A7010BD032C02D00022014B1A7010BD7047A84B020830B583B00025074C08E0217900230093A4
:404C40000E222068FCF76CF808340135082DF4D903B030BDFC70081038B51B4A93780133DBB293709078FFF741FF044650B9164B9B78DBB2022B02D10022134B5A70FFF79A
:404C800067FF1EE0104B9B78DBB2022B10D10F4D2B8901332B818020FFF71CFFEB6823F07F43EB60EB6843EA0464EC60002408E0064BDA6822F07F42DA60DA6842EA0062C3
:404CC000DA60002CC9D138BDA84B0208304E020810B50146124BB3F90030002B0DDB5A0903F01F03012404FA03F320320D4840F82230BFF34F8FBFF36F8F094C2046FCF732
:404D0000ABFBB4F90030002B08DB590903F01F03012202FA03F3034A42F8213010BD00BF8C68081000E100E070B5022801D8002500E001258DB904462C23094A03FB00237F
:404D4000DE7E022E02D1282101F00AF9012E04D15521204600F0B4FE0546284670BD00BF4070081038B50024254604E02046FFF7DBFF05430134022CF8D9284638BD00BF74
:404D800070B5002519E02C230D4A03FB0523DB7E012B11D12C2303FB05F3D658002404E006EBC40000F054FD01342C23044A03FB05231B7E9C42F3D30135022DE3D970BD89
:404DC000407008102C23034A03FB002043685889704700BF407008102C23034A03FB002043685981704700BF40700810C0EB0032012303FA01F101398A4205D9C0EB00204B
:404E0000814203D30520704706207047002070472DE9F04180460E46FFF7D4FF07460022318800F00DFC01463846FFF7ABFD054620B931887800FFF7D9FF05462946384640
:404E4000FFF7F8FD04466B1FDBB2012B03D839464046FFF7C1FF2001C0B228433073BDE8F08100BFF0B58BB04FF47A73ADF8003040F65503ADF802304FF41663ADF80430CF
:404E8000544B9A7F4CF25033B3FBF2F3ADF80C3000F00CFB00252E4652E02C234E4A03FB0523DB7E012B44D12C2303FB05235C680C23238000232373BDF80C30474AA2FBB9
:404EC00003235B09274627F80A3F5521284600F0F7FD0497424B1B788DF81830414B1A884FF47A7303FB02F23F4BA3FB0213D21A03EB5203C3F3CF23ADF80E30684601F01D
:404F00007BFB3A4B984203D9062601E05B006381BDF80C10638941F2707202FB03F29142F4D8032BF2D90AAB03EB850343F80C0C05E001220AAB03EB850343F80C2C0135BE
:404F4000022DAAD9002427E02C23234A03FB0423DB7E012B1FD12C2303FB04235D685521204600F0ADFD064305F10A0304930AAB03EB840353F80C3C0293194B1B788DF89E
:404F80001830EB89ADF8063005F110030593684601F058FB28800134022CD5D9002413E02C230D4A03FB0423DB7E012B0BD12C2303FB042359682046FFF72AFF5521204635
:404FC00000F07EFD06430134022CE9D930460BB0F0BD00BF304E020840700810F1197605C8420208CA42020801011000870D0100F8B5002427E02C23144A03FB04235D6826
:40500000DB7E012B02D0022B05D016E029462046FFF7FEFE16E02E88204601F01DFA07463146FFF7AFFC064601463846FFF702FD0001C0B23043287304E040F25971044828
:40504000FCF768FA0134022CD5D9F8BD407008104871081008B5FFF7CBFFFFF7E9FD0020FFF7BEFD002008BD38B52D4D2A6893692C4CE31ADB09526902EB03135A6822F08D
:40508000F8525A60802363602B6893F87D20135923F0704343F0C04313512A689369E31ADB0951691B01CA5822F4F852CA50022363602B6893F87D20135923F0F00343F0D6
:4050C000600313512A689369E31ADB0951691B01CA5822F4F812CA50042363602B6893F87D20135923F4706343F4C06313510120FCF704FA2B6893F87D20135923F0704390
:4051000013512B6893F87D20135923F0F00313512B6893F87D20135923F47063135138BD2C4E0208800332400F4B19782C220F4B01FB02335B680E4AD2F8D02091B218881B
:4051400001238340013B994206D20A4B1B680A49097823F811207047064A12680649097822F81130704700BFAA4B02084070081000003640D44E02084471081038B5214CAF
:40518000227821492C2302FB03125068227802FB03131A7E013A1D4B1B78DBB29A421BD91A4C23780133DBB22370164D29782C22154B01FB02339968237803EB83035A0058
:4051C0000A44134B1A6000F013FA2878217800F02DFB00F077FA38BD00220C4B1A704FF48030FFF777FC0B4B1B78012B02D1FFF733FD38BD8020FFF76DFC074A1389013363
:40520000138138BDAA4B020840700810B04B0208D44E0208A94B0208304E020808B5074B4FF483721A601B68FFF77EFF044A1389013313810348FFF74DFC08BDF000364049
:40524000304E02088000010010B50C4B1B782C2203FB02F30A4AD3580A4A147803EBC404094B4FF483721A601B68FFF75DFF204600F0EEFAFFF782FF10BD00BFAA4B020805
:4052800040700810B04B0208F000364001390843014B1860704700BF000236400E4B1B6823F4F8730D4A917F0D4AB2FBF1F20D498A4204D843F02003074A136070470A49B6
:4052C0008A4204D843F03003034A1360704743F04003014A13607047C4420208304E020880F0FA02001BB70000366E01044A054B1A604FF0C17203F580731A60704700BF5E
:405300000000830100043640084A136803F07F0343F0C17343F48033136002F58072136803F07F0343F400031360704700043640074A136843F0805343F001031360054AE7
:40534000054B1A604FF0C17203F580731A607047A8023640000083010004364010B40488012000FA04F4013C04EB840303FA00F00C4BA3FB00035B0901335818844200D21C
:4053800020468B4201D8C91A00E00021914203D8904203D2062002E0062000E000205DF8044B70471F85EB510023164A136002F5927213600432136006212C3A11604FF4F1
:4053C0008071083A11600121903A1160A2F580724FF48371116012680B4A136003220B4B1A604FF4FA6300E0013B094A126812F0040F01D1002BF7D113B90822034B1A6023
:40540000704700BF8C013640F800364040033640F00036401E4B4FF483721A601B681D4BB3F90030002B08DB590903F01F03012202FA03F3184A42F821300023174A136006
:4054400030321360043213602C3A13605021983A11600121643A11600C3A13608032136843F08073136002220D4B1A604FF4FA6300E0013B0B4AD2F8842012F0070F01D013
:40548000002BF6D140F20132074B1A60704700BFF00036408C68081000E100E080023640F8003640000036404003364070B5FFF767FCFFF7D9FD4FF48032404B1A604048BF
:4054C000036843F0805343F00103036000233D4A136002F5E07213600C32136060321360A2F5CE72136002F582721360083A1360354C2360A2F5807213604FF0487102F5C6
:40550000A8721160314D2A6892F87D60304AB15821F07041B15029688D69521BD209496901EB0212516821F0F85141F08061516028490A6842F480520A604FF48071264AD3
:405540001160026842F0805242F0010202604FF0807222490A6040F64130A1F58E71086001F584710B602260FFF7C0FE1C4B9B7F013BFF2B0BD8154A12689068B2F87410B6
:40558000425822F47F421B029BB213434350FFF785FE144B1B6843F0004343F48053124A13600F22114B1A600022A3F588731A600A2203F590731A6070BD00BF040236403E
:4055C000A8023640F4003640840236402C4E02088003324094023640A0023640A4023640304E0208C4420208000036400003364038B50546FCF725F80D490B6823F07F0240
:405600000C4B1C7825446B7A13430B60FCF71DF8FCF717F808490B6823F07F02074B1B681C44637A13430B60FCF70FF838BD00BF000436404471081000053640D44E02089F
:4056400030B401248C40631E40B10F2904D9A4F10A03B3FBF0F301E0B3FBF0F3053A012A00D85B080BB9012000E0184630BC704708B50C4B19782C220B4B01FB02335B6881
:4056800059891B7B18045A1F012A01D840F00070053B012B02D8490800D10121FFF7F6FD08BD00BFAA4B02084070081008B5027B01884089FFF7C4FF80B2014B186008BD7B
:4056C0001403364008B50D4BB3F90030002B0DDB5A0903F01F03012101FA03F32032084941F82230BFF34F8FBFF36F8F0122054B1A60FFF759FEFFF78DFE08BD8C68081094
:4057000000E100E08001364008B50448FFF7D6F91720FBF7F3FEFFF7D5FF08BD80000100F8B50546FBF78DFF06462F682C79072C04D94FF471712048FBF7ECFEA4001F4B34
:405740001B6893F87D00C2590F23A34022EA0301062202FA04F30B43C3512C682D79072D04D94FF422711448FBF7D4FE134B1A689369E31ADB0952691B01D118032D0BD810
:40578000D158ED001F20A84021EA00000B2101FA05F50543D5500BE0043D4B68ED001F22AA4023EA02020B2303FA05F515434D603046FBF74AFFF8BD006808102C4E020877
:4057C000F8B5144F3B78144D2C2603FB06535868124C002323703B7803FB06539968237803EB83035A000A440D4B1A60FFF700FF3B7803FB06F3EB58207803EBC000094BF8
:405800001860FFF78DFF0848FFF762FAFFF77CFFF8BD00BFAA4B020840700810B04B0208D44E0208D84E02084952081008B52C2303FB00F0044B185800EBC100034B1860E1
:40584000FFF76EFF08BD00BF40700810D84E0208F8B50646FBF7F5FE074634683579072D04D94FF422712348FBF754FE224B1A689369E31ADB0952691B01D118032D08D8A2
:40588000D158ED001F2000FA05F521EA0505D55008E0043D4B68ED001F2202FA05F523EA05054D6035683479072C04D94FF471711048FBF72FFEA4000F4B1B6893F87D0022
:4058C00042590F23A34022EA03010E2202FA04F30B43435135683479072C04D940F281310448FBF717FE0123A3406B603846FBF7ACFEF8BD006808102C4E020808B5064B9F
:405900001B78012B06D1054B1868FFF7A1FF0022014B1A7008BD00BFB14B0208D84E0208F8B5114E2C2707FB00635D68C0B20F4C20700120FFF754F9FFF7E0FF237803FB01
:4059400007F3F2580A4B1A600A4BDA6822F07F02DA602178DA680A43DA602846FFF7A6FEFFF786FEF8BD00BF40700810AA4B0208D84E0208304E020838B52C23114A03FB44
:4059800000235D68C9B2104C21709968237803EB83035A000A440D4B1A60FFF7C1FF2846FFF726FE20780A4A136803EBC0001060FFF7B6FE0122074B1A700748FFF788F9DB
:4059C00038BD00BF40700810B04B0208D44E0208D84E0208B14B02081D5208102DE9F84307460D4690462E4908782C222D4B00FB02335E684FF0000985F8009008782A4B79
:405A00001978FFF7B9FFFFF77FFC8024B94503D22B7823EA04032B7064082B7823432B703046FFF7E5FDFFF76FFE4CF6C44300E0013B1E4AD26812F0800F01D0002BF7D1D0
:405A40001B4B1B68B3F80090002CDFD1144B1B782C2203FB02F3134AD358134A107803EBC000144B1860FFF7F3FE0022124B1A70FFF75EFC4A4639463046FFF76FFC98F84B
:405A800000202B789A4205D288F800300B4A1371A2F80690064B1B682A785A72BDE8F883AA4B020840700810B04B0208304E0208D44E0208D84E0208B14B0208C44202088F
:405AC0002DE9F04383B004460F462C233A4A03FB00235E6801258DF80450B14639F8098B05FA08F808F1FF3801FB08F3334AA2FB03384FEA5818C2B2314B1A703148FFF709
:405B0000E7F8314B1D71DD800025304B1D700AE001AA49464046FFF761FF05432B4A13780133DBB213702C23234A03FB04231A7F264B1B78DBB29A42EAD89DF804300133C0
:405B40005B0873720022214B1A7023E02C231A4A03FB04239A681D4B1B7803EB830302EB43021B4B1A60537A717A8B420BD35B1ADBB207FB03F363331049A1FB0313C3F3B3
:405B80004713537201E000235372104A13780133DBB213702C23084A03FB04231A7F0B4B1B78DBB29A42D1D80022084B1A70284603B0BDE8F08300BF407008101F85EB51DB
:405BC000AA4B02081D520810C4420208B04B0208D44E020842890388901E10FB03F080B2704700BF08B52A4BB3F90030002B0DDB5A0903F01F03012101FA03F320322549C8
:405C000041F82230BFF34F8FBFF36F8F224B4FF483721A601B68214BD3F8D020D3F8D4309BB213FA82F31E4A128892B2934204D91B4A13889BB2538002E09BB2184A5380B6
:405C4000184B1B689847184BDB6813F0800F0FD1164A124B1A604FF4407203F5C6731A60134A03F51D731A601F22A3F598731A60074BB3F90030002B08DB590903F01F0300
:405C8000012202FA03F3034A42F8213008BD00BF8C68081000E100E0F000364000003640B44B0208CC420208304E020820100C80800E43013F4B1A683F4B1B7813445A7A3F
:405CC0003E4B13433E4A136000233E4A53803E493E4A1160012102F5C0721160112102F5807211604FF08071043211603C3213600622374B1A60374A28331A6041F21012FD
:405D000004331A60344AC43B1A6040F2033203F5A8731A604FF4FA6300E0013B2F4A126812F0010F01D0002BF7D12C4B1B6813F0010F03D04FF44272284B1A60284BDA7FB2
:405D4000284BB3FBF2F3284A934204D9274A934203D8302302E0202300E0402343F0004343F44123194A136040F20132204B1A60002320490B6001F580710B6004310B6003
:405D80003C310B6038390B601B482831086042F2102004310860C4390B601F21174B1960A3F5F0734FF4837119601B680B4B1A60704700BFD44E020844710810800E430148
:405DC00000043640B44B020820100C80000036408802364001010100AA00050040033640304E020880F0FA02001BB70000366E018C0136408001364001030300D0023640CF
:405E000010B5FFF731F949490B6893F87D00484BC25822F0F002C2500A6892F87D10CA5822F47062CA504FF4837203F57F3303F5B8731A60002404331C60022204331A60D5
:405E400088331C6004331C6041F2415204331A604FF4407204331A60364A03F51D731A6003F580731C60344AA3F544731A60334A10331A6004331C607C331C6004331C6020
:405E800004331C6008331C60FBF7DBFB2C4A136823F480531360FBF7D8FB2322294B1A604FF0807204331A60FBF7CBFB264A136823F0805323F4801343F080531360FBF7EA
:405EC000C4FB224A224B1A6042F2102204331A600C331C601F2210331A600F2230331A60042210331A6004331C600C331C604FF4427220331A60174AA3F550731A60164B06
:405F0000DB7F013BFF2B0BD8084A12689068B2F87410425822F47F421B029BB213434350FEF786FE0D48FEF7D3FE10BD2C4E020880033240800E4301AA000500A700000CFA
:405F400094023640A0023640A802364001030300B002364020100C80304E0208E55B08102DE9F84380460E462C242B4B04FB0034D4F80890294BC3F800906068FFF72AFEA5
:405F8000274B1880198889B201FB06F1254EA6FB0136E37E022B3CD17609227F657F05FB02F5002109E01D4A1368002018801368402058720A3313600131A942F3D3202407
:405FC000402700E01C464046FEF790FDFEF7C0FD154BDB6813F0800FFAD1104BC3F8009000210FE00D4B1B681A88964203D25A7A22EA07025A725A7A22435A720A33074A16
:4060000013600131A942EDD3C4F347032746002CD8D1BDE8F88300BF40700810D44E0208B44B02081F85EB51304E0208F8B50546FBF707FB06462F682C79072C04D94FF4C2
:4060400071712048FBF766FAA4001F4B1B6893F87D00C2590F23A34022EA0301062202FA04F30B43C3512C682D79072D04D94FF422711448FBF74EFA134B1A689369E31A9E
:40608000DB0952691B01D118032D0BD8D158ED001F20A84021EA00000A2101FA05F50543D5500BE0043D4B68ED001F22AA4023EA02020A2303FA05F515434D603046FBF7BB
:4060C000C4FAF8BD006808102C4E0208F8B50546FBF7B7FA06462F682C79072C04D94FF471711F48FBF716FAA4001E4B1B6893F87D10CB590F2202FA04F423EA0404CC5145
:406100002C682D79072D04D94FF422711448FBF701FA144B1A689369E31ADB0952691B01D118032D0BD8D158ED001F20A84021EA0000042101FA05F50543D5500BE0043D69
:406140004B68ED001F22AA4023EA0202042303FA05F515434D603046FBF777FAF8BD00BF006808102C4E020810B50022104B1A70104B1B689968104A11605A7F0F4CA28003
:40618000187FE0801B68A36003EBC000E060FFF74DFFA068FFF79AFF094A0A4B1A608020FEF78CFC1720FBF7A9F9FFF783FD10BDB04B0208AC4B0208D44E0208B44B020813
:4061C000D9620810CC42020870B50546FBF739FA06462C682D79072D04D94FF422711148FBF798F9104B1A689369E31ADB0952691B01D118032D08D8D158ED001F2000FA7D
:4062000005F521EA0505D55008E0043D4B68ED001F2202FA05F523EA05054D603046FBF714FA70BD006808102C4E0208F8B50646FBF707FA074634683579072D04D94FF4E8
:4062400022712348FBF766F9224B1A689369E31ADB0952691B01D118032D08D8D158ED001F2000FA05F521EA0505D55008E0043D4B68ED001F2202FA05F523EA05054D60EC
:4062800035683479072C04D94FF471711048FBF741F9A4000F4B1B6893F87D0042590F23A34022EA0301062202FA04F30B43435135683479072C04D940F281310448FBF719
:4062C00029F90123A3406B603846FBF7BEF9F8BD006808102C4E020810B52C4B19682C4B18782C4C23889AB263889BB2D31A21F81030E068FFF768FF274A13780133DBB2B7
:406300001370A388013B9BB2A3805BB1E0680830E060FFF78BFE1D4A13680A331360FFF7C9FC10BD1B4AD388013B9BB2D380D3B114469068FFF77AFFA0680830A060FFF787
:40634000C5FE164B1A68537FA3801368107F03EBC000E060FFF76AFE0C4A13680A331360FFF7A8FC10BD0B4B9868FFF75FFF0C4B1B7813B1FEF770FC10BD0A4A138901339A
:4063800013818020FEF7A6FB10BD00BFD44E020844710810B44B0208B04B0208AC4B0208A94B0208304E0208074B1B8A53B110B5054CE068FFF708FFA068FFF737FF00234C
:4063C000238210BD704700BFB44B020838B50446C2B2194B1A700220FEF702FCFFF7E4FF164B2C2202FB0434154B1C6065686C892A88144B1A602846FFF7ECFB124B1880D8
:406400002B7B013CC4F30B0444EA034444F040640E4B1C600E4BDB7F013BFF2B0BD80D4A12689068B2F87410425822F47F421B029BB21343435038BDAA4B0208407008101E
:40644000AC4B020814033640B44B020800023640304E02082C4E02082C23034A03FB002043685889704700BF40700810F0B50023334C237004461E460BE0E588954206D9E7
:40648000AE4204D22E4E3371012737702E460A3401338B42F1D32A4B1B78002B47D14BE0274EB3181B7903EB83056C000519B5F806E002EB42077D003544A5F80AE09BB9CC
:4064C00001EB81056C000A3C0444E688550015446C001B4D2C442681013303EB83035D000544EB88A38120E04D1EEDB2AB420CD1A4F10A030344DD88540014446300104CB7
:4065000023441D81C4889C810FE00A3C0444E688550015446C000A4D2C442681013303EB83035D000544EB88A381013200E00022034B1B789A42B3D3014B1878F0BD00BFD5
:40654000C84B02082DE9F041002533E01D4C2C4424793CB905EB45077E001A4F3E440027378109E0561EB44206D105EB45077E00144F3E440027B7816F002F447E00114FA8
:406580003E44B6F80C80B6F808E0CEEB0807B6F80AC00EEB0C0608EB060E01FB07F696FBFEF604FB013434447F34C4F30F2420F815400135034C2478A542C7D32046BDE856
:4065C000F08100BFC84B020808B5084B1B783BB9074A01210748FCF7C9FC0122034B1A70044B02229A609A6108BD00BFD64B02087471081000003840014670B582890569D1
:40660000CB8980884FF47A76584306FB00F42888B2FBF0F0B4FBF0F00C7E4B886043B0FBF3F00B884343B3FBF6F35A43044BB2FBF3F3012213B15B085200FBE72A8070BD5D
:4066400000E1F505014643888A88007EC3EB03435043B3FBF0F00B698A891B88B2FBF3F3104A4343B3FBF2F3CA8853430A22B3FBF2F38A6846F2A710824294BF6422C82249
:406680001020934205D90138C0B206284FEA5303F7D149694B2253436422B3FBF2F30B80704700BFA086010003B10B880088800080B2824238BF02469A4238BF1A4692B2D6
:4066C0005308FF2B0A804FEAD2028CBFFF23DBB2FF2A8B70CB7086BFFF230B710A7170478B0813800F23C9089372002351809080D0801081D3727047937A30B594889080E3
:406700005B00041BDBB24ABF013393729372957A538848BF644205F00F05A342957203D9012B03D9013B00E0013353800F2D04D01DB15388B4EB830F04D90023D0801081AD
:40674000D37230BDD488844201D9D08003E01489844238BF1081D07A092802D80130D07230BD1089D488001B80B2834204D9B3EB910F03D9013B00E0013353805388138089
:4067800030BD10B5431E0A44914204D011F8014B03F8014FF8E710BD02440346934202D003F8011BFAE7704710B5034642B111F8014B03F8014B013A002CF7D11A4400E096
:4067C00010BD934202D003F8014BFAE710BD0000F8B500BFF8BC08BC9E467047F8B500BFF8BC08BC9E4670478F000000050000009000000006000000910000000700000070
:4068000047656E6572617465645F536F757263655C50536F43365C70646C5C647269766572732F7065726970686572616C2F6770696F2F63795F6770696F2E680000000033
:406840000300000001000000010000000000000005036000040000000100000000000000010000000604600008000000904A02080D060810910000000700000090000000FC
:40688000060000008F000000050000003100000007000000000000000000000000000000000000000000000000000000000000000000000000000000000000000000000006
:4068C0002A00555500000000B04A020840000000F04A020801000000D069081000000000EC68081001000000B44202080300000000000000A842020801000000AC69081058
:40690000B842020801000000BC42020801000000B5690810C04202080100000020690810BE6908103C69081032000001346908100100000001000000C76908100501090226
:40694000A1010901A100050919012903150025019503750181029501750581010501093009311581257F750895028106C0C00000040309042C034300790070007200650004
:40698000730073002000530065006D00690063006F006E0064007500630074006F0072000C034D006F00750073006500090222000101008019090400000103000000092157
:4069C000110100012232000705810308000A00001201000200000008B4047BE1000001020001000047656E6572617465645F536F757263655C50536F43365C70646C5C64B7
:406A00007269766572735C7065726970686572616C5C646D615C63795F646D612E63000047656E6572617465645F536F757263655C50536F43365C70646C5C6472697665F3
:406A400072735C7065726970686572616C5C646D615C63795F646D612E68000047656E6572617465645F536F757263655C50536F43365C70646C5C647269766572732F70E0
:406A800065726970686572616C2F6970632F63795F6970635F6472762E68000047656E6572617465645F536F757263655C50536F43365C70646C5C647269766572735C70BF
:406AC00065726970686572616C5C6770696F5C63795F6770696F2E630000000047656E6572617465645F536F757263655C50536F43365C70646C5C647269766572735C70EF
:406B000065726970686572616C5C6770696F5C63795F6770696F2E680000000047656E6572617465645F536F757263655C50536F43365C70646C5C647269766572735C70A9
:406B400065726970686572616C5C6970635C63795F6970635F6472762E68000047656E6572617465645F536F757263655C50536F43365C70646C5C647269766572735C70A4
:406B800065726970686572616C5C6970635C63795F6970635F6472762E63000047656E6572617465645F536F757263655C50536F43365C70646C5C647269766572735C7069
:406BC00065726970686572616C5C6970635C63795F6970635F706970652E630047656E6572617465645F536F757263655C50536F43365C70646C5C647269766572735C70C7
:406C000065726970686572616C5C737973696E745C63795F737973696E742E630000000047656E6572617465645F536F757263655C50536F43365C70646C5C647269766568
:406C400072735C7065726970686572616C5C747269676D75785C63795F747269676D75782E63000047656E6572617465645F536F757263655C50536F43365C70646C5C6461
:406C80007269766572735C7065726970686572616C5C75736266735C63795F75736266735F6465765F6472762E63000047656E6572617465645F536F757263655C50536FD1
:406CC00043365C70646C5C647269766572732F7065726970686572616C2F646D612F63795F646D612E68000047656E6572617465645F536F757263655C50536F43365C7024
:406D0000646C5C647269766572735C7065726970686572616C5C75736266735C63795F75736266735F6465765F6472765F696F2E630000000002020102000101010000004C
:406D4000000000000000000000000000000000000100000000000000000000000100000000000000000101000100010102000000000000000000000000000000000000000A
:406D800001000000000000000000000001000000000000000000204000002440000000400000000000002340000030400000314000009F40000022400000104002020202F0
:406DC000020202020210101D800017007500FF030602063604102000000000007FC0000000040000000000000019324B647D00804000080B100000000000FF012002001FE8
:406E000000800004FF081018001000140018001C4044484C50000000081000000800000004000000041000000012000004210000002100000016000040114002C4130013BC
:406E40008013A013200000001C0000000000214000002540000001400000344000002440000031400000324000001F41000023400000114001010101010101010110101081
:406E8000800019005500F0000501053B04101C01010000000FC000000004000001010101011D3A57789600082000101208000000001F00000010000F002000023F06080EDB
:406EC00000080009000A000B24282C3034000000100000009000000088000000080000008000000004F0000000F00000400200002005A000D00100018001A00120000000E1
:406F00001000000047656E6572617465645F536F757263655C50536F43365C70646C5C647269766572732F7065726970686572616C2F75736266732F63795F7573626673CA
:406F40005F6465765F6472762E680000303132333435363738394142434445460000000047656E6572617465645F536F757263655C50536F43365C70646C5C6D6964646C48
:406F800065776172655C7573625F6465765C63795F7573625F6465762E68000047656E6572617465645F536F757263655C50536F43365C70646C5C6D6964646C657761726D
:406FC000655C7573625F6465765C63795F7573625F6465765F6869642E63000047656E6572617465645F536F757263655C50536F43365C43617053656E73655F436F6E749D
:40700000726F6C2E6300000047656E6572617465645F536F757263655C50536F43365C43617053656E73655F50726F63657373696E672E63000000002020202020202000D1
:40704000FC700810504E0208884E020800000000A04B0208012800000500020105006400001900005C4B02088000000024710810644E0208BA4E0208000000009C4B0208BF
:4070800009280000010001020101000000000000000000000000000034710810764E0208C44E020800000000984B02080128000001000102010100000000000000000000D6
:4070C000000000000C00640028280A031E2004000000A0000000FFFF6400640028280A031E20A7000000A00000006400640028280A031E20A7000000A00000000004324019
:40710000030000000004324004000000000432400500000000043240060000000004324007000000000432400100000080003240000000000004324002000000800032408B
:40714000000000000000000047656E6572617465645F536F757263655C50536F43365C43617053656E73655F53656E73696E672E6300000004000000000000000000000090
:407180000000000000000000E80300000080000000000000F401000000400000000000000000000000000000000000000200000003000000FFFFFFFF03000000FFFFFFFF2F
:4071C00003000000FFFFFFFF03000000FFFFFFFF03000000FFFFFFFF0000000000000810004002088C020000FC7108108C420208EC0500000C490208D005000000127A0094
:4072000000093D0000127A0000127A0008000000401F00000000A00F7069081074690810A0690810F86808100469081010690810386908102000000001000100D962081017
